{
	"contracts/2weeksNFT.sol": {
		"TeslamToken": {
			"abi": [
				{
					"inputs": [
						{
							"internalType": "address",
							"name": "initialOwner",
							"type": "address"
						}
					],
					"stateMutability": "nonpayable",
					"type": "constructor"
				},
				{
					"inputs": [
						{
							"internalType": "address",
							"name": "sender",
							"type": "address"
						},
						{
							"internalType": "uint256",
							"name": "tokenId",
							"type": "uint256"
						},
						{
							"internalType": "address",
							"name": "owner",
							"type": "address"
						}
					],
					"name": "ERC721IncorrectOwner",
					"type": "error"
				},
				{
					"inputs": [
						{
							"internalType": "address",
							"name": "operator",
							"type": "address"
						},
						{
							"internalType": "uint256",
							"name": "tokenId",
							"type": "uint256"
						}
					],
					"name": "ERC721InsufficientApproval",
					"type": "error"
				},
				{
					"inputs": [
						{
							"internalType": "address",
							"name": "approver",
							"type": "address"
						}
					],
					"name": "ERC721InvalidApprover",
					"type": "error"
				},
				{
					"inputs": [
						{
							"internalType": "address",
							"name": "operator",
							"type": "address"
						}
					],
					"name": "ERC721InvalidOperator",
					"type": "error"
				},
				{
					"inputs": [
						{
							"internalType": "address",
							"name": "owner",
							"type": "address"
						}
					],
					"name": "ERC721InvalidOwner",
					"type": "error"
				},
				{
					"inputs": [
						{
							"internalType": "address",
							"name": "receiver",
							"type": "address"
						}
					],
					"name": "ERC721InvalidReceiver",
					"type": "error"
				},
				{
					"inputs": [
						{
							"internalType": "address",
							"name": "sender",
							"type": "address"
						}
					],
					"name": "ERC721InvalidSender",
					"type": "error"
				},
				{
					"inputs": [
						{
							"internalType": "uint256",
							"name": "tokenId",
							"type": "uint256"
						}
					],
					"name": "ERC721NonexistentToken",
					"type": "error"
				},
				{
					"inputs": [
						{
							"internalType": "address",
							"name": "owner",
							"type": "address"
						}
					],
					"name": "OwnableInvalidOwner",
					"type": "error"
				},
				{
					"inputs": [
						{
							"internalType": "address",
							"name": "account",
							"type": "address"
						}
					],
					"name": "OwnableUnauthorizedAccount",
					"type": "error"
				},
				{
					"anonymous": false,
					"inputs": [
						{
							"indexed": true,
							"internalType": "address",
							"name": "owner",
							"type": "address"
						},
						{
							"indexed": true,
							"internalType": "address",
							"name": "approved",
							"type": "address"
						},
						{
							"indexed": true,
							"internalType": "uint256",
							"name": "tokenId",
							"type": "uint256"
						}
					],
					"name": "Approval",
					"type": "event"
				},
				{
					"anonymous": false,
					"inputs": [
						{
							"indexed": true,
							"internalType": "address",
							"name": "owner",
							"type": "address"
						},
						{
							"indexed": true,
							"internalType": "address",
							"name": "operator",
							"type": "address"
						},
						{
							"indexed": false,
							"internalType": "bool",
							"name": "approved",
							"type": "bool"
						}
					],
					"name": "ApprovalForAll",
					"type": "event"
				},
				{
					"anonymous": false,
					"inputs": [
						{
							"indexed": false,
							"internalType": "uint256",
							"name": "_fromTokenId",
							"type": "uint256"
						},
						{
							"indexed": false,
							"internalType": "uint256",
							"name": "_toTokenId",
							"type": "uint256"
						}
					],
					"name": "BatchMetadataUpdate",
					"type": "event"
				},
				{
					"anonymous": false,
					"inputs": [
						{
							"indexed": false,
							"internalType": "uint256",
							"name": "_tokenId",
							"type": "uint256"
						}
					],
					"name": "MetadataUpdate",
					"type": "event"
				},
				{
					"anonymous": false,
					"inputs": [
						{
							"indexed": true,
							"internalType": "address",
							"name": "previousOwner",
							"type": "address"
						},
						{
							"indexed": true,
							"internalType": "address",
							"name": "newOwner",
							"type": "address"
						}
					],
					"name": "OwnershipTransferred",
					"type": "event"
				},
				{
					"anonymous": false,
					"inputs": [
						{
							"indexed": true,
							"internalType": "address",
							"name": "from",
							"type": "address"
						},
						{
							"indexed": true,
							"internalType": "address",
							"name": "to",
							"type": "address"
						},
						{
							"indexed": true,
							"internalType": "uint256",
							"name": "tokenId",
							"type": "uint256"
						}
					],
					"name": "Transfer",
					"type": "event"
				},
				{
					"inputs": [
						{
							"internalType": "address",
							"name": "to",
							"type": "address"
						},
						{
							"internalType": "uint256",
							"name": "tokenId",
							"type": "uint256"
						}
					],
					"name": "approve",
					"outputs": [],
					"stateMutability": "nonpayable",
					"type": "function"
				},
				{
					"inputs": [
						{
							"internalType": "address",
							"name": "owner",
							"type": "address"
						}
					],
					"name": "balanceOf",
					"outputs": [
						{
							"internalType": "uint256",
							"name": "",
							"type": "uint256"
						}
					],
					"stateMutability": "view",
					"type": "function"
				},
				{
					"inputs": [
						{
							"internalType": "uint256",
							"name": "tokenId",
							"type": "uint256"
						}
					],
					"name": "burn",
					"outputs": [],
					"stateMutability": "nonpayable",
					"type": "function"
				},
				{
					"inputs": [
						{
							"internalType": "uint256",
							"name": "tokenId",
							"type": "uint256"
						}
					],
					"name": "getApproved",
					"outputs": [
						{
							"internalType": "address",
							"name": "",
							"type": "address"
						}
					],
					"stateMutability": "view",
					"type": "function"
				},
				{
					"inputs": [
						{
							"internalType": "address",
							"name": "owner",
							"type": "address"
						},
						{
							"internalType": "address",
							"name": "operator",
							"type": "address"
						}
					],
					"name": "isApprovedForAll",
					"outputs": [
						{
							"internalType": "bool",
							"name": "",
							"type": "bool"
						}
					],
					"stateMutability": "view",
					"type": "function"
				},
				{
					"inputs": [],
					"name": "name",
					"outputs": [
						{
							"internalType": "string",
							"name": "",
							"type": "string"
						}
					],
					"stateMutability": "view",
					"type": "function"
				},
				{
					"inputs": [],
					"name": "owner",
					"outputs": [
						{
							"internalType": "address",
							"name": "",
							"type": "address"
						}
					],
					"stateMutability": "view",
					"type": "function"
				},
				{
					"inputs": [
						{
							"internalType": "uint256",
							"name": "tokenId",
							"type": "uint256"
						}
					],
					"name": "ownerOf",
					"outputs": [
						{
							"internalType": "address",
							"name": "",
							"type": "address"
						}
					],
					"stateMutability": "view",
					"type": "function"
				},
				{
					"inputs": [],
					"name": "renounceOwnership",
					"outputs": [],
					"stateMutability": "nonpayable",
					"type": "function"
				},
				{
					"inputs": [
						{
							"internalType": "address",
							"name": "to",
							"type": "address"
						},
						{
							"internalType": "uint256",
							"name": "tokenId",
							"type": "uint256"
						},
						{
							"internalType": "string",
							"name": "uri",
							"type": "string"
						}
					],
					"name": "safeMint",
					"outputs": [],
					"stateMutability": "nonpayable",
					"type": "function"
				},
				{
					"inputs": [
						{
							"internalType": "address",
							"name": "from",
							"type": "address"
						},
						{
							"internalType": "address",
							"name": "to",
							"type": "address"
						},
						{
							"internalType": "uint256",
							"name": "tokenId",
							"type": "uint256"
						}
					],
					"name": "safeTransferFrom",
					"outputs": [],
					"stateMutability": "nonpayable",
					"type": "function"
				},
				{
					"inputs": [
						{
							"internalType": "address",
							"name": "from",
							"type": "address"
						},
						{
							"internalType": "address",
							"name": "to",
							"type": "address"
						},
						{
							"internalType": "uint256",
							"name": "tokenId",
							"type": "uint256"
						},
						{
							"internalType": "bytes",
							"name": "data",
							"type": "bytes"
						}
					],
					"name": "safeTransferFrom",
					"outputs": [],
					"stateMutability": "nonpayable",
					"type": "function"
				},
				{
					"inputs": [
						{
							"internalType": "address",
							"name": "operator",
							"type": "address"
						},
						{
							"internalType": "bool",
							"name": "approved",
							"type": "bool"
						}
					],
					"name": "setApprovalForAll",
					"outputs": [],
					"stateMutability": "nonpayable",
					"type": "function"
				},
				{
					"inputs": [
						{
							"internalType": "bytes4",
							"name": "interfaceId",
							"type": "bytes4"
						}
					],
					"name": "supportsInterface",
					"outputs": [
						{
							"internalType": "bool",
							"name": "",
							"type": "bool"
						}
					],
					"stateMutability": "view",
					"type": "function"
				},
				{
					"inputs": [],
					"name": "symbol",
					"outputs": [
						{
							"internalType": "string",
							"name": "",
							"type": "string"
						}
					],
					"stateMutability": "view",
					"type": "function"
				},
				{
					"inputs": [
						{
							"internalType": "uint256",
							"name": "tokenId",
							"type": "uint256"
						}
					],
					"name": "tokenURI",
					"outputs": [
						{
							"internalType": "string",
							"name": "",
							"type": "string"
						}
					],
					"stateMutability": "view",
					"type": "function"
				},
				{
					"inputs": [
						{
							"internalType": "address",
							"name": "from",
							"type": "address"
						},
						{
							"internalType": "address",
							"name": "to",
							"type": "address"
						},
						{
							"internalType": "uint256",
							"name": "tokenId",
							"type": "uint256"
						}
					],
					"name": "transferFrom",
					"outputs": [],
					"stateMutability": "nonpayable",
					"type": "function"
				},
				{
					"inputs": [
						{
							"internalType": "address",
							"name": "newOwner",
							"type": "address"
						}
					],
					"name": "transferOwnership",
					"outputs": [],
					"stateMutability": "nonpayable",
					"type": "function"
				}
			],
			"devdoc": {
				"errors": {
					"ERC721IncorrectOwner(address,uint256,address)": [
						{
							"details": "Indicates an error related to the ownership over a particular token. Used in transfers.",
							"params": {
								"owner": "Address of the current owner of a token.",
								"sender": "Address whose tokens are being transferred.",
								"tokenId": "Identifier number of a token."
							}
						}
					],
					"ERC721InsufficientApproval(address,uint256)": [
						{
							"details": "Indicates a failure with the `operator`’s approval. Used in transfers.",
							"params": {
								"operator": "Address that may be allowed to operate on tokens without being their owner.",
								"tokenId": "Identifier number of a token."
							}
						}
					],
					"ERC721InvalidApprover(address)": [
						{
							"details": "Indicates a failure with the `approver` of a token to be approved. Used in approvals.",
							"params": {
								"approver": "Address initiating an approval operation."
							}
						}
					],
					"ERC721InvalidOperator(address)": [
						{
							"details": "Indicates a failure with the `operator` to be approved. Used in approvals.",
							"params": {
								"operator": "Address that may be allowed to operate on tokens without being their owner."
							}
						}
					],
					"ERC721InvalidOwner(address)": [
						{
							"details": "Indicates that an address can't be an owner. For example, `address(0)` is a forbidden owner in EIP-20. Used in balance queries.",
							"params": {
								"owner": "Address of the current owner of a token."
							}
						}
					],
					"ERC721InvalidReceiver(address)": [
						{
							"details": "Indicates a failure with the token `receiver`. Used in transfers.",
							"params": {
								"receiver": "Address to which tokens are being transferred."
							}
						}
					],
					"ERC721InvalidSender(address)": [
						{
							"details": "Indicates a failure with the token `sender`. Used in transfers.",
							"params": {
								"sender": "Address whose tokens are being transferred."
							}
						}
					],
					"ERC721NonexistentToken(uint256)": [
						{
							"details": "Indicates a `tokenId` whose `owner` is the zero address.",
							"params": {
								"tokenId": "Identifier number of a token."
							}
						}
					],
					"OwnableInvalidOwner(address)": [
						{
							"details": "The owner is not a valid owner account. (eg. `address(0)`)"
						}
					],
					"OwnableUnauthorizedAccount(address)": [
						{
							"details": "The caller account is not authorized to perform an operation."
						}
					]
				},
				"events": {
					"Approval(address,address,uint256)": {
						"details": "Emitted when `owner` enables `approved` to manage the `tokenId` token."
					},
					"ApprovalForAll(address,address,bool)": {
						"details": "Emitted when `owner` enables or disables (`approved`) `operator` to manage all of its assets."
					},
					"BatchMetadataUpdate(uint256,uint256)": {
						"details": "This event emits when the metadata of a range of tokens is changed. So that the third-party platforms such as NFT market could timely update the images and related attributes of the NFTs."
					},
					"MetadataUpdate(uint256)": {
						"details": "This event emits when the metadata of a token is changed. So that the third-party platforms such as NFT market could timely update the images and related attributes of the NFT."
					},
					"Transfer(address,address,uint256)": {
						"details": "Emitted when `tokenId` token is transferred from `from` to `to`."
					}
				},
				"kind": "dev",
				"methods": {
					"approve(address,uint256)": {
						"details": "See {IERC721-approve}."
					},
					"balanceOf(address)": {
						"details": "See {IERC721-balanceOf}."
					},
					"burn(uint256)": {
						"details": "Burns `tokenId`. See {ERC721-_burn}. Requirements: - The caller must own `tokenId` or be an approved operator."
					},
					"getApproved(uint256)": {
						"details": "See {IERC721-getApproved}."
					},
					"isApprovedForAll(address,address)": {
						"details": "See {IERC721-isApprovedForAll}."
					},
					"name()": {
						"details": "See {IERC721Metadata-name}."
					},
					"owner()": {
						"details": "Returns the address of the current owner."
					},
					"ownerOf(uint256)": {
						"details": "See {IERC721-ownerOf}."
					},
					"renounceOwnership()": {
						"details": "Leaves the contract without owner. It will not be possible to call `onlyOwner` functions. Can only be called by the current owner. NOTE: Renouncing ownership will leave the contract without an owner, thereby disabling any functionality that is only available to the owner."
					},
					"safeTransferFrom(address,address,uint256)": {
						"details": "See {IERC721-safeTransferFrom}."
					},
					"safeTransferFrom(address,address,uint256,bytes)": {
						"details": "See {IERC721-safeTransferFrom}."
					},
					"setApprovalForAll(address,bool)": {
						"details": "See {IERC721-setApprovalForAll}."
					},
					"symbol()": {
						"details": "See {IERC721Metadata-symbol}."
					},
					"transferFrom(address,address,uint256)": {
						"details": "See {IERC721-transferFrom}."
					},
					"transferOwnership(address)": {
						"details": "Transfers ownership of the contract to a new account (`newOwner`). Can only be called by the current owner."
					}
				},
				"version": 1
			},
			"evm": {
				"assembly": "    /* \"contracts/2weeksNFT.sol\":350:1201  contract TeslamToken is ERC721, ERC721URIStorage, ERC721Burnable, Ownable {... */\n  mstore(0x40, 0x80)\n    /* \"contracts/2weeksNFT.sol\":430:541  constructor(address initialOwner)... */\n  callvalue\n  dup1\n  iszero\n  tag_1\n  jumpi\n  revert(0x00, 0x00)\ntag_1:\n  pop\n  mload(0x40)\n  sub(codesize, bytecodeSize)\n  dup1\n  bytecodeSize\n  dup4\n  codecopy\n  dup2\n  add\n  0x40\n  dup2\n  swap1\n  mstore\n  tag_2\n  swap2\n  tag_3\n  jump\t// in\ntag_2:\n    /* \"contracts/2weeksNFT.sol\":521:533  initialOwner */\n  dup1\n    /* \"@openzeppelin/contracts@5.0.0/token/ERC721/ERC721.sol\":1381:1494  constructor(string memory name_, string memory symbol_) {... */\n  mload(0x40)\n  dup1\n  0x40\n  add\n  0x40\n  mstore\n  dup1\n  0x0c\n  dup2\n  mstore\n  0x20\n  add\n  shl(0xa1, 0x2a32b9b630b6902a37b5b2b7)\n  dup2\n  mstore\n  pop\n  mload(0x40)\n  dup1\n  0x40\n  add\n  0x40\n  mstore\n  dup1\n  0x06\n  dup2\n  mstore\n  0x20\n  add\n  shl(0xd0, 0x5445534c414d)\n  dup2\n  mstore\n  pop\n    /* \"@openzeppelin/contracts@5.0.0/token/ERC721/ERC721.sol\":1455:1460  name_ */\n  dup2\n    /* \"@openzeppelin/contracts@5.0.0/token/ERC721/ERC721.sol\":1447:1452  _name */\n  0x00\n    /* \"@openzeppelin/contracts@5.0.0/token/ERC721/ERC721.sol\":1447:1460  _name = name_ */\n  swap1\n  dup2\n  tag_8\n  swap2\n  swap1\n  tag_9\n  jump\t// in\ntag_8:\n  pop\n    /* \"@openzeppelin/contracts@5.0.0/token/ERC721/ERC721.sol\":1470:1477  _symbol */\n  0x01\n    /* \"@openzeppelin/contracts@5.0.0/token/ERC721/ERC721.sol\":1470:1487  _symbol = symbol_ */\n  tag_10\n    /* \"@openzeppelin/contracts@5.0.0/token/ERC721/ERC721.sol\":1480:1487  symbol_ */\n  dup3\n    /* \"@openzeppelin/contracts@5.0.0/token/ERC721/ERC721.sol\":1470:1477  _symbol */\n  dup3\n    /* \"@openzeppelin/contracts@5.0.0/token/ERC721/ERC721.sol\":1470:1487  _symbol = symbol_ */\n  tag_9\n  jump\t// in\ntag_10:\n  pop\n  pop\n  pop\n  sub(shl(0xa0, 0x01), 0x01)\n    /* \"@openzeppelin/contracts@5.0.0/access/Ownable.sol\":1273:1299  initialOwner == address(0) */\n  dup2\n  and\n    /* \"@openzeppelin/contracts@5.0.0/access/Ownable.sol\":1269:1364  if (initialOwner == address(0)) {... */\n  tag_12\n  jumpi\n    /* \"@openzeppelin/contracts@5.0.0/access/Ownable.sol\":1322:1353  OwnableInvalidOwner(address(0)) */\n  mload(0x40)\n  shl(0xe0, 0x1e4fbdf7)\n  dup2\n  mstore\n    /* \"@openzeppelin/contracts@5.0.0/access/Ownable.sol\":1350:1351  0 */\n  0x00\n    /* \"@openzeppelin/contracts@5.0.0/access/Ownable.sol\":1322:1353  OwnableInvalidOwner(address(0)) */\n  0x04\n  dup3\n  add\n    /* \"#utility.yul\":3096:3147   */\n  mstore\n    /* \"#utility.yul\":3069:3087   */\n  0x24\n  add\n    /* \"@openzeppelin/contracts@5.0.0/access/Ownable.sol\":1322:1353  OwnableInvalidOwner(address(0)) */\n  mload(0x40)\n  dup1\n  swap2\n  sub\n  swap1\n  revert\n    /* \"@openzeppelin/contracts@5.0.0/access/Ownable.sol\":1269:1364  if (initialOwner == address(0)) {... */\ntag_12:\n    /* \"@openzeppelin/contracts@5.0.0/access/Ownable.sol\":1373:1405  _transferOwnership(initialOwner) */\n  tag_15\n    /* \"@openzeppelin/contracts@5.0.0/access/Ownable.sol\":1392:1404  initialOwner */\n  dup2\n    /* \"@openzeppelin/contracts@5.0.0/access/Ownable.sol\":1373:1391  _transferOwnership */\n  tag_16\n    /* \"@openzeppelin/contracts@5.0.0/access/Ownable.sol\":1373:1405  _transferOwnership(initialOwner) */\n  jump\t// in\ntag_15:\n    /* \"@openzeppelin/contracts@5.0.0/access/Ownable.sol\":1225:1412  constructor(address initialOwner) {... */\n  pop\n    /* \"contracts/2weeksNFT.sol\":430:541  constructor(address initialOwner)... */\n  pop\n    /* \"contracts/2weeksNFT.sol\":350:1201  contract TeslamToken is ERC721, ERC721URIStorage, ERC721Burnable, Ownable {... */\n  jump(tag_25)\n    /* \"@openzeppelin/contracts@5.0.0/access/Ownable.sol\":2912:3099  function _transferOwnership(address newOwner) internal virtual {... */\ntag_16:\n    /* \"@openzeppelin/contracts@5.0.0/access/Ownable.sol\":3004:3010  _owner */\n  0x07\n  dup1\n  sload\n  sub(shl(0xa0, 0x01), 0x01)\n    /* \"@openzeppelin/contracts@5.0.0/access/Ownable.sol\":3020:3037  _owner = newOwner */\n  dup4\n  dup2\n  and\n  not(sub(shl(0xa0, 0x01), 0x01))\n  dup4\n  and\n  dup2\n  or\n  swap1\n  swap4\n  sstore\n    /* \"@openzeppelin/contracts@5.0.0/access/Ownable.sol\":3052:3092  OwnershipTransferred(oldOwner, newOwner) */\n  mload(0x40)\n    /* \"@openzeppelin/contracts@5.0.0/access/Ownable.sol\":3004:3010  _owner */\n  swap2\n  and\n  swap2\n    /* \"@openzeppelin/contracts@5.0.0/access/Ownable.sol\":3020:3037  _owner = newOwner */\n  swap1\n    /* \"@openzeppelin/contracts@5.0.0/access/Ownable.sol\":3004:3010  _owner */\n  dup3\n  swap1\n    /* \"@openzeppelin/contracts@5.0.0/access/Ownable.sol\":3052:3092  OwnershipTransferred(oldOwner, newOwner) */\n  0x8be0079c531659141344cd1fd0a4f28419497f9722a3daafe3b4186f6b6457e0\n  swap1\n    /* \"@openzeppelin/contracts@5.0.0/access/Ownable.sol\":2985:3001  address oldOwner */\n  0x00\n  swap1\n    /* \"@openzeppelin/contracts@5.0.0/access/Ownable.sol\":3052:3092  OwnershipTransferred(oldOwner, newOwner) */\n  log3\n    /* \"@openzeppelin/contracts@5.0.0/access/Ownable.sol\":2975:3099  {... */\n  pop\n    /* \"@openzeppelin/contracts@5.0.0/access/Ownable.sol\":2912:3099  function _transferOwnership(address newOwner) internal virtual {... */\n  pop\n  jump\t// out\n    /* \"#utility.yul\":14:304   */\ntag_3:\n    /* \"#utility.yul\":84:90   */\n  0x00\n    /* \"#utility.yul\":137:139   */\n  0x20\n    /* \"#utility.yul\":125:134   */\n  dup3\n    /* \"#utility.yul\":116:123   */\n  dup5\n    /* \"#utility.yul\":112:135   */\n  sub\n    /* \"#utility.yul\":108:140   */\n  slt\n    /* \"#utility.yul\":105:157   */\n  iszero\n  tag_27\n  jumpi\n    /* \"#utility.yul\":153:154   */\n  0x00\n    /* \"#utility.yul\":150:151   */\n  0x00\n    /* \"#utility.yul\":143:155   */\n  revert\n    /* \"#utility.yul\":105:157   */\ntag_27:\n    /* \"#utility.yul\":179:195   */\n  dup2\n  mload\n  sub(shl(0xa0, 0x01), 0x01)\n    /* \"#utility.yul\":224:255   */\n  dup2\n  and\n    /* \"#utility.yul\":214:256   */\n  dup2\n  eq\n    /* \"#utility.yul\":204:274   */\n  tag_28\n  jumpi\n    /* \"#utility.yul\":270:271   */\n  0x00\n    /* \"#utility.yul\":267:268   */\n  0x00\n    /* \"#utility.yul\":260:272   */\n  revert\n    /* \"#utility.yul\":204:274   */\ntag_28:\n    /* \"#utility.yul\":293:298   */\n  swap4\n    /* \"#utility.yul\":14:304   */\n  swap3\n  pop\n  pop\n  pop\n  jump\t// out\n    /* \"#utility.yul\":309:436   */\ntag_20:\n    /* \"#utility.yul\":370:380   */\n  0x4e487b71\n    /* \"#utility.yul\":365:368   */\n  0xe0\n    /* \"#utility.yul\":361:381   */\n  shl\n    /* \"#utility.yul\":358:359   */\n  0x00\n    /* \"#utility.yul\":351:382   */\n  mstore\n    /* \"#utility.yul\":401:405   */\n  0x41\n    /* \"#utility.yul\":398:399   */\n  0x04\n    /* \"#utility.yul\":391:406   */\n  mstore\n    /* \"#utility.yul\":425:429   */\n  0x24\n    /* \"#utility.yul\":422:423   */\n  0x00\n    /* \"#utility.yul\":415:430   */\n  revert\n    /* \"#utility.yul\":441:821   */\ntag_21:\n    /* \"#utility.yul\":520:521   */\n  0x01\n    /* \"#utility.yul\":516:528   */\n  dup2\n  dup2\n  shr\n  swap1\n    /* \"#utility.yul\":563:575   */\n  dup3\n  and\n  dup1\n    /* \"#utility.yul\":584:645   */\n  tag_31\n  jumpi\n    /* \"#utility.yul\":638:642   */\n  0x7f\n    /* \"#utility.yul\":630:636   */\n  dup3\n    /* \"#utility.yul\":626:643   */\n  and\n    /* \"#utility.yul\":616:643   */\n  swap2\n  pop\n    /* \"#utility.yul\":584:645   */\ntag_31:\n    /* \"#utility.yul\":691:693   */\n  0x20\n    /* \"#utility.yul\":683:689   */\n  dup3\n    /* \"#utility.yul\":680:694   */\n  lt\n    /* \"#utility.yul\":660:678   */\n  dup2\n    /* \"#utility.yul\":657:695   */\n  sub\n    /* \"#utility.yul\":654:815   */\n  tag_32\n  jumpi\n    /* \"#utility.yul\":737:747   */\n  0x4e487b71\n    /* \"#utility.yul\":732:735   */\n  0xe0\n    /* \"#utility.yul\":728:748   */\n  shl\n    /* \"#utility.yul\":725:726   */\n  0x00\n    /* \"#utility.yul\":718:749   */\n  mstore\n    /* \"#utility.yul\":772:776   */\n  0x22\n    /* \"#utility.yul\":769:770   */\n  0x04\n    /* \"#utility.yul\":762:777   */\n  mstore\n    /* \"#utility.yul\":800:804   */\n  0x24\n    /* \"#utility.yul\":797:798   */\n  0x00\n    /* \"#utility.yul\":790:805   */\n  revert\n    /* \"#utility.yul\":654:815   */\ntag_32:\n  pop\n    /* \"#utility.yul\":441:821   */\n  swap2\n  swap1\n  pop\n  jump\t// out\n    /* \"#utility.yul\":952:1470   */\ntag_23:\n    /* \"#utility.yul\":1054:1056   */\n  0x1f\n    /* \"#utility.yul\":1049:1052   */\n  dup3\n    /* \"#utility.yul\":1046:1057   */\n  gt\n    /* \"#utility.yul\":1043:1464   */\n  iszero\n  tag_35\n  jumpi\n    /* \"#utility.yul\":1090:1095   */\n  dup1\n    /* \"#utility.yul\":1087:1088   */\n  0x00\n    /* \"#utility.yul\":1080:1096   */\n  mstore\n    /* \"#utility.yul\":1134:1138   */\n  0x20\n    /* \"#utility.yul\":1131:1132   */\n  0x00\n    /* \"#utility.yul\":1121:1139   */\n  keccak256\n    /* \"#utility.yul\":1204:1206   */\n  0x1f\n    /* \"#utility.yul\":1192:1202   */\n  dup5\n    /* \"#utility.yul\":1188:1207   */\n  add\n    /* \"#utility.yul\":1185:1186   */\n  0x05\n    /* \"#utility.yul\":1181:1208   */\n  shr\n    /* \"#utility.yul\":1175:1179   */\n  dup2\n    /* \"#utility.yul\":1171:1209   */\n  add\n    /* \"#utility.yul\":1240:1244   */\n  0x20\n    /* \"#utility.yul\":1228:1238   */\n  dup6\n    /* \"#utility.yul\":1225:1245   */\n  lt\n    /* \"#utility.yul\":1222:1269   */\n  iszero\n  tag_36\n  jumpi\n  pop\n    /* \"#utility.yul\":1263:1267   */\n  dup1\n    /* \"#utility.yul\":1222:1269   */\ntag_36:\n    /* \"#utility.yul\":1318:1320   */\n  0x1f\n    /* \"#utility.yul\":1313:1316   */\n  dup5\n    /* \"#utility.yul\":1309:1321   */\n  add\n    /* \"#utility.yul\":1306:1307   */\n  0x05\n    /* \"#utility.yul\":1302:1322   */\n  shr\n    /* \"#utility.yul\":1296:1300   */\n  dup3\n    /* \"#utility.yul\":1292:1323   */\n  add\n    /* \"#utility.yul\":1282:1323   */\n  swap2\n  pop\n    /* \"#utility.yul\":1373:1454   */\ntag_37:\n    /* \"#utility.yul\":1391:1393   */\n  dup2\n    /* \"#utility.yul\":1384:1389   */\n  dup2\n    /* \"#utility.yul\":1381:1394   */\n  lt\n    /* \"#utility.yul\":1373:1454   */\n  iszero\n  tag_39\n  jumpi\n    /* \"#utility.yul\":1450:1451   */\n  0x00\n    /* \"#utility.yul\":1436:1452   */\n  dup2\n  sstore\n    /* \"#utility.yul\":1417:1418   */\n  0x01\n    /* \"#utility.yul\":1406:1419   */\n  add\n    /* \"#utility.yul\":1373:1454   */\n  jump(tag_37)\ntag_39:\n    /* \"#utility.yul\":1377:1380   */\n  pop\n  pop\n    /* \"#utility.yul\":1043:1464   */\ntag_35:\n    /* \"#utility.yul\":952:1470   */\n  pop\n  pop\n  pop\n  jump\t// out\n    /* \"#utility.yul\":1646:2945   */\ntag_9:\n    /* \"#utility.yul\":1766:1776   */\n  dup2\n  mload\n  sub(shl(0x40, 0x01), 0x01)\n    /* \"#utility.yul\":1788:1818   */\n  dup2\n  gt\n    /* \"#utility.yul\":1785:1841   */\n  iszero\n  tag_43\n  jumpi\n    /* \"#utility.yul\":1821:1839   */\n  tag_43\n  tag_20\n  jump\t// in\ntag_43:\n    /* \"#utility.yul\":1850:1947   */\n  tag_44\n    /* \"#utility.yul\":1940:1946   */\n  dup2\n    /* \"#utility.yul\":1900:1938   */\n  tag_45\n    /* \"#utility.yul\":1932:1936   */\n  dup5\n    /* \"#utility.yul\":1926:1937   */\n  sload\n    /* \"#utility.yul\":1900:1938   */\n  tag_21\n  jump\t// in\ntag_45:\n    /* \"#utility.yul\":1894:1898   */\n  dup5\n    /* \"#utility.yul\":1850:1947   */\n  tag_23\n  jump\t// in\ntag_44:\n    /* \"#utility.yul\":1996:2000   */\n  0x20\n    /* \"#utility.yul\":2027:2029   */\n  0x1f\n    /* \"#utility.yul\":2016:2030   */\n  dup3\n  gt\n    /* \"#utility.yul\":2044:2045   */\n  0x01\n    /* \"#utility.yul\":2039:2688   */\n  dup2\n  eq\n  tag_47\n  jumpi\n    /* \"#utility.yul\":2732:2733   */\n  0x00\n    /* \"#utility.yul\":2749:2755   */\n  dup4\n    /* \"#utility.yul\":2746:2835   */\n  iszero\n  tag_48\n  jumpi\n  pop\n    /* \"#utility.yul\":2801:2820   */\n  dup5\n  dup3\n  add\n    /* \"#utility.yul\":2795:2821   */\n  mload\n    /* \"#utility.yul\":2746:2835   */\ntag_48:\n  not(0x00)\n    /* \"#utility.yul\":1603:1604   */\n  0x03\n    /* \"#utility.yul\":1599:1610   */\n  dup6\n  swap1\n  shl\n    /* \"#utility.yul\":1595:1619   */\n  shr\n    /* \"#utility.yul\":1591:1620   */\n  not\n    /* \"#utility.yul\":1581:1621   */\n  and\n    /* \"#utility.yul\":1627:1628   */\n  0x01\n    /* \"#utility.yul\":1623:1634   */\n  dup5\n  swap1\n  shl\n    /* \"#utility.yul\":1578:1635   */\n  or\n    /* \"#utility.yul\":2848:2929   */\n  dup5\n  sstore\n    /* \"#utility.yul\":2009:2939   */\n  jump(tag_39)\n    /* \"#utility.yul\":2039:2688   */\ntag_47:\n    /* \"#utility.yul\":899:900   */\n  0x00\n    /* \"#utility.yul\":892:906   */\n  dup5\n  dup2\n  mstore\n    /* \"#utility.yul\":936:940   */\n  0x20\n    /* \"#utility.yul\":923:941   */\n  dup2\n  keccak256\n  not(0x1f)\n    /* \"#utility.yul\":2075:2095   */\n  dup6\n  and\n  swap2\n    /* \"#utility.yul\":2193:2415   */\ntag_51:\n    /* \"#utility.yul\":2207:2214   */\n  dup3\n    /* \"#utility.yul\":2204:2205   */\n  dup2\n    /* \"#utility.yul\":2201:2215   */\n  lt\n    /* \"#utility.yul\":2193:2415   */\n  iszero\n  tag_53\n  jumpi\n    /* \"#utility.yul\":2289:2308   */\n  dup8\n  dup6\n  add\n    /* \"#utility.yul\":2283:2309   */\n  mload\n    /* \"#utility.yul\":2268:2310   */\n  dup3\n  sstore\n    /* \"#utility.yul\":2396:2400   */\n  0x20\n    /* \"#utility.yul\":2381:2401   */\n  swap5\n  dup6\n  add\n  swap5\n    /* \"#utility.yul\":2349:2350   */\n  0x01\n    /* \"#utility.yul\":2337:2351   */\n  swap1\n  swap3\n  add\n  swap2\n    /* \"#utility.yul\":2223:2235   */\n  add\n    /* \"#utility.yul\":2193:2415   */\n  jump(tag_51)\ntag_53:\n    /* \"#utility.yul\":2197:2200   */\n  pop\n    /* \"#utility.yul\":2443:2449   */\n  dup5\n    /* \"#utility.yul\":2434:2441   */\n  dup3\n    /* \"#utility.yul\":2431:2450   */\n  lt\n    /* \"#utility.yul\":2428:2629   */\n  iszero\n  tag_54\n  jumpi\n    /* \"#utility.yul\":2504:2523   */\n  dup7\n  dup5\n  add\n    /* \"#utility.yul\":2498:2524   */\n  mload\n  not(0x00)\n    /* \"#utility.yul\":2587:2588   */\n  0x03\n    /* \"#utility.yul\":2583:2597   */\n  dup8\n  swap1\n  shl\n    /* \"#utility.yul\":2599:2602   */\n  0xf8\n    /* \"#utility.yul\":2579:2603   */\n  and\n    /* \"#utility.yul\":2575:2612   */\n  shr\n    /* \"#utility.yul\":2571:2613   */\n  not\n    /* \"#utility.yul\":2556:2614   */\n  and\n    /* \"#utility.yul\":2541:2615   */\n  dup2\n  sstore\n    /* \"#utility.yul\":2428:2629   */\ntag_54:\n  pop\n  pop\n  pop\n  pop\n    /* \"#utility.yul\":2675:2676   */\n  0x01\n    /* \"#utility.yul\":2659:2673   */\n  swap1\n  dup2\n  shl\n    /* \"#utility.yul\":2655:2677   */\n  add\n    /* \"#utility.yul\":2642:2678   */\n  swap1\n  sstore\n  pop\n    /* \"#utility.yul\":1646:2945   */\n  jump\t// out\n    /* \"#utility.yul\":2950:3153   */\ntag_25:\n    /* \"contracts/2weeksNFT.sol\":350:1201  contract TeslamToken is ERC721, ERC721URIStorage, ERC721Burnable, Ownable {... */\n  dataSize(sub_0)\n  dup1\n  dataOffset(sub_0)\n  0x00\n  codecopy\n  0x00\n  return\nstop\n\nsub_0: assembly {\n        /* \"contracts/2weeksNFT.sol\":350:1201  contract TeslamToken is ERC721, ERC721URIStorage, ERC721Burnable, Ownable {... */\n      mstore(0x40, 0x80)\n      callvalue\n      dup1\n      iszero\n      tag_1\n      jumpi\n      revert(0x00, 0x00)\n    tag_1:\n      pop\n      jumpi(tag_2, lt(calldatasize, 0x04))\n      shr(0xe0, calldataload(0x00))\n      dup1\n      0x715018a6\n      gt\n      tag_21\n      jumpi\n      dup1\n      0xb88d4fde\n      gt\n      tag_22\n      jumpi\n      dup1\n      0xb88d4fde\n      eq\n      tag_16\n      jumpi\n      dup1\n      0xc87b56dd\n      eq\n      tag_17\n      jumpi\n      dup1\n      0xcd279c7c\n      eq\n      tag_18\n      jumpi\n      dup1\n      0xe985e9c5\n      eq\n      tag_19\n      jumpi\n      dup1\n      0xf2fde38b\n      eq\n      tag_20\n      jumpi\n      revert(0x00, 0x00)\n    tag_22:\n      dup1\n      0x715018a6\n      eq\n      tag_12\n      jumpi\n      dup1\n      0x8da5cb5b\n      eq\n      tag_13\n      jumpi\n      dup1\n      0x95d89b41\n      eq\n      tag_14\n      jumpi\n      dup1\n      0xa22cb465\n      eq\n      tag_15\n      jumpi\n      revert(0x00, 0x00)\n    tag_21:\n      dup1\n      0x23b872dd\n      gt\n      tag_23\n      jumpi\n      dup1\n      0x23b872dd\n      eq\n      tag_7\n      jumpi\n      dup1\n      0x42842e0e\n      eq\n      tag_8\n      jumpi\n      dup1\n      0x42966c68\n      eq\n      tag_9\n      jumpi\n      dup1\n      0x6352211e\n      eq\n      tag_10\n      jumpi\n      dup1\n      0x70a08231\n      eq\n      tag_11\n      jumpi\n      revert(0x00, 0x00)\n    tag_23:\n      dup1\n      0x01ffc9a7\n      eq\n      tag_3\n      jumpi\n      dup1\n      0x06fdde03\n      eq\n      tag_4\n      jumpi\n      dup1\n      0x081812fc\n      eq\n      tag_5\n      jumpi\n      dup1\n      0x095ea7b3\n      eq\n      tag_6\n      jumpi\n    tag_2:\n      revert(0x00, 0x00)\n        /* \"contracts/2weeksNFT.sol\":994:1199  function supportsInterface(bytes4 interfaceId)... */\n    tag_3:\n      tag_24\n      tag_25\n      calldatasize\n      0x04\n      tag_26\n      jump\t// in\n    tag_25:\n      tag_27\n      jump\t// in\n    tag_24:\n      mload(0x40)\n        /* \"#utility.yul\":565:579   */\n      swap1\n      iszero\n        /* \"#utility.yul\":558:580   */\n      iszero\n        /* \"#utility.yul\":540:581   */\n      dup2\n      mstore\n        /* \"#utility.yul\":528:530   */\n      0x20\n        /* \"#utility.yul\":513:531   */\n      add\n        /* \"contracts/2weeksNFT.sol\":994:1199  function supportsInterface(bytes4 interfaceId)... */\n    tag_28:\n      mload(0x40)\n      dup1\n      swap2\n      sub\n      swap1\n      return\n        /* \"@openzeppelin/contracts@5.0.0/token/ERC721/ERC721.sol\":2365:2454  function name() public view virtual returns (string memory) {... */\n    tag_4:\n      tag_30\n      tag_31\n      jump\t// in\n    tag_30:\n      mload(0x40)\n      tag_28\n      swap2\n      swap1\n      tag_33\n      jump\t// in\n        /* \"@openzeppelin/contracts@5.0.0/token/ERC721/ERC721.sol\":3497:3651  function getApproved(uint256 tokenId) public view virtual returns (address) {... */\n    tag_5:\n      tag_34\n      tag_35\n      calldatasize\n      0x04\n      tag_36\n      jump\t// in\n    tag_35:\n      tag_37\n      jump\t// in\n    tag_34:\n      mload(0x40)\n      sub(shl(0xa0, 0x01), 0x01)\n        /* \"#utility.yul\":1528:1560   */\n      swap1\n      swap2\n      and\n        /* \"#utility.yul\":1510:1561   */\n      dup2\n      mstore\n        /* \"#utility.yul\":1498:1500   */\n      0x20\n        /* \"#utility.yul\":1483:1501   */\n      add\n        /* \"@openzeppelin/contracts@5.0.0/token/ERC721/ERC721.sol\":3497:3651  function getApproved(uint256 tokenId) public view virtual returns (address) {... */\n      tag_28\n        /* \"#utility.yul\":1364:1567   */\n      jump\n        /* \"@openzeppelin/contracts@5.0.0/token/ERC721/ERC721.sol\":3323:3436  function approve(address to, uint256 tokenId) public virtual {... */\n    tag_6:\n      tag_40\n      tag_41\n      calldatasize\n      0x04\n      tag_42\n      jump\t// in\n    tag_41:\n      tag_43\n      jump\t// in\n    tag_40:\n      stop\n        /* \"@openzeppelin/contracts@5.0.0/token/ERC721/ERC721.sol\":4143:4721  function transferFrom(address from, address to, uint256 tokenId) public virtual {... */\n    tag_7:\n      tag_40\n      tag_45\n      calldatasize\n      0x04\n      tag_46\n      jump\t// in\n    tag_45:\n      tag_47\n      jump\t// in\n        /* \"@openzeppelin/contracts@5.0.0/token/ERC721/ERC721.sol\":4787:4919  function safeTransferFrom(address from, address to, uint256 tokenId) public {... */\n    tag_8:\n      tag_40\n      tag_49\n      calldatasize\n      0x04\n      tag_46\n      jump\t// in\n    tag_49:\n      tag_50\n      jump\t// in\n        /* \"@openzeppelin/contracts@5.0.0/token/ERC721/extensions/ERC721Burnable.sol\":561:875  function burn(uint256 tokenId) public virtual {... */\n    tag_9:\n      tag_40\n      tag_52\n      calldatasize\n      0x04\n      tag_36\n      jump\t// in\n    tag_52:\n      tag_53\n      jump\t// in\n        /* \"@openzeppelin/contracts@5.0.0/token/ERC721/ERC721.sol\":2185:2303  function ownerOf(uint256 tokenId) public view virtual returns (address) {... */\n    tag_10:\n      tag_34\n      tag_55\n      calldatasize\n      0x04\n      tag_36\n      jump\t// in\n    tag_55:\n      tag_56\n      jump\t// in\n        /* \"@openzeppelin/contracts@5.0.0/token/ERC721/ERC721.sol\":1920:2128  function balanceOf(address owner) public view virtual returns (uint256) {... */\n    tag_11:\n      tag_58\n      tag_59\n      calldatasize\n      0x04\n      tag_60\n      jump\t// in\n    tag_59:\n      tag_61\n      jump\t// in\n    tag_58:\n      mload(0x40)\n        /* \"#utility.yul\":2771:2796   */\n      swap1\n      dup2\n      mstore\n        /* \"#utility.yul\":2759:2761   */\n      0x20\n        /* \"#utility.yul\":2744:2762   */\n      add\n        /* \"@openzeppelin/contracts@5.0.0/token/ERC721/ERC721.sol\":1920:2128  function balanceOf(address owner) public view virtual returns (uint256) {... */\n      tag_28\n        /* \"#utility.yul\":2625:2802   */\n      jump\n        /* \"@openzeppelin/contracts@5.0.0/access/Ownable.sol\":2293:2394  function renounceOwnership() public virtual onlyOwner {... */\n    tag_12:\n      tag_40\n      tag_65\n      jump\t// in\n        /* \"@openzeppelin/contracts@5.0.0/access/Ownable.sol\":1638:1723  function owner() public view virtual returns (address) {... */\n    tag_13:\n        /* \"@openzeppelin/contracts@5.0.0/access/Ownable.sol\":1710:1716  _owner */\n      and(sub(shl(0xa0, 0x01), 0x01), sload(0x07))\n        /* \"@openzeppelin/contracts@5.0.0/access/Ownable.sol\":1638:1723  function owner() public view virtual returns (address) {... */\n      jump(tag_34)\n        /* \"@openzeppelin/contracts@5.0.0/token/ERC721/ERC721.sol\":2518:2611  function symbol() public view virtual returns (string memory) {... */\n    tag_14:\n      tag_30\n      tag_70\n      jump\t// in\n        /* \"@openzeppelin/contracts@5.0.0/token/ERC721/ERC721.sol\":3718:3862  function setApprovalForAll(address operator, bool approved) public virtual {... */\n    tag_15:\n      tag_40\n      tag_73\n      calldatasize\n      0x04\n      tag_74\n      jump\t// in\n    tag_73:\n      tag_75\n      jump\t// in\n        /* \"@openzeppelin/contracts@5.0.0/token/ERC721/ERC721.sol\":4985:5193  function safeTransferFrom(address from, address to, uint256 tokenId, bytes memory data) public virtual {... */\n    tag_16:\n      tag_40\n      tag_77\n      calldatasize\n      0x04\n      tag_78\n      jump\t// in\n    tag_77:\n      tag_79\n      jump\t// in\n        /* \"contracts/2weeksNFT.sol\":799:988  function tokenURI(uint256 tokenId)... */\n    tag_17:\n      tag_30\n      tag_81\n      calldatasize\n      0x04\n      tag_36\n      jump\t// in\n    tag_81:\n      tag_82\n      jump\t// in\n        /* \"contracts/2weeksNFT.sol\":547:725  function safeMint(address to, uint256 tokenId, string memory uri)... */\n    tag_18:\n      tag_40\n      tag_85\n      calldatasize\n      0x04\n      tag_86\n      jump\t// in\n    tag_85:\n      tag_87\n      jump\t// in\n        /* \"@openzeppelin/contracts@5.0.0/token/ERC721/ERC721.sol\":3928:4081  function isApprovedForAll(address owner, address operator) public view virtual returns (bool) {... */\n    tag_19:\n      tag_24\n      tag_89\n      calldatasize\n      0x04\n      tag_90\n      jump\t// in\n    tag_89:\n      tag_91\n      jump\t// in\n        /* \"@openzeppelin/contracts@5.0.0/access/Ownable.sol\":2543:2758  function transferOwnership(address newOwner) public virtual onlyOwner {... */\n    tag_20:\n      tag_40\n      tag_94\n      calldatasize\n      0x04\n      tag_60\n      jump\t// in\n    tag_94:\n      tag_95\n      jump\t// in\n        /* \"contracts/2weeksNFT.sol\":994:1199  function supportsInterface(bytes4 interfaceId)... */\n    tag_27:\n        /* \"contracts/2weeksNFT.sol\":1129:1133  bool */\n      0x00\n        /* \"contracts/2weeksNFT.sol\":1156:1192  super.supportsInterface(interfaceId) */\n      tag_97\n        /* \"contracts/2weeksNFT.sol\":1180:1191  interfaceId */\n      dup3\n        /* \"contracts/2weeksNFT.sol\":1156:1179  super.supportsInterface */\n      tag_98\n        /* \"contracts/2weeksNFT.sol\":1156:1192  super.supportsInterface(interfaceId) */\n      jump\t// in\n    tag_97:\n        /* \"contracts/2weeksNFT.sol\":1149:1192  return super.supportsInterface(interfaceId) */\n      swap3\n        /* \"contracts/2weeksNFT.sol\":994:1199  function supportsInterface(bytes4 interfaceId)... */\n      swap2\n      pop\n      pop\n      jump\t// out\n        /* \"@openzeppelin/contracts@5.0.0/token/ERC721/ERC721.sol\":2365:2454  function name() public view virtual returns (string memory) {... */\n    tag_31:\n        /* \"@openzeppelin/contracts@5.0.0/token/ERC721/ERC721.sol\":2410:2423  string memory */\n      0x60\n        /* \"@openzeppelin/contracts@5.0.0/token/ERC721/ERC721.sol\":2442:2447  _name */\n      0x00\n        /* \"@openzeppelin/contracts@5.0.0/token/ERC721/ERC721.sol\":2435:2447  return _name */\n      dup1\n      sload\n      tag_100\n      swap1\n      tag_101\n      jump\t// in\n    tag_100:\n      dup1\n      0x1f\n      add\n      0x20\n      dup1\n      swap2\n      div\n      mul\n      0x20\n      add\n      mload(0x40)\n      swap1\n      dup2\n      add\n      0x40\n      mstore\n      dup1\n      swap3\n      swap2\n      swap1\n      dup2\n      dup2\n      mstore\n      0x20\n      add\n      dup3\n      dup1\n      sload\n      tag_102\n      swap1\n      tag_101\n      jump\t// in\n    tag_102:\n      dup1\n      iszero\n      tag_103\n      jumpi\n      dup1\n      0x1f\n      lt\n      tag_104\n      jumpi\n      0x0100\n      dup1\n      dup4\n      sload\n      div\n      mul\n      dup4\n      mstore\n      swap2\n      0x20\n      add\n      swap2\n      jump(tag_103)\n    tag_104:\n      dup3\n      add\n      swap2\n      swap1\n      0x00\n      mstore\n      keccak256(0x00, 0x20)\n      swap1\n    tag_105:\n      dup2\n      sload\n      dup2\n      mstore\n      swap1\n      0x01\n      add\n      swap1\n      0x20\n      add\n      dup1\n      dup4\n      gt\n      tag_105\n      jumpi\n      dup3\n      swap1\n      sub\n      0x1f\n      and\n      dup3\n      add\n      swap2\n    tag_103:\n      pop\n      pop\n      pop\n      pop\n      pop\n      swap1\n      pop\n        /* \"@openzeppelin/contracts@5.0.0/token/ERC721/ERC721.sol\":2365:2454  function name() public view virtual returns (string memory) {... */\n      swap1\n      jump\t// out\n        /* \"@openzeppelin/contracts@5.0.0/token/ERC721/ERC721.sol\":3497:3651  function getApproved(uint256 tokenId) public view virtual returns (address) {... */\n    tag_37:\n        /* \"@openzeppelin/contracts@5.0.0/token/ERC721/ERC721.sol\":3564:3571  address */\n      0x00\n        /* \"@openzeppelin/contracts@5.0.0/token/ERC721/ERC721.sol\":3583:3605  _requireOwned(tokenId) */\n      tag_107\n        /* \"@openzeppelin/contracts@5.0.0/token/ERC721/ERC721.sol\":3597:3604  tokenId */\n      dup3\n        /* \"@openzeppelin/contracts@5.0.0/token/ERC721/ERC721.sol\":3583:3596  _requireOwned */\n      tag_108\n        /* \"@openzeppelin/contracts@5.0.0/token/ERC721/ERC721.sol\":3583:3605  _requireOwned(tokenId) */\n      jump\t// in\n    tag_107:\n      pop\n        /* \"@openzeppelin/contracts@5.0.0/token/ERC721/ERC721.sol\":6008:6015  address */\n      0x00\n        /* \"@openzeppelin/contracts@5.0.0/token/ERC721/ERC721.sol\":6034:6058  _tokenApprovals[tokenId] */\n      dup3\n      dup2\n      mstore\n        /* \"@openzeppelin/contracts@5.0.0/token/ERC721/ERC721.sol\":6034:6049  _tokenApprovals */\n      0x04\n        /* \"@openzeppelin/contracts@5.0.0/token/ERC721/ERC721.sol\":6034:6058  _tokenApprovals[tokenId] */\n      0x20\n      mstore\n      0x40\n      swap1\n      keccak256\n      sload\n      sub(shl(0xa0, 0x01), 0x01)\n      and\n        /* \"@openzeppelin/contracts@5.0.0/token/ERC721/ERC721.sol\":3623:3644  _getApproved(tokenId) */\n      tag_97\n        /* \"@openzeppelin/contracts@5.0.0/token/ERC721/ERC721.sol\":5938:6065  function _getApproved(uint256 tokenId) internal view virtual returns (address) {... */\n      jump\n        /* \"@openzeppelin/contracts@5.0.0/token/ERC721/ERC721.sol\":3323:3436  function approve(address to, uint256 tokenId) public virtual {... */\n    tag_43:\n        /* \"@openzeppelin/contracts@5.0.0/token/ERC721/ERC721.sol\":3394:3429  _approve(to, tokenId, _msgSender()) */\n      tag_112\n        /* \"@openzeppelin/contracts@5.0.0/token/ERC721/ERC721.sol\":3403:3405  to */\n      dup3\n        /* \"@openzeppelin/contracts@5.0.0/token/ERC721/ERC721.sol\":3407:3414  tokenId */\n      dup3\n        /* \"@openzeppelin/contracts@5.0.0/utils/Context.sol\":735:745  msg.sender */\n      caller\n        /* \"@openzeppelin/contracts@5.0.0/token/ERC721/ERC721.sol\":3394:3402  _approve */\n      tag_115\n        /* \"@openzeppelin/contracts@5.0.0/token/ERC721/ERC721.sol\":3394:3429  _approve(to, tokenId, _msgSender()) */\n      jump\t// in\n    tag_112:\n        /* \"@openzeppelin/contracts@5.0.0/token/ERC721/ERC721.sol\":3323:3436  function approve(address to, uint256 tokenId) public virtual {... */\n      pop\n      pop\n      jump\t// out\n        /* \"@openzeppelin/contracts@5.0.0/token/ERC721/ERC721.sol\":4143:4721  function transferFrom(address from, address to, uint256 tokenId) public virtual {... */\n    tag_47:\n      sub(shl(0xa0, 0x01), 0x01)\n        /* \"@openzeppelin/contracts@5.0.0/token/ERC721/ERC721.sol\":4237:4253  to == address(0) */\n      dup3\n      and\n        /* \"@openzeppelin/contracts@5.0.0/token/ERC721/ERC721.sol\":4233:4320  if (to == address(0)) {... */\n      tag_117\n      jumpi\n        /* \"@openzeppelin/contracts@5.0.0/token/ERC721/ERC721.sol\":4276:4309  ERC721InvalidReceiver(address(0)) */\n      mload(0x40)\n      shl(0xe1, 0x32505749)\n      dup2\n      mstore\n        /* \"@openzeppelin/contracts@5.0.0/token/ERC721/ERC721.sol\":4306:4307  0 */\n      0x00\n        /* \"@openzeppelin/contracts@5.0.0/token/ERC721/ERC721.sol\":4276:4309  ERC721InvalidReceiver(address(0)) */\n      0x04\n      dup3\n      add\n        /* \"#utility.yul\":1510:1561   */\n      mstore\n        /* \"#utility.yul\":1483:1501   */\n      0x24\n      add\n        /* \"@openzeppelin/contracts@5.0.0/token/ERC721/ERC721.sol\":4276:4309  ERC721InvalidReceiver(address(0)) */\n    tag_118:\n      mload(0x40)\n      dup1\n      swap2\n      sub\n      swap1\n      revert\n        /* \"@openzeppelin/contracts@5.0.0/token/ERC721/ERC721.sol\":4233:4320  if (to == address(0)) {... */\n    tag_117:\n        /* \"@openzeppelin/contracts@5.0.0/token/ERC721/ERC721.sol\":4538:4559  address previousOwner */\n      0x00\n        /* \"@openzeppelin/contracts@5.0.0/token/ERC721/ERC721.sol\":4562:4596  _update(to, tokenId, _msgSender()) */\n      tag_119\n        /* \"@openzeppelin/contracts@5.0.0/token/ERC721/ERC721.sol\":4570:4572  to */\n      dup4\n        /* \"@openzeppelin/contracts@5.0.0/token/ERC721/ERC721.sol\":4574:4581  tokenId */\n      dup4\n        /* \"@openzeppelin/contracts@5.0.0/utils/Context.sol\":735:745  msg.sender */\n      caller\n        /* \"@openzeppelin/contracts@5.0.0/token/ERC721/ERC721.sol\":4562:4569  _update */\n      tag_121\n        /* \"@openzeppelin/contracts@5.0.0/token/ERC721/ERC721.sol\":4562:4596  _update(to, tokenId, _msgSender()) */\n      jump\t// in\n    tag_119:\n        /* \"@openzeppelin/contracts@5.0.0/token/ERC721/ERC721.sol\":4538:4596  address previousOwner = _update(to, tokenId, _msgSender()) */\n      swap1\n      pop\n        /* \"@openzeppelin/contracts@5.0.0/token/ERC721/ERC721.sol\":4627:4631  from */\n      dup4\n      sub(shl(0xa0, 0x01), 0x01)\n        /* \"@openzeppelin/contracts@5.0.0/token/ERC721/ERC721.sol\":4610:4631  previousOwner != from */\n      and\n        /* \"@openzeppelin/contracts@5.0.0/token/ERC721/ERC721.sol\":4610:4623  previousOwner */\n      dup2\n      sub(shl(0xa0, 0x01), 0x01)\n        /* \"@openzeppelin/contracts@5.0.0/token/ERC721/ERC721.sol\":4610:4631  previousOwner != from */\n      and\n      eq\n        /* \"@openzeppelin/contracts@5.0.0/token/ERC721/ERC721.sol\":4606:4715  if (previousOwner != from) {... */\n      tag_122\n      jumpi\n        /* \"@openzeppelin/contracts@5.0.0/token/ERC721/ERC721.sol\":4654:4704  ERC721IncorrectOwner(from, tokenId, previousOwner) */\n      mload(0x40)\n      shl(0xe0, 0x64283d7b)\n      dup2\n      mstore\n      sub(shl(0xa0, 0x01), 0x01)\n        /* \"#utility.yul\":6241:6273   */\n      dup1\n      dup7\n      and\n        /* \"@openzeppelin/contracts@5.0.0/token/ERC721/ERC721.sol\":4654:4704  ERC721IncorrectOwner(from, tokenId, previousOwner) */\n      0x04\n      dup4\n      add\n        /* \"#utility.yul\":6223:6274   */\n      mstore\n        /* \"#utility.yul\":6290:6308   */\n      0x24\n      dup3\n      add\n        /* \"#utility.yul\":6283:6317   */\n      dup5\n      swap1\n      mstore\n        /* \"#utility.yul\":6353:6385   */\n      dup3\n      and\n        /* \"#utility.yul\":6333:6351   */\n      0x44\n      dup3\n      add\n        /* \"#utility.yul\":6326:6386   */\n      mstore\n        /* \"#utility.yul\":6196:6214   */\n      0x64\n      add\n        /* \"@openzeppelin/contracts@5.0.0/token/ERC721/ERC721.sol\":4654:4704  ERC721IncorrectOwner(from, tokenId, previousOwner) */\n      tag_118\n        /* \"#utility.yul\":6021:6392   */\n      jump\n        /* \"@openzeppelin/contracts@5.0.0/token/ERC721/ERC721.sol\":4606:4715  if (previousOwner != from) {... */\n    tag_122:\n        /* \"@openzeppelin/contracts@5.0.0/token/ERC721/ERC721.sol\":4223:4721  {... */\n      pop\n        /* \"@openzeppelin/contracts@5.0.0/token/ERC721/ERC721.sol\":4143:4721  function transferFrom(address from, address to, uint256 tokenId) public virtual {... */\n      pop\n      pop\n      pop\n      jump\t// out\n        /* \"@openzeppelin/contracts@5.0.0/token/ERC721/ERC721.sol\":4787:4919  function safeTransferFrom(address from, address to, uint256 tokenId) public {... */\n    tag_50:\n        /* \"@openzeppelin/contracts@5.0.0/token/ERC721/ERC721.sol\":4873:4912  safeTransferFrom(from, to, tokenId, \"\") */\n      tag_126\n        /* \"@openzeppelin/contracts@5.0.0/token/ERC721/ERC721.sol\":4890:4894  from */\n      dup4\n        /* \"@openzeppelin/contracts@5.0.0/token/ERC721/ERC721.sol\":4896:4898  to */\n      dup4\n        /* \"@openzeppelin/contracts@5.0.0/token/ERC721/ERC721.sol\":4900:4907  tokenId */\n      dup4\n        /* \"@openzeppelin/contracts@5.0.0/token/ERC721/ERC721.sol\":4873:4912  safeTransferFrom(from, to, tokenId, \"\") */\n      mload(0x40)\n      dup1\n      0x20\n      add\n      0x40\n      mstore\n      dup1\n      0x00\n      dup2\n      mstore\n      pop\n        /* \"@openzeppelin/contracts@5.0.0/token/ERC721/ERC721.sol\":4873:4889  safeTransferFrom */\n      tag_79\n        /* \"@openzeppelin/contracts@5.0.0/token/ERC721/ERC721.sol\":4873:4912  safeTransferFrom(from, to, tokenId, \"\") */\n      jump\t// in\n    tag_126:\n        /* \"@openzeppelin/contracts@5.0.0/token/ERC721/ERC721.sol\":4787:4919  function safeTransferFrom(address from, address to, uint256 tokenId) public {... */\n      pop\n      pop\n      pop\n      jump\t// out\n        /* \"@openzeppelin/contracts@5.0.0/token/ERC721/extensions/ERC721Burnable.sol\":561:875  function burn(uint256 tokenId) public virtual {... */\n    tag_53:\n        /* \"@openzeppelin/contracts@5.0.0/token/ERC721/extensions/ERC721Burnable.sol\":826:868  _update(address(0), tokenId, _msgSender()) */\n      tag_112\n        /* \"@openzeppelin/contracts@5.0.0/token/ERC721/extensions/ERC721Burnable.sol\":842:843  0 */\n      0x00\n        /* \"@openzeppelin/contracts@5.0.0/token/ERC721/extensions/ERC721Burnable.sol\":846:853  tokenId */\n      dup3\n        /* \"@openzeppelin/contracts@5.0.0/utils/Context.sol\":735:745  msg.sender */\n      caller\n        /* \"@openzeppelin/contracts@5.0.0/token/ERC721/ERC721.sol\":4562:4569  _update */\n      tag_121\n        /* \"@openzeppelin/contracts@5.0.0/token/ERC721/ERC721.sol\":4562:4596  _update(to, tokenId, _msgSender()) */\n      jump\t// in\n        /* \"@openzeppelin/contracts@5.0.0/token/ERC721/ERC721.sol\":2185:2303  function ownerOf(uint256 tokenId) public view virtual returns (address) {... */\n    tag_56:\n        /* \"@openzeppelin/contracts@5.0.0/token/ERC721/ERC721.sol\":2248:2255  address */\n      0x00\n        /* \"@openzeppelin/contracts@5.0.0/token/ERC721/ERC721.sol\":2274:2296  _requireOwned(tokenId) */\n      tag_97\n        /* \"@openzeppelin/contracts@5.0.0/token/ERC721/ERC721.sol\":2288:2295  tokenId */\n      dup3\n        /* \"@openzeppelin/contracts@5.0.0/token/ERC721/ERC721.sol\":2274:2287  _requireOwned */\n      tag_108\n        /* \"@openzeppelin/contracts@5.0.0/token/ERC721/ERC721.sol\":2274:2296  _requireOwned(tokenId) */\n      jump\t// in\n        /* \"@openzeppelin/contracts@5.0.0/token/ERC721/ERC721.sol\":1920:2128  function balanceOf(address owner) public view virtual returns (uint256) {... */\n    tag_61:\n        /* \"@openzeppelin/contracts@5.0.0/token/ERC721/ERC721.sol\":1983:1990  uint256 */\n      0x00\n      sub(shl(0xa0, 0x01), 0x01)\n        /* \"@openzeppelin/contracts@5.0.0/token/ERC721/ERC721.sol\":2006:2025  owner == address(0) */\n      dup3\n      and\n        /* \"@openzeppelin/contracts@5.0.0/token/ERC721/ERC721.sol\":2002:2089  if (owner == address(0)) {... */\n      tag_133\n      jumpi\n        /* \"@openzeppelin/contracts@5.0.0/token/ERC721/ERC721.sol\":2048:2078  ERC721InvalidOwner(address(0)) */\n      mload(0x40)\n      shl(0xe2, 0x22718ad9)\n      dup2\n      mstore\n        /* \"@openzeppelin/contracts@5.0.0/token/ERC721/ERC721.sol\":2075:2076  0 */\n      0x00\n        /* \"@openzeppelin/contracts@5.0.0/token/ERC721/ERC721.sol\":2048:2078  ERC721InvalidOwner(address(0)) */\n      0x04\n      dup3\n      add\n        /* \"#utility.yul\":1510:1561   */\n      mstore\n        /* \"#utility.yul\":1483:1501   */\n      0x24\n      add\n        /* \"@openzeppelin/contracts@5.0.0/token/ERC721/ERC721.sol\":2048:2078  ERC721InvalidOwner(address(0)) */\n      tag_118\n        /* \"#utility.yul\":1364:1567   */\n      jump\n        /* \"@openzeppelin/contracts@5.0.0/token/ERC721/ERC721.sol\":2002:2089  if (owner == address(0)) {... */\n    tag_133:\n      pop\n      sub(shl(0xa0, 0x01), 0x01)\n        /* \"@openzeppelin/contracts@5.0.0/token/ERC721/ERC721.sol\":2105:2121  _balances[owner] */\n      and\n      0x00\n      swap1\n      dup2\n      mstore\n        /* \"@openzeppelin/contracts@5.0.0/token/ERC721/ERC721.sol\":2105:2114  _balances */\n      0x03\n        /* \"@openzeppelin/contracts@5.0.0/token/ERC721/ERC721.sol\":2105:2121  _balances[owner] */\n      0x20\n      mstore\n      0x40\n      swap1\n      keccak256\n      sload\n      swap1\n        /* \"@openzeppelin/contracts@5.0.0/token/ERC721/ERC721.sol\":1920:2128  function balanceOf(address owner) public view virtual returns (uint256) {... */\n      jump\t// out\n        /* \"@openzeppelin/contracts@5.0.0/access/Ownable.sol\":2293:2394  function renounceOwnership() public virtual onlyOwner {... */\n    tag_65:\n        /* \"@openzeppelin/contracts@5.0.0/access/Ownable.sol\":1531:1544  _checkOwner() */\n      tag_136\n        /* \"@openzeppelin/contracts@5.0.0/access/Ownable.sol\":1531:1542  _checkOwner */\n      tag_137\n        /* \"@openzeppelin/contracts@5.0.0/access/Ownable.sol\":1531:1544  _checkOwner() */\n      jump\t// in\n    tag_136:\n        /* \"@openzeppelin/contracts@5.0.0/access/Ownable.sol\":2357:2387  _transferOwnership(address(0)) */\n      tag_139\n        /* \"@openzeppelin/contracts@5.0.0/access/Ownable.sol\":2384:2385  0 */\n      0x00\n        /* \"@openzeppelin/contracts@5.0.0/access/Ownable.sol\":2357:2375  _transferOwnership */\n      tag_140\n        /* \"@openzeppelin/contracts@5.0.0/access/Ownable.sol\":2357:2387  _transferOwnership(address(0)) */\n      jump\t// in\n    tag_139:\n        /* \"@openzeppelin/contracts@5.0.0/access/Ownable.sol\":2293:2394  function renounceOwnership() public virtual onlyOwner {... */\n      jump\t// out\n        /* \"@openzeppelin/contracts@5.0.0/token/ERC721/ERC721.sol\":2518:2611  function symbol() public view virtual returns (string memory) {... */\n    tag_70:\n        /* \"@openzeppelin/contracts@5.0.0/token/ERC721/ERC721.sol\":2565:2578  string memory */\n      0x60\n        /* \"@openzeppelin/contracts@5.0.0/token/ERC721/ERC721.sol\":2597:2604  _symbol */\n      0x01\n        /* \"@openzeppelin/contracts@5.0.0/token/ERC721/ERC721.sol\":2590:2604  return _symbol */\n      dup1\n      sload\n      tag_100\n      swap1\n      tag_101\n      jump\t// in\n        /* \"@openzeppelin/contracts@5.0.0/token/ERC721/ERC721.sol\":3718:3862  function setApprovalForAll(address operator, bool approved) public virtual {... */\n    tag_75:\n        /* \"@openzeppelin/contracts@5.0.0/token/ERC721/ERC721.sol\":3803:3855  _setApprovalForAll(_msgSender(), operator, approved) */\n      tag_112\n        /* \"@openzeppelin/contracts@5.0.0/utils/Context.sol\":735:745  msg.sender */\n      caller\n        /* \"@openzeppelin/contracts@5.0.0/token/ERC721/ERC721.sol\":3836:3844  operator */\n      dup4\n        /* \"@openzeppelin/contracts@5.0.0/token/ERC721/ERC721.sol\":3846:3854  approved */\n      dup4\n        /* \"@openzeppelin/contracts@5.0.0/token/ERC721/ERC721.sol\":3803:3821  _setApprovalForAll */\n      tag_151\n        /* \"@openzeppelin/contracts@5.0.0/token/ERC721/ERC721.sol\":3803:3855  _setApprovalForAll(_msgSender(), operator, approved) */\n      jump\t// in\n        /* \"@openzeppelin/contracts@5.0.0/token/ERC721/ERC721.sol\":4985:5193  function safeTransferFrom(address from, address to, uint256 tokenId, bytes memory data) public virtual {... */\n    tag_79:\n        /* \"@openzeppelin/contracts@5.0.0/token/ERC721/ERC721.sol\":5098:5129  transferFrom(from, to, tokenId) */\n      tag_153\n        /* \"@openzeppelin/contracts@5.0.0/token/ERC721/ERC721.sol\":5111:5115  from */\n      dup5\n        /* \"@openzeppelin/contracts@5.0.0/token/ERC721/ERC721.sol\":5117:5119  to */\n      dup5\n        /* \"@openzeppelin/contracts@5.0.0/token/ERC721/ERC721.sol\":5121:5128  tokenId */\n      dup5\n        /* \"@openzeppelin/contracts@5.0.0/token/ERC721/ERC721.sol\":5098:5110  transferFrom */\n      tag_47\n        /* \"@openzeppelin/contracts@5.0.0/token/ERC721/ERC721.sol\":5098:5129  transferFrom(from, to, tokenId) */\n      jump\t// in\n    tag_153:\n        /* \"@openzeppelin/contracts@5.0.0/token/ERC721/ERC721.sol\":5139:5186  _checkOnERC721Received(from, to, tokenId, data) */\n      tag_122\n        /* \"@openzeppelin/contracts@5.0.0/token/ERC721/ERC721.sol\":5162:5166  from */\n      dup5\n        /* \"@openzeppelin/contracts@5.0.0/token/ERC721/ERC721.sol\":5168:5170  to */\n      dup5\n        /* \"@openzeppelin/contracts@5.0.0/token/ERC721/ERC721.sol\":5172:5179  tokenId */\n      dup5\n        /* \"@openzeppelin/contracts@5.0.0/token/ERC721/ERC721.sol\":5181:5185  data */\n      dup5\n        /* \"@openzeppelin/contracts@5.0.0/token/ERC721/ERC721.sol\":5139:5161  _checkOnERC721Received */\n      tag_155\n        /* \"@openzeppelin/contracts@5.0.0/token/ERC721/ERC721.sol\":5139:5186  _checkOnERC721Received(from, to, tokenId, data) */\n      jump\t// in\n        /* \"contracts/2weeksNFT.sol\":799:988  function tokenURI(uint256 tokenId)... */\n    tag_82:\n        /* \"contracts/2weeksNFT.sol\":922:935  string memory */\n      0x60\n        /* \"contracts/2weeksNFT.sol\":958:981  super.tokenURI(tokenId) */\n      tag_97\n        /* \"contracts/2weeksNFT.sol\":973:980  tokenId */\n      dup3\n        /* \"contracts/2weeksNFT.sol\":958:972  super.tokenURI */\n      tag_158\n        /* \"contracts/2weeksNFT.sol\":958:981  super.tokenURI(tokenId) */\n      jump\t// in\n        /* \"contracts/2weeksNFT.sol\":547:725  function safeMint(address to, uint256 tokenId, string memory uri)... */\n    tag_87:\n        /* \"@openzeppelin/contracts@5.0.0/access/Ownable.sol\":1531:1544  _checkOwner() */\n      tag_160\n        /* \"@openzeppelin/contracts@5.0.0/access/Ownable.sol\":1531:1542  _checkOwner */\n      tag_137\n        /* \"@openzeppelin/contracts@5.0.0/access/Ownable.sol\":1531:1544  _checkOwner() */\n      jump\t// in\n    tag_160:\n        /* \"contracts/2weeksNFT.sol\":660:682  _safeMint(to, tokenId) */\n      tag_162\n        /* \"contracts/2weeksNFT.sol\":670:672  to */\n      dup4\n        /* \"contracts/2weeksNFT.sol\":674:681  tokenId */\n      dup4\n        /* \"contracts/2weeksNFT.sol\":660:669  _safeMint */\n      tag_163\n        /* \"contracts/2weeksNFT.sol\":660:682  _safeMint(to, tokenId) */\n      jump\t// in\n    tag_162:\n        /* \"contracts/2weeksNFT.sol\":692:718  _setTokenURI(tokenId, uri) */\n      tag_126\n        /* \"contracts/2weeksNFT.sol\":705:712  tokenId */\n      dup3\n        /* \"contracts/2weeksNFT.sol\":714:717  uri */\n      dup3\n        /* \"contracts/2weeksNFT.sol\":692:704  _setTokenURI */\n      tag_165\n        /* \"contracts/2weeksNFT.sol\":692:718  _setTokenURI(tokenId, uri) */\n      jump\t// in\n        /* \"@openzeppelin/contracts@5.0.0/token/ERC721/ERC721.sol\":3928:4081  function isApprovedForAll(address owner, address operator) public view virtual returns (bool) {... */\n    tag_91:\n      sub(shl(0xa0, 0x01), 0x01)\n        /* \"@openzeppelin/contracts@5.0.0/token/ERC721/ERC721.sol\":4039:4064  _operatorApprovals[owner] */\n      swap2\n      dup3\n      and\n        /* \"@openzeppelin/contracts@5.0.0/token/ERC721/ERC721.sol\":4016:4020  bool */\n      0x00\n        /* \"@openzeppelin/contracts@5.0.0/token/ERC721/ERC721.sol\":4039:4064  _operatorApprovals[owner] */\n      swap1\n      dup2\n      mstore\n        /* \"@openzeppelin/contracts@5.0.0/token/ERC721/ERC721.sol\":4039:4057  _operatorApprovals */\n      0x05\n        /* \"@openzeppelin/contracts@5.0.0/token/ERC721/ERC721.sol\":4039:4064  _operatorApprovals[owner] */\n      0x20\n      swap1\n      dup2\n      mstore\n      0x40\n      dup1\n      dup4\n      keccak256\n        /* \"@openzeppelin/contracts@5.0.0/token/ERC721/ERC721.sol\":4039:4074  _operatorApprovals[owner][operator] */\n      swap4\n      swap1\n      swap5\n      and\n      dup3\n      mstore\n      swap2\n      swap1\n      swap2\n      mstore\n      keccak256\n      sload\n      0xff\n      and\n      swap1\n        /* \"@openzeppelin/contracts@5.0.0/token/ERC721/ERC721.sol\":3928:4081  function isApprovedForAll(address owner, address operator) public view virtual returns (bool) {... */\n      jump\t// out\n        /* \"@openzeppelin/contracts@5.0.0/access/Ownable.sol\":2543:2758  function transferOwnership(address newOwner) public virtual onlyOwner {... */\n    tag_95:\n        /* \"@openzeppelin/contracts@5.0.0/access/Ownable.sol\":1531:1544  _checkOwner() */\n      tag_168\n        /* \"@openzeppelin/contracts@5.0.0/access/Ownable.sol\":1531:1542  _checkOwner */\n      tag_137\n        /* \"@openzeppelin/contracts@5.0.0/access/Ownable.sol\":1531:1544  _checkOwner() */\n      jump\t// in\n    tag_168:\n      sub(shl(0xa0, 0x01), 0x01)\n        /* \"@openzeppelin/contracts@5.0.0/access/Ownable.sol\":2627:2649  newOwner == address(0) */\n      dup2\n      and\n        /* \"@openzeppelin/contracts@5.0.0/access/Ownable.sol\":2623:2714  if (newOwner == address(0)) {... */\n      tag_170\n      jumpi\n        /* \"@openzeppelin/contracts@5.0.0/access/Ownable.sol\":2672:2703  OwnableInvalidOwner(address(0)) */\n      mload(0x40)\n      shl(0xe0, 0x1e4fbdf7)\n      dup2\n      mstore\n        /* \"@openzeppelin/contracts@5.0.0/access/Ownable.sol\":2700:2701  0 */\n      0x00\n        /* \"@openzeppelin/contracts@5.0.0/access/Ownable.sol\":2672:2703  OwnableInvalidOwner(address(0)) */\n      0x04\n      dup3\n      add\n        /* \"#utility.yul\":1510:1561   */\n      mstore\n        /* \"#utility.yul\":1483:1501   */\n      0x24\n      add\n        /* \"@openzeppelin/contracts@5.0.0/access/Ownable.sol\":2672:2703  OwnableInvalidOwner(address(0)) */\n      tag_118\n        /* \"#utility.yul\":1364:1567   */\n      jump\n        /* \"@openzeppelin/contracts@5.0.0/access/Ownable.sol\":2623:2714  if (newOwner == address(0)) {... */\n    tag_170:\n        /* \"@openzeppelin/contracts@5.0.0/access/Ownable.sol\":2723:2751  _transferOwnership(newOwner) */\n      tag_172\n        /* \"@openzeppelin/contracts@5.0.0/access/Ownable.sol\":2742:2750  newOwner */\n      dup2\n        /* \"@openzeppelin/contracts@5.0.0/access/Ownable.sol\":2723:2741  _transferOwnership */\n      tag_140\n        /* \"@openzeppelin/contracts@5.0.0/access/Ownable.sol\":2723:2751  _transferOwnership(newOwner) */\n      jump\t// in\n    tag_172:\n        /* \"@openzeppelin/contracts@5.0.0/access/Ownable.sol\":2543:2758  function transferOwnership(address newOwner) public virtual onlyOwner {... */\n      pop\n      jump\t// out\n        /* \"@openzeppelin/contracts@5.0.0/token/ERC721/extensions/ERC721URIStorage.sol\":937:1144  function supportsInterface(bytes4 interfaceId) public view virtual override(ERC721, IERC165) returns (bool) {... */\n    tag_98:\n        /* \"@openzeppelin/contracts@5.0.0/token/ERC721/extensions/ERC721URIStorage.sol\":1039:1043  bool */\n      0x00\n      not(sub(shl(0xe0, 0x01), 0x01))\n        /* \"@openzeppelin/contracts@5.0.0/token/ERC721/extensions/ERC721URIStorage.sol\":1062:1097  interfaceId == ERC4906_INTERFACE_ID */\n      dup3\n      and\n      shl(0xe1, 0x24832483)\n      eq\n      dup1\n        /* \"@openzeppelin/contracts@5.0.0/token/ERC721/extensions/ERC721URIStorage.sol\":1062:1137  interfaceId == ERC4906_INTERFACE_ID || super.supportsInterface(interfaceId) */\n      tag_97\n      jumpi\n      pop\n        /* \"@openzeppelin/contracts@5.0.0/token/ERC721/extensions/ERC721URIStorage.sol\":1101:1137  super.supportsInterface(interfaceId) */\n      tag_97\n        /* \"@openzeppelin/contracts@5.0.0/token/ERC721/extensions/ERC721URIStorage.sol\":1125:1136  interfaceId */\n      dup3\n        /* \"@openzeppelin/contracts@5.0.0/token/ERC721/extensions/ERC721URIStorage.sol\":1101:1124  super.supportsInterface */\n      tag_176\n        /* \"@openzeppelin/contracts@5.0.0/token/ERC721/extensions/ERC721URIStorage.sol\":1101:1137  super.supportsInterface(interfaceId) */\n      jump\t// in\n        /* \"@openzeppelin/contracts@5.0.0/token/ERC721/ERC721.sol\":16138:16379  function _requireOwned(uint256 tokenId) internal view returns (address) {... */\n    tag_108:\n        /* \"@openzeppelin/contracts@5.0.0/token/ERC721/ERC721.sol\":16201:16208  address */\n      0x00\n        /* \"@openzeppelin/contracts@5.0.0/token/ERC721/ERC721.sol\":5799:5815  _owners[tokenId] */\n      dup2\n      dup2\n      mstore\n        /* \"@openzeppelin/contracts@5.0.0/token/ERC721/ERC721.sol\":5799:5806  _owners */\n      0x02\n        /* \"@openzeppelin/contracts@5.0.0/token/ERC721/ERC721.sol\":5799:5815  _owners[tokenId] */\n      0x20\n      mstore\n      0x40\n      dup2\n      keccak256\n      sload\n      sub(shl(0xa0, 0x01), 0x01)\n      and\n      dup1\n        /* \"@openzeppelin/contracts@5.0.0/token/ERC721/ERC721.sol\":16263:16351  if (owner == address(0)) {... */\n      tag_97\n      jumpi\n        /* \"@openzeppelin/contracts@5.0.0/token/ERC721/ERC721.sol\":16309:16340  ERC721NonexistentToken(tokenId) */\n      mload(0x40)\n      shl(0xe0, 0x7e273289)\n      dup2\n      mstore\n      0x04\n      dup2\n      add\n        /* \"#utility.yul\":2771:2796   */\n      dup5\n      swap1\n      mstore\n        /* \"#utility.yul\":2744:2762   */\n      0x24\n      add\n        /* \"@openzeppelin/contracts@5.0.0/token/ERC721/ERC721.sol\":16309:16340  ERC721NonexistentToken(tokenId) */\n      tag_118\n        /* \"#utility.yul\":2625:2802   */\n      jump\n        /* \"@openzeppelin/contracts@5.0.0/token/ERC721/ERC721.sol\":14418:14538  function _approve(address to, uint256 tokenId, address auth) internal {... */\n    tag_115:\n        /* \"@openzeppelin/contracts@5.0.0/token/ERC721/ERC721.sol\":14498:14531  _approve(to, tokenId, auth, true) */\n      tag_126\n        /* \"@openzeppelin/contracts@5.0.0/token/ERC721/ERC721.sol\":14507:14509  to */\n      dup4\n        /* \"@openzeppelin/contracts@5.0.0/token/ERC721/ERC721.sol\":14511:14518  tokenId */\n      dup4\n        /* \"@openzeppelin/contracts@5.0.0/token/ERC721/ERC721.sol\":14520:14524  auth */\n      dup4\n        /* \"@openzeppelin/contracts@5.0.0/token/ERC721/ERC721.sol\":14526:14530  true */\n      0x01\n        /* \"@openzeppelin/contracts@5.0.0/token/ERC721/ERC721.sol\":14498:14506  _approve */\n      tag_186\n        /* \"@openzeppelin/contracts@5.0.0/token/ERC721/ERC721.sol\":14498:14531  _approve(to, tokenId, auth, true) */\n      jump\t// in\n        /* \"@openzeppelin/contracts@5.0.0/token/ERC721/ERC721.sol\":8838:9633  function _update(address to, uint256 tokenId, address auth) internal virtual returns (address) {... */\n    tag_121:\n        /* \"@openzeppelin/contracts@5.0.0/token/ERC721/ERC721.sol\":8924:8931  address */\n      0x00\n        /* \"@openzeppelin/contracts@5.0.0/token/ERC721/ERC721.sol\":5799:5815  _owners[tokenId] */\n      dup3\n      dup2\n      mstore\n        /* \"@openzeppelin/contracts@5.0.0/token/ERC721/ERC721.sol\":5799:5806  _owners */\n      0x02\n        /* \"@openzeppelin/contracts@5.0.0/token/ERC721/ERC721.sol\":5799:5815  _owners[tokenId] */\n      0x20\n      mstore\n      0x40\n      dup2\n      keccak256\n      sload\n      sub(shl(0xa0, 0x01), 0x01)\n      swap1\n      dup2\n      and\n      swap1\n        /* \"@openzeppelin/contracts@5.0.0/token/ERC721/ERC721.sol\":9035:9053  auth != address(0) */\n      dup4\n      and\n      iszero\n        /* \"@openzeppelin/contracts@5.0.0/token/ERC721/ERC721.sol\":9031:9117  if (auth != address(0)) {... */\n      tag_190\n      jumpi\n        /* \"@openzeppelin/contracts@5.0.0/token/ERC721/ERC721.sol\":9069:9106  _checkAuthorized(from, auth, tokenId) */\n      tag_190\n        /* \"@openzeppelin/contracts@5.0.0/token/ERC721/ERC721.sol\":9086:9090  from */\n      dup2\n        /* \"@openzeppelin/contracts@5.0.0/token/ERC721/ERC721.sol\":9092:9096  auth */\n      dup5\n        /* \"@openzeppelin/contracts@5.0.0/token/ERC721/ERC721.sol\":9098:9105  tokenId */\n      dup7\n        /* \"@openzeppelin/contracts@5.0.0/token/ERC721/ERC721.sol\":9069:9085  _checkAuthorized */\n      tag_191\n        /* \"@openzeppelin/contracts@5.0.0/token/ERC721/ERC721.sol\":9069:9106  _checkAuthorized(from, auth, tokenId) */\n      jump\t// in\n    tag_190:\n      sub(shl(0xa0, 0x01), 0x01)\n        /* \"@openzeppelin/contracts@5.0.0/token/ERC721/ERC721.sol\":9161:9179  from != address(0) */\n      dup2\n      and\n      iszero\n        /* \"@openzeppelin/contracts@5.0.0/token/ERC721/ERC721.sol\":9157:9413  if (from != address(0)) {... */\n      tag_192\n      jumpi\n        /* \"@openzeppelin/contracts@5.0.0/token/ERC721/ERC721.sol\":9277:9325  _approve(address(0), tokenId, address(0), false) */\n      tag_193\n        /* \"@openzeppelin/contracts@5.0.0/token/ERC721/ERC721.sol\":9294:9295  0 */\n      0x00\n        /* \"@openzeppelin/contracts@5.0.0/token/ERC721/ERC721.sol\":9298:9305  tokenId */\n      dup6\n        /* \"@openzeppelin/contracts@5.0.0/token/ERC721/ERC721.sol\":9315:9316  0 */\n      0x00\n        /* \"@openzeppelin/contracts@5.0.0/token/ERC721/ERC721.sol\":9319:9324  false */\n      0x00\n        /* \"@openzeppelin/contracts@5.0.0/token/ERC721/ERC721.sol\":9277:9285  _approve */\n      tag_186\n        /* \"@openzeppelin/contracts@5.0.0/token/ERC721/ERC721.sol\":9277:9325  _approve(address(0), tokenId, address(0), false) */\n      jump\t// in\n    tag_193:\n      sub(shl(0xa0, 0x01), 0x01)\n        /* \"@openzeppelin/contracts@5.0.0/token/ERC721/ERC721.sol\":9368:9383  _balances[from] */\n      dup2\n      and\n      0x00\n      swap1\n      dup2\n      mstore\n        /* \"@openzeppelin/contracts@5.0.0/token/ERC721/ERC721.sol\":9368:9377  _balances */\n      0x03\n        /* \"@openzeppelin/contracts@5.0.0/token/ERC721/ERC721.sol\":9368:9383  _balances[from] */\n      0x20\n      mstore\n      0x40\n      swap1\n      keccak256\n        /* \"@openzeppelin/contracts@5.0.0/token/ERC721/ERC721.sol\":9368:9388  _balances[from] -= 1 */\n      dup1\n      sload\n      not(0x00)\n      add\n      swap1\n      sstore\n        /* \"@openzeppelin/contracts@5.0.0/token/ERC721/ERC721.sol\":9157:9413  if (from != address(0)) {... */\n    tag_192:\n      sub(shl(0xa0, 0x01), 0x01)\n        /* \"@openzeppelin/contracts@5.0.0/token/ERC721/ERC721.sol\":9427:9443  to != address(0) */\n      dup6\n      and\n      iszero\n        /* \"@openzeppelin/contracts@5.0.0/token/ERC721/ERC721.sol\":9423:9530  if (to != address(0)) {... */\n      tag_194\n      jumpi\n      sub(shl(0xa0, 0x01), 0x01)\n        /* \"@openzeppelin/contracts@5.0.0/token/ERC721/ERC721.sol\":9487:9500  _balances[to] */\n      dup6\n      and\n      0x00\n      swap1\n      dup2\n      mstore\n        /* \"@openzeppelin/contracts@5.0.0/token/ERC721/ERC721.sol\":9487:9496  _balances */\n      0x03\n        /* \"@openzeppelin/contracts@5.0.0/token/ERC721/ERC721.sol\":9487:9500  _balances[to] */\n      0x20\n      mstore\n      0x40\n      swap1\n      keccak256\n        /* \"@openzeppelin/contracts@5.0.0/token/ERC721/ERC721.sol\":9487:9505  _balances[to] += 1 */\n      dup1\n      sload\n        /* \"@openzeppelin/contracts@5.0.0/token/ERC721/ERC721.sol\":9504:9505  1 */\n      0x01\n        /* \"@openzeppelin/contracts@5.0.0/token/ERC721/ERC721.sol\":9487:9505  _balances[to] += 1 */\n      add\n      swap1\n      sstore\n        /* \"@openzeppelin/contracts@5.0.0/token/ERC721/ERC721.sol\":9423:9530  if (to != address(0)) {... */\n    tag_194:\n        /* \"@openzeppelin/contracts@5.0.0/token/ERC721/ERC721.sol\":9540:9556  _owners[tokenId] */\n      0x00\n      dup5\n      dup2\n      mstore\n        /* \"@openzeppelin/contracts@5.0.0/token/ERC721/ERC721.sol\":9540:9547  _owners */\n      0x02\n        /* \"@openzeppelin/contracts@5.0.0/token/ERC721/ERC721.sol\":9540:9556  _owners[tokenId] */\n      0x20\n      mstore\n      0x40\n      dup1\n      dup3\n      keccak256\n        /* \"@openzeppelin/contracts@5.0.0/token/ERC721/ERC721.sol\":9540:9561  _owners[tokenId] = to */\n      dup1\n      sload\n      not(sub(shl(0xa0, 0x01), 0x01))\n      and\n      sub(shl(0xa0, 0x01), 0x01)\n      dup10\n      dup2\n      and\n      swap2\n      dup3\n      or\n      swap1\n      swap3\n      sstore\n        /* \"@openzeppelin/contracts@5.0.0/token/ERC721/ERC721.sol\":9577:9604  Transfer(from, to, tokenId) */\n      swap2\n      mload\n        /* \"@openzeppelin/contracts@5.0.0/token/ERC721/ERC721.sol\":9540:9556  _owners[tokenId] */\n      dup8\n      swap4\n        /* \"@openzeppelin/contracts@5.0.0/token/ERC721/ERC721.sol\":9577:9604  Transfer(from, to, tokenId) */\n      swap2\n      dup6\n      and\n      swap2\n      0xddf252ad1be2c89b69c2b068fc378daa952ba7f163c4a11628f55a4df523b3ef\n      swap2\n      log4\n        /* \"@openzeppelin/contracts@5.0.0/token/ERC721/ERC721.sol\":9622:9626  from */\n      swap5\n        /* \"@openzeppelin/contracts@5.0.0/token/ERC721/ERC721.sol\":8838:9633  function _update(address to, uint256 tokenId, address auth) internal virtual returns (address) {... */\n      swap4\n      pop\n      pop\n      pop\n      pop\n      jump\t// out\n        /* \"@openzeppelin/contracts@5.0.0/access/Ownable.sol\":1796:1958  function _checkOwner() internal view virtual {... */\n    tag_137:\n        /* \"@openzeppelin/contracts@5.0.0/access/Ownable.sol\":1710:1716  _owner */\n      and(sub(shl(0xa0, 0x01), 0x01), sload(0x07))\n        /* \"@openzeppelin/contracts@5.0.0/utils/Context.sol\":735:745  msg.sender */\n      caller\n        /* \"@openzeppelin/contracts@5.0.0/access/Ownable.sol\":1855:1878  owner() != _msgSender() */\n      eq\n        /* \"@openzeppelin/contracts@5.0.0/access/Ownable.sol\":1851:1952  if (owner() != _msgSender()) {... */\n      tag_139\n      jumpi\n        /* \"@openzeppelin/contracts@5.0.0/access/Ownable.sol\":1901:1941  OwnableUnauthorizedAccount(_msgSender()) */\n      mload(0x40)\n      shl(0xe0, 0x118cdaa7)\n      dup2\n      mstore\n        /* \"@openzeppelin/contracts@5.0.0/utils/Context.sol\":735:745  msg.sender */\n      caller\n        /* \"@openzeppelin/contracts@5.0.0/access/Ownable.sol\":1901:1941  OwnableUnauthorizedAccount(_msgSender()) */\n      0x04\n      dup3\n      add\n        /* \"#utility.yul\":1510:1561   */\n      mstore\n        /* \"#utility.yul\":1483:1501   */\n      0x24\n      add\n        /* \"@openzeppelin/contracts@5.0.0/access/Ownable.sol\":1901:1941  OwnableUnauthorizedAccount(_msgSender()) */\n      tag_118\n        /* \"#utility.yul\":1364:1567   */\n      jump\n        /* \"@openzeppelin/contracts@5.0.0/access/Ownable.sol\":2912:3099  function _transferOwnership(address newOwner) internal virtual {... */\n    tag_140:\n        /* \"@openzeppelin/contracts@5.0.0/access/Ownable.sol\":3004:3010  _owner */\n      0x07\n      dup1\n      sload\n      sub(shl(0xa0, 0x01), 0x01)\n        /* \"@openzeppelin/contracts@5.0.0/access/Ownable.sol\":3020:3037  _owner = newOwner */\n      dup4\n      dup2\n      and\n      not(sub(shl(0xa0, 0x01), 0x01))\n      dup4\n      and\n      dup2\n      or\n      swap1\n      swap4\n      sstore\n        /* \"@openzeppelin/contracts@5.0.0/access/Ownable.sol\":3052:3092  OwnershipTransferred(oldOwner, newOwner) */\n      mload(0x40)\n        /* \"@openzeppelin/contracts@5.0.0/access/Ownable.sol\":3004:3010  _owner */\n      swap2\n      and\n      swap2\n        /* \"@openzeppelin/contracts@5.0.0/access/Ownable.sol\":3020:3037  _owner = newOwner */\n      swap1\n        /* \"@openzeppelin/contracts@5.0.0/access/Ownable.sol\":3004:3010  _owner */\n      dup3\n      swap1\n        /* \"@openzeppelin/contracts@5.0.0/access/Ownable.sol\":3052:3092  OwnershipTransferred(oldOwner, newOwner) */\n      0x8be0079c531659141344cd1fd0a4f28419497f9722a3daafe3b4186f6b6457e0\n      swap1\n        /* \"@openzeppelin/contracts@5.0.0/access/Ownable.sol\":2985:3001  address oldOwner */\n      0x00\n      swap1\n        /* \"@openzeppelin/contracts@5.0.0/access/Ownable.sol\":3052:3092  OwnershipTransferred(oldOwner, newOwner) */\n      log3\n        /* \"@openzeppelin/contracts@5.0.0/access/Ownable.sol\":2975:3099  {... */\n      pop\n        /* \"@openzeppelin/contracts@5.0.0/access/Ownable.sol\":2912:3099  function _transferOwnership(address newOwner) internal virtual {... */\n      pop\n      jump\t// out\n        /* \"@openzeppelin/contracts@5.0.0/token/ERC721/ERC721.sol\":15591:15903  function _setApprovalForAll(address owner, address operator, bool approved) internal virtual {... */\n    tag_151:\n      sub(shl(0xa0, 0x01), 0x01)\n        /* \"@openzeppelin/contracts@5.0.0/token/ERC721/ERC721.sol\":15698:15720  operator == address(0) */\n      dup3\n      and\n        /* \"@openzeppelin/contracts@5.0.0/token/ERC721/ERC721.sol\":15694:15785  if (operator == address(0)) {... */\n      tag_203\n      jumpi\n        /* \"@openzeppelin/contracts@5.0.0/token/ERC721/ERC721.sol\":15743:15774  ERC721InvalidOperator(operator) */\n      mload(0x40)\n      shl(0xe3, 0x0b611743)\n      dup2\n      mstore\n      sub(shl(0xa0, 0x01), 0x01)\n        /* \"#utility.yul\":1528:1560   */\n      dup4\n      and\n        /* \"@openzeppelin/contracts@5.0.0/token/ERC721/ERC721.sol\":15743:15774  ERC721InvalidOperator(operator) */\n      0x04\n      dup3\n      add\n        /* \"#utility.yul\":1510:1561   */\n      mstore\n        /* \"#utility.yul\":1483:1501   */\n      0x24\n      add\n        /* \"@openzeppelin/contracts@5.0.0/token/ERC721/ERC721.sol\":15743:15774  ERC721InvalidOperator(operator) */\n      tag_118\n        /* \"#utility.yul\":1364:1567   */\n      jump\n        /* \"@openzeppelin/contracts@5.0.0/token/ERC721/ERC721.sol\":15694:15785  if (operator == address(0)) {... */\n    tag_203:\n      sub(shl(0xa0, 0x01), 0x01)\n        /* \"@openzeppelin/contracts@5.0.0/token/ERC721/ERC721.sol\":15794:15819  _operatorApprovals[owner] */\n      dup4\n      dup2\n      and\n      0x00\n      dup2\n      dup2\n      mstore\n        /* \"@openzeppelin/contracts@5.0.0/token/ERC721/ERC721.sol\":15794:15812  _operatorApprovals */\n      0x05\n        /* \"@openzeppelin/contracts@5.0.0/token/ERC721/ERC721.sol\":15794:15819  _operatorApprovals[owner] */\n      0x20\n      swap1\n      dup2\n      mstore\n      0x40\n      dup1\n      dup4\n      keccak256\n        /* \"@openzeppelin/contracts@5.0.0/token/ERC721/ERC721.sol\":15794:15829  _operatorApprovals[owner][operator] */\n      swap5\n      dup8\n      and\n      dup1\n      dup5\n      mstore\n      swap5\n      dup3\n      mstore\n      swap2\n      dup3\n      swap1\n      keccak256\n        /* \"@openzeppelin/contracts@5.0.0/token/ERC721/ERC721.sol\":15794:15840  _operatorApprovals[owner][operator] = approved */\n      dup1\n      sload\n      not(0xff)\n      and\n      dup7\n      iszero\n      iszero\n      swap1\n      dup2\n      or\n      swap1\n      swap2\n      sstore\n        /* \"@openzeppelin/contracts@5.0.0/token/ERC721/ERC721.sol\":15855:15896  ApprovalForAll(owner, operator, approved) */\n      swap2\n      mload\n        /* \"#utility.yul\":540:581   */\n      swap2\n      dup3\n      mstore\n        /* \"@openzeppelin/contracts@5.0.0/token/ERC721/ERC721.sol\":15855:15896  ApprovalForAll(owner, operator, approved) */\n      0x17307eab39ab6107e8899845ad3d59bd9653f200f220920489ca2b5937696c31\n      swap2\n        /* \"#utility.yul\":513:531   */\n      add\n        /* \"@openzeppelin/contracts@5.0.0/token/ERC721/ERC721.sol\":15855:15896  ApprovalForAll(owner, operator, approved) */\n      mload(0x40)\n      dup1\n      swap2\n      sub\n      swap1\n      log3\n        /* \"@openzeppelin/contracts@5.0.0/token/ERC721/ERC721.sol\":15591:15903  function _setApprovalForAll(address owner, address operator, bool approved) internal virtual {... */\n      pop\n      pop\n      pop\n      jump\t// out\n        /* \"@openzeppelin/contracts@5.0.0/token/ERC721/ERC721.sol\":16918:17700  function _checkOnERC721Received(address from, address to, uint256 tokenId, bytes memory data) private {... */\n    tag_155:\n      sub(shl(0xa0, 0x01), 0x01)\n        /* \"@openzeppelin/contracts@5.0.0/token/ERC721/ERC721.sol\":17034:17048  to.code.length */\n      dup4\n      and\n      extcodesize\n        /* \"@openzeppelin/contracts@5.0.0/token/ERC721/ERC721.sol\":17034:17052  to.code.length > 0 */\n      iszero\n        /* \"@openzeppelin/contracts@5.0.0/token/ERC721/ERC721.sol\":17030:17694  if (to.code.length > 0) {... */\n      tag_122\n      jumpi\n        /* \"@openzeppelin/contracts@5.0.0/token/ERC721/ERC721.sol\":17072:17143  IERC721Receiver(to).onERC721Received(_msgSender(), from, tokenId, data) */\n      mload(0x40)\n      shl(0xe1, 0x0a85bd01)\n      dup2\n      mstore\n      sub(shl(0xa0, 0x01), 0x01)\n        /* \"@openzeppelin/contracts@5.0.0/token/ERC721/ERC721.sol\":17072:17108  IERC721Receiver(to).onERC721Received */\n      dup5\n      and\n      swap1\n      0x150b7a02\n      swap1\n        /* \"@openzeppelin/contracts@5.0.0/token/ERC721/ERC721.sol\":17072:17143  IERC721Receiver(to).onERC721Received(_msgSender(), from, tokenId, data) */\n      tag_209\n      swap1\n        /* \"@openzeppelin/contracts@5.0.0/utils/Context.sol\":735:745  msg.sender */\n      caller\n      swap1\n        /* \"@openzeppelin/contracts@5.0.0/token/ERC721/ERC721.sol\":17123:17127  from */\n      dup9\n      swap1\n        /* \"@openzeppelin/contracts@5.0.0/token/ERC721/ERC721.sol\":17129:17136  tokenId */\n      dup8\n      swap1\n        /* \"@openzeppelin/contracts@5.0.0/token/ERC721/ERC721.sol\":17138:17142  data */\n      dup8\n      swap1\n        /* \"@openzeppelin/contracts@5.0.0/token/ERC721/ERC721.sol\":17072:17143  IERC721Receiver(to).onERC721Received(_msgSender(), from, tokenId, data) */\n      0x04\n      add\n      tag_210\n      jump\t// in\n    tag_209:\n      0x20\n      mload(0x40)\n      dup1\n      dup4\n      sub\n      dup2\n      0x00\n      dup8\n      gas\n      call\n      swap3\n      pop\n      pop\n      pop\n      dup1\n      iszero\n      tag_211\n      jumpi\n      pop\n      0x40\n      dup1\n      mload\n      0x1f\n      returndatasize\n      swap1\n      dup2\n      add\n      not(0x1f)\n      and\n      dup3\n      add\n      swap1\n      swap3\n      mstore\n      tag_212\n      swap2\n      dup2\n      add\n      swap1\n      tag_213\n      jump\t// in\n    tag_212:\n      0x01\n    tag_211:\n        /* \"@openzeppelin/contracts@5.0.0/token/ERC721/ERC721.sol\":17068:17684  try IERC721Receiver(to).onERC721Received(_msgSender(), from, tokenId, data) returns (bytes4 retval) {... */\n      tag_214\n      jumpi\n      returndatasize\n      dup1\n      dup1\n      iszero\n      tag_219\n      jumpi\n      mload(0x40)\n      swap2\n      pop\n      and(add(returndatasize, 0x3f), not(0x1f))\n      dup3\n      add\n      0x40\n      mstore\n      returndatasize\n      dup3\n      mstore\n      returndatasize\n      0x00\n      0x20\n      dup5\n      add\n      returndatacopy\n      jump(tag_218)\n    tag_219:\n      0x60\n      swap2\n      pop\n    tag_218:\n      pop\n        /* \"@openzeppelin/contracts@5.0.0/token/ERC721/ERC721.sol\":17381:17387  reason */\n      dup1\n        /* \"@openzeppelin/contracts@5.0.0/token/ERC721/ERC721.sol\":17381:17394  reason.length */\n      mload\n        /* \"@openzeppelin/contracts@5.0.0/token/ERC721/ERC721.sol\":17398:17399  0 */\n      0x00\n        /* \"@openzeppelin/contracts@5.0.0/token/ERC721/ERC721.sol\":17381:17399  reason.length == 0 */\n      sub\n        /* \"@openzeppelin/contracts@5.0.0/token/ERC721/ERC721.sol\":17377:17670  if (reason.length == 0) {... */\n      tag_220\n      jumpi\n        /* \"@openzeppelin/contracts@5.0.0/token/ERC721/ERC721.sol\":17430:17455  ERC721InvalidReceiver(to) */\n      mload(0x40)\n      shl(0xe1, 0x32505749)\n      dup2\n      mstore\n      sub(shl(0xa0, 0x01), 0x01)\n        /* \"#utility.yul\":1528:1560   */\n      dup6\n      and\n        /* \"@openzeppelin/contracts@5.0.0/token/ERC721/ERC721.sol\":17430:17455  ERC721InvalidReceiver(to) */\n      0x04\n      dup3\n      add\n        /* \"#utility.yul\":1510:1561   */\n      mstore\n        /* \"#utility.yul\":1483:1501   */\n      0x24\n      add\n        /* \"@openzeppelin/contracts@5.0.0/token/ERC721/ERC721.sol\":17430:17455  ERC721InvalidReceiver(to) */\n      tag_118\n        /* \"#utility.yul\":1364:1567   */\n      jump\n        /* \"@openzeppelin/contracts@5.0.0/token/ERC721/ERC721.sol\":17377:17670  if (reason.length == 0) {... */\n    tag_220:\n        /* \"@openzeppelin/contracts@5.0.0/token/ERC721/ERC721.sol\":17622:17628  reason */\n      dup1\n        /* \"@openzeppelin/contracts@5.0.0/token/ERC721/ERC721.sol\":17616:17629  mload(reason) */\n      mload\n        /* \"@openzeppelin/contracts@5.0.0/token/ERC721/ERC721.sol\":17607:17613  reason */\n      dup2\n        /* \"@openzeppelin/contracts@5.0.0/token/ERC721/ERC721.sol\":17603:17605  32 */\n      0x20\n        /* \"@openzeppelin/contracts@5.0.0/token/ERC721/ERC721.sol\":17599:17614  add(32, reason) */\n      add\n        /* \"@openzeppelin/contracts@5.0.0/token/ERC721/ERC721.sol\":17592:17630  revert(add(32, reason), mload(reason)) */\n      revert\n        /* \"@openzeppelin/contracts@5.0.0/token/ERC721/ERC721.sol\":17068:17684  try IERC721Receiver(to).onERC721Received(_msgSender(), from, tokenId, data) returns (bytes4 retval) {... */\n    tag_214:\n      not(sub(shl(0xe0, 0x01), 0x01))\n        /* \"@openzeppelin/contracts@5.0.0/token/ERC721/ERC721.sol\":17190:17241  retval != IERC721Receiver.onERC721Received.selector */\n      dup2\n      and\n      shl(0xe1, 0x0a85bd01)\n      eq\n        /* \"@openzeppelin/contracts@5.0.0/token/ERC721/ERC721.sol\":17186:17316  if (retval != IERC721Receiver.onERC721Received.selector) {... */\n      tag_224\n      jumpi\n        /* \"@openzeppelin/contracts@5.0.0/token/ERC721/ERC721.sol\":17272:17297  ERC721InvalidReceiver(to) */\n      mload(0x40)\n      shl(0xe1, 0x32505749)\n      dup2\n      mstore\n      sub(shl(0xa0, 0x01), 0x01)\n        /* \"#utility.yul\":1528:1560   */\n      dup6\n      and\n        /* \"@openzeppelin/contracts@5.0.0/token/ERC721/ERC721.sol\":17272:17297  ERC721InvalidReceiver(to) */\n      0x04\n      dup3\n      add\n        /* \"#utility.yul\":1510:1561   */\n      mstore\n        /* \"#utility.yul\":1483:1501   */\n      0x24\n      add\n        /* \"@openzeppelin/contracts@5.0.0/token/ERC721/ERC721.sol\":17272:17297  ERC721InvalidReceiver(to) */\n      tag_118\n        /* \"#utility.yul\":1364:1567   */\n      jump\n        /* \"@openzeppelin/contracts@5.0.0/token/ERC721/ERC721.sol\":17186:17316  if (retval != IERC721Receiver.onERC721Received.selector) {... */\n    tag_224:\n        /* \"@openzeppelin/contracts@5.0.0/token/ERC721/ERC721.sol\":17144:17330  returns (bytes4 retval) {... */\n      pop\n        /* \"@openzeppelin/contracts@5.0.0/token/ERC721/ERC721.sol\":16918:17700  function _checkOnERC721Received(address from, address to, uint256 tokenId, bytes memory data) private {... */\n      pop\n      pop\n      pop\n      pop\n      jump\t// out\n        /* \"@openzeppelin/contracts@5.0.0/token/ERC721/extensions/ERC721URIStorage.sol\":1210:1803  function tokenURI(uint256 tokenId) public view virtual override returns (string memory) {... */\n    tag_158:\n        /* \"@openzeppelin/contracts@5.0.0/token/ERC721/extensions/ERC721URIStorage.sol\":1283:1296  string memory */\n      0x60\n        /* \"@openzeppelin/contracts@5.0.0/token/ERC721/extensions/ERC721URIStorage.sol\":1308:1330  _requireOwned(tokenId) */\n      tag_227\n        /* \"@openzeppelin/contracts@5.0.0/token/ERC721/extensions/ERC721URIStorage.sol\":1322:1329  tokenId */\n      dup3\n        /* \"@openzeppelin/contracts@5.0.0/token/ERC721/extensions/ERC721URIStorage.sol\":1308:1321  _requireOwned */\n      tag_108\n        /* \"@openzeppelin/contracts@5.0.0/token/ERC721/extensions/ERC721URIStorage.sol\":1308:1330  _requireOwned(tokenId) */\n      jump\t// in\n    tag_227:\n      pop\n        /* \"@openzeppelin/contracts@5.0.0/token/ERC721/extensions/ERC721URIStorage.sol\":1341:1364  string memory _tokenURI */\n      0x00\n        /* \"@openzeppelin/contracts@5.0.0/token/ERC721/extensions/ERC721URIStorage.sol\":1367:1386  _tokenURIs[tokenId] */\n      dup3\n      dup2\n      mstore\n        /* \"@openzeppelin/contracts@5.0.0/token/ERC721/extensions/ERC721URIStorage.sol\":1367:1377  _tokenURIs */\n      0x06\n        /* \"@openzeppelin/contracts@5.0.0/token/ERC721/extensions/ERC721URIStorage.sol\":1367:1386  _tokenURIs[tokenId] */\n      0x20\n      mstore\n      0x40\n      dup2\n      keccak256\n        /* \"@openzeppelin/contracts@5.0.0/token/ERC721/extensions/ERC721URIStorage.sol\":1341:1386  string memory _tokenURI = _tokenURIs[tokenId] */\n      dup1\n      sload\n      tag_228\n      swap1\n      tag_101\n      jump\t// in\n    tag_228:\n      dup1\n      0x1f\n      add\n      0x20\n      dup1\n      swap2\n      div\n      mul\n      0x20\n      add\n      mload(0x40)\n      swap1\n      dup2\n      add\n      0x40\n      mstore\n      dup1\n      swap3\n      swap2\n      swap1\n      dup2\n      dup2\n      mstore\n      0x20\n      add\n      dup3\n      dup1\n      sload\n      tag_229\n      swap1\n      tag_101\n      jump\t// in\n    tag_229:\n      dup1\n      iszero\n      tag_230\n      jumpi\n      dup1\n      0x1f\n      lt\n      tag_231\n      jumpi\n      0x0100\n      dup1\n      dup4\n      sload\n      div\n      mul\n      dup4\n      mstore\n      swap2\n      0x20\n      add\n      swap2\n      jump(tag_230)\n    tag_231:\n      dup3\n      add\n      swap2\n      swap1\n      0x00\n      mstore\n      keccak256(0x00, 0x20)\n      swap1\n    tag_232:\n      dup2\n      sload\n      dup2\n      mstore\n      swap1\n      0x01\n      add\n      swap1\n      0x20\n      add\n      dup1\n      dup4\n      gt\n      tag_232\n      jumpi\n      dup3\n      swap1\n      sub\n      0x1f\n      and\n      dup3\n      add\n      swap2\n    tag_230:\n      pop\n      pop\n      pop\n      pop\n      pop\n      swap1\n      pop\n        /* \"@openzeppelin/contracts@5.0.0/token/ERC721/extensions/ERC721URIStorage.sol\":1396:1414  string memory base */\n      0x00\n        /* \"@openzeppelin/contracts@5.0.0/token/ERC721/extensions/ERC721URIStorage.sol\":1417:1427  _baseURI() */\n      tag_233\n        /* \"@openzeppelin/contracts@5.0.0/token/ERC721/ERC721.sol\":3250:3259  return \"\" */\n      0x40\n      dup1\n      mload\n      0x20\n      dup2\n      add\n      swap1\n      swap2\n      mstore\n      0x00\n      dup2\n      mstore\n      swap1\n        /* \"@openzeppelin/contracts@5.0.0/token/ERC721/ERC721.sol\":3174:3266  function _baseURI() internal view virtual returns (string memory) {... */\n      jump\n        /* \"@openzeppelin/contracts@5.0.0/token/ERC721/extensions/ERC721URIStorage.sol\":1417:1427  _baseURI() */\n    tag_233:\n        /* \"@openzeppelin/contracts@5.0.0/token/ERC721/extensions/ERC721URIStorage.sol\":1396:1427  string memory base = _baseURI() */\n      swap1\n      pop\n        /* \"@openzeppelin/contracts@5.0.0/token/ERC721/extensions/ERC721URIStorage.sol\":1506:1510  base */\n      dup1\n        /* \"@openzeppelin/contracts@5.0.0/token/ERC721/extensions/ERC721URIStorage.sol\":1500:1518  bytes(base).length */\n      mload\n        /* \"@openzeppelin/contracts@5.0.0/token/ERC721/extensions/ERC721URIStorage.sol\":1522:1523  0 */\n      0x00\n        /* \"@openzeppelin/contracts@5.0.0/token/ERC721/extensions/ERC721URIStorage.sol\":1500:1523  bytes(base).length == 0 */\n      sub\n        /* \"@openzeppelin/contracts@5.0.0/token/ERC721/extensions/ERC721URIStorage.sol\":1496:1566  if (bytes(base).length == 0) {... */\n      tag_235\n      jumpi\n      pop\n        /* \"@openzeppelin/contracts@5.0.0/token/ERC721/extensions/ERC721URIStorage.sol\":1546:1555  _tokenURI */\n      swap3\n        /* \"@openzeppelin/contracts@5.0.0/token/ERC721/extensions/ERC721URIStorage.sol\":1210:1803  function tokenURI(uint256 tokenId) public view virtual override returns (string memory) {... */\n      swap2\n      pop\n      pop\n      jump\t// out\n        /* \"@openzeppelin/contracts@5.0.0/token/ERC721/extensions/ERC721URIStorage.sol\":1496:1566  if (bytes(base).length == 0) {... */\n    tag_235:\n        /* \"@openzeppelin/contracts@5.0.0/token/ERC721/extensions/ERC721URIStorage.sol\":1665:1688  bytes(_tokenURI).length */\n      dup2\n      mload\n        /* \"@openzeppelin/contracts@5.0.0/token/ERC721/extensions/ERC721URIStorage.sol\":1665:1692  bytes(_tokenURI).length > 0 */\n      iszero\n        /* \"@openzeppelin/contracts@5.0.0/token/ERC721/extensions/ERC721URIStorage.sol\":1661:1756  if (bytes(_tokenURI).length > 0) {... */\n      tag_236\n      jumpi\n        /* \"@openzeppelin/contracts@5.0.0/token/ERC721/extensions/ERC721URIStorage.sol\":1729:1733  base */\n      dup1\n        /* \"@openzeppelin/contracts@5.0.0/token/ERC721/extensions/ERC721URIStorage.sol\":1735:1744  _tokenURI */\n      dup3\n        /* \"@openzeppelin/contracts@5.0.0/token/ERC721/extensions/ERC721URIStorage.sol\":1715:1745  string.concat(base, _tokenURI) */\n      add(0x20, mload(0x40))\n      tag_237\n      swap3\n      swap2\n      swap1\n      tag_238\n      jump\t// in\n    tag_237:\n      mload(0x40)\n      0x20\n      dup2\n      dup4\n      sub\n      sub\n      dup2\n      mstore\n      swap1\n      0x40\n      mstore\n        /* \"@openzeppelin/contracts@5.0.0/token/ERC721/extensions/ERC721URIStorage.sol\":1708:1745  return string.concat(base, _tokenURI) */\n      swap3\n      pop\n      pop\n      pop\n        /* \"@openzeppelin/contracts@5.0.0/token/ERC721/extensions/ERC721URIStorage.sol\":1210:1803  function tokenURI(uint256 tokenId) public view virtual override returns (string memory) {... */\n      swap2\n      swap1\n      pop\n      jump\t// out\n        /* \"@openzeppelin/contracts@5.0.0/token/ERC721/extensions/ERC721URIStorage.sol\":1661:1756  if (bytes(_tokenURI).length > 0) {... */\n    tag_236:\n        /* \"@openzeppelin/contracts@5.0.0/token/ERC721/extensions/ERC721URIStorage.sol\":1773:1796  super.tokenURI(tokenId) */\n      tag_239\n        /* \"@openzeppelin/contracts@5.0.0/token/ERC721/extensions/ERC721URIStorage.sol\":1788:1795  tokenId */\n      dup5\n        /* \"@openzeppelin/contracts@5.0.0/token/ERC721/extensions/ERC721URIStorage.sol\":1773:1787  super.tokenURI */\n      tag_240\n        /* \"@openzeppelin/contracts@5.0.0/token/ERC721/extensions/ERC721URIStorage.sol\":1773:1796  super.tokenURI(tokenId) */\n      jump\t// in\n    tag_239:\n        /* \"@openzeppelin/contracts@5.0.0/token/ERC721/extensions/ERC721URIStorage.sol\":1766:1796  return super.tokenURI(tokenId) */\n      swap5\n        /* \"@openzeppelin/contracts@5.0.0/token/ERC721/extensions/ERC721URIStorage.sol\":1210:1803  function tokenURI(uint256 tokenId) public view virtual override returns (string memory) {... */\n      swap4\n      pop\n      pop\n      pop\n      pop\n      jump\t// out\n        /* \"@openzeppelin/contracts@5.0.0/token/ERC721/ERC721.sol\":10633:10733  function _safeMint(address to, uint256 tokenId) internal {... */\n    tag_163:\n        /* \"@openzeppelin/contracts@5.0.0/token/ERC721/ERC721.sol\":10700:10726  _safeMint(to, tokenId, \"\") */\n      tag_112\n        /* \"@openzeppelin/contracts@5.0.0/token/ERC721/ERC721.sol\":10710:10712  to */\n      dup3\n        /* \"@openzeppelin/contracts@5.0.0/token/ERC721/ERC721.sol\":10714:10721  tokenId */\n      dup3\n        /* \"@openzeppelin/contracts@5.0.0/token/ERC721/ERC721.sol\":10700:10726  _safeMint(to, tokenId, \"\") */\n      mload(0x40)\n      dup1\n      0x20\n      add\n      0x40\n      mstore\n      dup1\n      0x00\n      dup2\n      mstore\n      pop\n        /* \"@openzeppelin/contracts@5.0.0/token/ERC721/ERC721.sol\":10700:10709  _safeMint */\n      tag_243\n        /* \"@openzeppelin/contracts@5.0.0/token/ERC721/ERC721.sol\":10700:10726  _safeMint(to, tokenId, \"\") */\n      jump\t// in\n        /* \"@openzeppelin/contracts@5.0.0/token/ERC721/extensions/ERC721URIStorage.sol\":1922:2089  function _setTokenURI(uint256 tokenId, string memory _tokenURI) internal virtual {... */\n    tag_165:\n        /* \"@openzeppelin/contracts@5.0.0/token/ERC721/extensions/ERC721URIStorage.sol\":2013:2032  _tokenURIs[tokenId] */\n      0x00\n      dup3\n      dup2\n      mstore\n        /* \"@openzeppelin/contracts@5.0.0/token/ERC721/extensions/ERC721URIStorage.sol\":2013:2023  _tokenURIs */\n      0x06\n        /* \"@openzeppelin/contracts@5.0.0/token/ERC721/extensions/ERC721URIStorage.sol\":2013:2032  _tokenURIs[tokenId] */\n      0x20\n      mstore\n      0x40\n      swap1\n      keccak256\n        /* \"@openzeppelin/contracts@5.0.0/token/ERC721/extensions/ERC721URIStorage.sol\":2013:2044  _tokenURIs[tokenId] = _tokenURI */\n      tag_245\n        /* \"@openzeppelin/contracts@5.0.0/token/ERC721/extensions/ERC721URIStorage.sol\":2035:2044  _tokenURI */\n      dup3\n        /* \"@openzeppelin/contracts@5.0.0/token/ERC721/extensions/ERC721URIStorage.sol\":2013:2032  _tokenURIs[tokenId] */\n      dup3\n        /* \"@openzeppelin/contracts@5.0.0/token/ERC721/extensions/ERC721URIStorage.sol\":2013:2044  _tokenURIs[tokenId] = _tokenURI */\n      tag_246\n      jump\t// in\n    tag_245:\n      pop\n        /* \"@openzeppelin/contracts@5.0.0/token/ERC721/extensions/ERC721URIStorage.sol\":2059:2082  MetadataUpdate(tokenId) */\n      mload(0x40)\n        /* \"#utility.yul\":2771:2796   */\n      dup3\n      dup2\n      mstore\n        /* \"@openzeppelin/contracts@5.0.0/token/ERC721/extensions/ERC721URIStorage.sol\":2059:2082  MetadataUpdate(tokenId) */\n      0xf8e1a15aba9398e019f0b49df1a4fde98ee17ae345cb5f6b5e2c27f5033e8ce7\n      swap1\n        /* \"#utility.yul\":2759:2761   */\n      0x20\n        /* \"#utility.yul\":2744:2762   */\n      add\n        /* \"@openzeppelin/contracts@5.0.0/token/ERC721/extensions/ERC721URIStorage.sol\":2059:2082  MetadataUpdate(tokenId) */\n      mload(0x40)\n      dup1\n      swap2\n      sub\n      swap1\n      log1\n        /* \"@openzeppelin/contracts@5.0.0/token/ERC721/extensions/ERC721URIStorage.sol\":1922:2089  function _setTokenURI(uint256 tokenId, string memory _tokenURI) internal virtual {... */\n      pop\n      pop\n      jump\t// out\n        /* \"@openzeppelin/contracts@5.0.0/token/ERC721/ERC721.sol\":1561:1861  function supportsInterface(bytes4 interfaceId) public view virtual override(ERC165, IERC165) returns (bool) {... */\n    tag_176:\n        /* \"@openzeppelin/contracts@5.0.0/token/ERC721/ERC721.sol\":1663:1667  bool */\n      0x00\n      not(sub(shl(0xe0, 0x01), 0x01))\n        /* \"@openzeppelin/contracts@5.0.0/token/ERC721/ERC721.sol\":1698:1738  interfaceId == type(IERC721).interfaceId */\n      dup3\n      and\n      shl(0xe0, 0x80ac58cd)\n      eq\n      dup1\n        /* \"@openzeppelin/contracts@5.0.0/token/ERC721/ERC721.sol\":1698:1802  interfaceId == type(IERC721).interfaceId ||... */\n      tag_249\n      jumpi\n      pop\n      not(sub(shl(0xe0, 0x01), 0x01))\n        /* \"@openzeppelin/contracts@5.0.0/token/ERC721/ERC721.sol\":1754:1802  interfaceId == type(IERC721Metadata).interfaceId */\n      dup3\n      and\n      shl(0xe0, 0x5b5e139f)\n      eq\n        /* \"@openzeppelin/contracts@5.0.0/token/ERC721/ERC721.sol\":1698:1802  interfaceId == type(IERC721).interfaceId ||... */\n    tag_249:\n        /* \"@openzeppelin/contracts@5.0.0/token/ERC721/ERC721.sol\":1698:1854  interfaceId == type(IERC721).interfaceId ||... */\n      dup1\n      tag_97\n      jumpi\n      pop\n      shl(0xe0, 0x01ffc9a7)\n      not(sub(shl(0xe0, 0x01), 0x01))\n        /* \"@openzeppelin/contracts@5.0.0/utils/introspection/ERC165.sol\":861:901  interfaceId == type(IERC165).interfaceId */\n      dup4\n      and\n      eq\n        /* \"@openzeppelin/contracts@5.0.0/token/ERC721/ERC721.sol\":1818:1854  super.supportsInterface(interfaceId) */\n      tag_97\n        /* \"@openzeppelin/contracts@5.0.0/utils/introspection/ERC165.sol\":762:908  function supportsInterface(bytes4 interfaceId) public view virtual returns (bool) {... */\n      jump\n        /* \"@openzeppelin/contracts@5.0.0/token/ERC721/ERC721.sol\":14720:15382  function _approve(address to, uint256 tokenId, address auth, bool emitEvent) internal virtual {... */\n    tag_186:\n        /* \"@openzeppelin/contracts@5.0.0/token/ERC721/ERC721.sol\":14880:14889  emitEvent */\n      dup1\n        /* \"@openzeppelin/contracts@5.0.0/token/ERC721/ERC721.sol\":14880:14911  emitEvent || auth != address(0) */\n      dup1\n      tag_255\n      jumpi\n      pop\n      sub(shl(0xa0, 0x01), 0x01)\n        /* \"@openzeppelin/contracts@5.0.0/token/ERC721/ERC721.sol\":14893:14911  auth != address(0) */\n      dup3\n      and\n      iszero\n      iszero\n        /* \"@openzeppelin/contracts@5.0.0/token/ERC721/ERC721.sol\":14880:14911  emitEvent || auth != address(0) */\n    tag_255:\n        /* \"@openzeppelin/contracts@5.0.0/token/ERC721/ERC721.sol\":14876:15336  if (emitEvent || auth != address(0)) {... */\n      iszero\n      tag_256\n      jumpi\n        /* \"@openzeppelin/contracts@5.0.0/token/ERC721/ERC721.sol\":14927:14940  address owner */\n      0x00\n        /* \"@openzeppelin/contracts@5.0.0/token/ERC721/ERC721.sol\":14943:14965  _requireOwned(tokenId) */\n      tag_257\n        /* \"@openzeppelin/contracts@5.0.0/token/ERC721/ERC721.sol\":14957:14964  tokenId */\n      dup5\n        /* \"@openzeppelin/contracts@5.0.0/token/ERC721/ERC721.sol\":14943:14956  _requireOwned */\n      tag_108\n        /* \"@openzeppelin/contracts@5.0.0/token/ERC721/ERC721.sol\":14943:14965  _requireOwned(tokenId) */\n      jump\t// in\n    tag_257:\n        /* \"@openzeppelin/contracts@5.0.0/token/ERC721/ERC721.sol\":14927:14965  address owner = _requireOwned(tokenId) */\n      swap1\n      pop\n      sub(shl(0xa0, 0x01), 0x01)\n        /* \"@openzeppelin/contracts@5.0.0/token/ERC721/ERC721.sol\":15093:15111  auth != address(0) */\n      dup4\n      and\n      iszero\n      dup1\n      iszero\n      swap1\n        /* \"@openzeppelin/contracts@5.0.0/token/ERC721/ERC721.sol\":15093:15128  auth != address(0) && owner != auth */\n      tag_258\n      jumpi\n      pop\n        /* \"@openzeppelin/contracts@5.0.0/token/ERC721/ERC721.sol\":15124:15128  auth */\n      dup3\n      sub(shl(0xa0, 0x01), 0x01)\n        /* \"@openzeppelin/contracts@5.0.0/token/ERC721/ERC721.sol\":15115:15128  owner != auth */\n      and\n        /* \"@openzeppelin/contracts@5.0.0/token/ERC721/ERC721.sol\":15115:15120  owner */\n      dup2\n      sub(shl(0xa0, 0x01), 0x01)\n        /* \"@openzeppelin/contracts@5.0.0/token/ERC721/ERC721.sol\":15115:15128  owner != auth */\n      and\n      eq\n      iszero\n        /* \"@openzeppelin/contracts@5.0.0/token/ERC721/ERC721.sol\":15093:15128  auth != address(0) && owner != auth */\n    tag_258:\n        /* \"@openzeppelin/contracts@5.0.0/token/ERC721/ERC721.sol\":15093:15162  auth != address(0) && owner != auth && !isApprovedForAll(owner, auth) */\n      dup1\n      iszero\n      tag_259\n      jumpi\n      pop\n        /* \"@openzeppelin/contracts@5.0.0/token/ERC721/ERC721.sol\":15133:15162  isApprovedForAll(owner, auth) */\n      tag_260\n        /* \"@openzeppelin/contracts@5.0.0/token/ERC721/ERC721.sol\":15150:15155  owner */\n      dup2\n        /* \"@openzeppelin/contracts@5.0.0/token/ERC721/ERC721.sol\":15157:15161  auth */\n      dup5\n        /* \"@openzeppelin/contracts@5.0.0/token/ERC721/ERC721.sol\":15133:15149  isApprovedForAll */\n      tag_91\n        /* \"@openzeppelin/contracts@5.0.0/token/ERC721/ERC721.sol\":15133:15162  isApprovedForAll(owner, auth) */\n      jump\t// in\n    tag_260:\n        /* \"@openzeppelin/contracts@5.0.0/token/ERC721/ERC721.sol\":15132:15162  !isApprovedForAll(owner, auth) */\n      iszero\n        /* \"@openzeppelin/contracts@5.0.0/token/ERC721/ERC721.sol\":15093:15162  auth != address(0) && owner != auth && !isApprovedForAll(owner, auth) */\n    tag_259:\n        /* \"@openzeppelin/contracts@5.0.0/token/ERC721/ERC721.sol\":15089:15231  if (auth != address(0) && owner != auth && !isApprovedForAll(owner, auth)) {... */\n      iszero\n      tag_261\n      jumpi\n        /* \"@openzeppelin/contracts@5.0.0/token/ERC721/ERC721.sol\":15189:15216  ERC721InvalidApprover(auth) */\n      mload(0x40)\n      shl(0xe0, 0xa9fbf51f)\n      dup2\n      mstore\n      sub(shl(0xa0, 0x01), 0x01)\n        /* \"#utility.yul\":1528:1560   */\n      dup5\n      and\n        /* \"@openzeppelin/contracts@5.0.0/token/ERC721/ERC721.sol\":15189:15216  ERC721InvalidApprover(auth) */\n      0x04\n      dup3\n      add\n        /* \"#utility.yul\":1510:1561   */\n      mstore\n        /* \"#utility.yul\":1483:1501   */\n      0x24\n      add\n        /* \"@openzeppelin/contracts@5.0.0/token/ERC721/ERC721.sol\":15189:15216  ERC721InvalidApprover(auth) */\n      tag_118\n        /* \"#utility.yul\":1364:1567   */\n      jump\n        /* \"@openzeppelin/contracts@5.0.0/token/ERC721/ERC721.sol\":15089:15231  if (auth != address(0) && owner != auth && !isApprovedForAll(owner, auth)) {... */\n    tag_261:\n        /* \"@openzeppelin/contracts@5.0.0/token/ERC721/ERC721.sol\":15249:15258  emitEvent */\n      dup2\n        /* \"@openzeppelin/contracts@5.0.0/token/ERC721/ERC721.sol\":15245:15326  if (emitEvent) {... */\n      iszero\n      tag_263\n      jumpi\n        /* \"@openzeppelin/contracts@5.0.0/token/ERC721/ERC721.sol\":15303:15310  tokenId */\n      dup4\n        /* \"@openzeppelin/contracts@5.0.0/token/ERC721/ERC721.sol\":15299:15301  to */\n      dup6\n      sub(shl(0xa0, 0x01), 0x01)\n        /* \"@openzeppelin/contracts@5.0.0/token/ERC721/ERC721.sol\":15283:15311  Approval(owner, to, tokenId) */\n      and\n        /* \"@openzeppelin/contracts@5.0.0/token/ERC721/ERC721.sol\":15292:15297  owner */\n      dup3\n      sub(shl(0xa0, 0x01), 0x01)\n        /* \"@openzeppelin/contracts@5.0.0/token/ERC721/ERC721.sol\":15283:15311  Approval(owner, to, tokenId) */\n      and\n      0x8c5be1e5ebec7d5bd14f71427d1e84f3dd0314c0f7b2291e5b200ac8c7c3b925\n      mload(0x40)\n      mload(0x40)\n      dup1\n      swap2\n      sub\n      swap1\n      log4\n        /* \"@openzeppelin/contracts@5.0.0/token/ERC721/ERC721.sol\":15245:15326  if (emitEvent) {... */\n    tag_263:\n        /* \"@openzeppelin/contracts@5.0.0/token/ERC721/ERC721.sol\":14913:15336  {... */\n      pop\n        /* \"@openzeppelin/contracts@5.0.0/token/ERC721/ERC721.sol\":14876:15336  if (emitEvent || auth != address(0)) {... */\n    tag_256:\n      pop\n      pop\n        /* \"@openzeppelin/contracts@5.0.0/token/ERC721/ERC721.sol\":15346:15370  _tokenApprovals[tokenId] */\n      0x00\n      swap1\n      dup2\n      mstore\n        /* \"@openzeppelin/contracts@5.0.0/token/ERC721/ERC721.sol\":15346:15361  _tokenApprovals */\n      0x04\n        /* \"@openzeppelin/contracts@5.0.0/token/ERC721/ERC721.sol\":15346:15370  _tokenApprovals[tokenId] */\n      0x20\n      mstore\n      0x40\n      swap1\n      keccak256\n        /* \"@openzeppelin/contracts@5.0.0/token/ERC721/ERC721.sol\":15346:15375  _tokenApprovals[tokenId] = to */\n      dup1\n      sload\n      not(sub(shl(0xa0, 0x01), 0x01))\n      and\n      sub(shl(0xa0, 0x01), 0x01)\n      swap3\n      swap1\n      swap3\n      and\n      swap2\n      swap1\n      swap2\n      or\n      swap1\n      sstore\n        /* \"@openzeppelin/contracts@5.0.0/token/ERC721/ERC721.sol\":14720:15382  function _approve(address to, uint256 tokenId, address auth, bool emitEvent) internal virtual {... */\n      jump\t// out\n        /* \"@openzeppelin/contracts@5.0.0/token/ERC721/ERC721.sol\":7082:7450  function _checkAuthorized(address owner, address spender, uint256 tokenId) internal view virtual {... */\n    tag_191:\n        /* \"@openzeppelin/contracts@5.0.0/token/ERC721/ERC721.sol\":7194:7232  _isAuthorized(owner, spender, tokenId) */\n      tag_265\n        /* \"@openzeppelin/contracts@5.0.0/token/ERC721/ERC721.sol\":7208:7213  owner */\n      dup4\n        /* \"@openzeppelin/contracts@5.0.0/token/ERC721/ERC721.sol\":7215:7222  spender */\n      dup4\n        /* \"@openzeppelin/contracts@5.0.0/token/ERC721/ERC721.sol\":7224:7231  tokenId */\n      dup4\n        /* \"@openzeppelin/contracts@5.0.0/token/ERC721/ERC721.sol\":7194:7207  _isAuthorized */\n      tag_266\n        /* \"@openzeppelin/contracts@5.0.0/token/ERC721/ERC721.sol\":7194:7232  _isAuthorized(owner, spender, tokenId) */\n      jump\t// in\n    tag_265:\n        /* \"@openzeppelin/contracts@5.0.0/token/ERC721/ERC721.sol\":7189:7444  if (!_isAuthorized(owner, spender, tokenId)) {... */\n      tag_126\n      jumpi\n      sub(shl(0xa0, 0x01), 0x01)\n        /* \"@openzeppelin/contracts@5.0.0/token/ERC721/ERC721.sol\":7252:7271  owner == address(0) */\n      dup4\n      and\n        /* \"@openzeppelin/contracts@5.0.0/token/ERC721/ERC721.sol\":7248:7434  if (owner == address(0)) {... */\n      tag_268\n      jumpi\n        /* \"@openzeppelin/contracts@5.0.0/token/ERC721/ERC721.sol\":7298:7329  ERC721NonexistentToken(tokenId) */\n      mload(0x40)\n      shl(0xe0, 0x7e273289)\n      dup2\n      mstore\n      0x04\n      dup2\n      add\n        /* \"#utility.yul\":2771:2796   */\n      dup3\n      swap1\n      mstore\n        /* \"#utility.yul\":2744:2762   */\n      0x24\n      add\n        /* \"@openzeppelin/contracts@5.0.0/token/ERC721/ERC721.sol\":7298:7329  ERC721NonexistentToken(tokenId) */\n      tag_118\n        /* \"#utility.yul\":2625:2802   */\n      jump\n        /* \"@openzeppelin/contracts@5.0.0/token/ERC721/ERC721.sol\":7248:7434  if (owner == address(0)) {... */\n    tag_268:\n        /* \"@openzeppelin/contracts@5.0.0/token/ERC721/ERC721.sol\":7375:7419  ERC721InsufficientApproval(spender, tokenId) */\n      mload(0x40)\n      shl(0xe0, 0x177e802f)\n      dup2\n      mstore\n      sub(shl(0xa0, 0x01), 0x01)\n        /* \"#utility.yul\":9957:9989   */\n      dup4\n      and\n        /* \"@openzeppelin/contracts@5.0.0/token/ERC721/ERC721.sol\":7375:7419  ERC721InsufficientApproval(spender, tokenId) */\n      0x04\n      dup3\n      add\n        /* \"#utility.yul\":9939:9990   */\n      mstore\n        /* \"#utility.yul\":10006:10024   */\n      0x24\n      dup2\n      add\n        /* \"#utility.yul\":9999:10033   */\n      dup3\n      swap1\n      mstore\n        /* \"#utility.yul\":9912:9930   */\n      0x44\n      add\n        /* \"@openzeppelin/contracts@5.0.0/token/ERC721/ERC721.sol\":7375:7419  ERC721InsufficientApproval(spender, tokenId) */\n      tag_118\n        /* \"#utility.yul\":9765:10039   */\n      jump\n        /* \"@openzeppelin/contracts@5.0.0/token/ERC721/ERC721.sol\":2677:2932  function tokenURI(uint256 tokenId) public view virtual returns (string memory) {... */\n    tag_240:\n        /* \"@openzeppelin/contracts@5.0.0/token/ERC721/ERC721.sol\":2741:2754  string memory */\n      0x60\n        /* \"@openzeppelin/contracts@5.0.0/token/ERC721/ERC721.sol\":2766:2788  _requireOwned(tokenId) */\n      tag_275\n        /* \"@openzeppelin/contracts@5.0.0/token/ERC721/ERC721.sol\":2780:2787  tokenId */\n      dup3\n        /* \"@openzeppelin/contracts@5.0.0/token/ERC721/ERC721.sol\":2766:2779  _requireOwned */\n      tag_108\n        /* \"@openzeppelin/contracts@5.0.0/token/ERC721/ERC721.sol\":2766:2788  _requireOwned(tokenId) */\n      jump\t// in\n    tag_275:\n      pop\n        /* \"@openzeppelin/contracts@5.0.0/token/ERC721/ERC721.sol\":2799:2820  string memory baseURI */\n      0x00\n        /* \"@openzeppelin/contracts@5.0.0/token/ERC721/ERC721.sol\":2823:2833  _baseURI() */\n      tag_276\n        /* \"@openzeppelin/contracts@5.0.0/token/ERC721/ERC721.sol\":3250:3259  return \"\" */\n      0x40\n      dup1\n      mload\n      0x20\n      dup2\n      add\n      swap1\n      swap2\n      mstore\n      0x00\n      dup2\n      mstore\n      swap1\n        /* \"@openzeppelin/contracts@5.0.0/token/ERC721/ERC721.sol\":3174:3266  function _baseURI() internal view virtual returns (string memory) {... */\n      jump\n        /* \"@openzeppelin/contracts@5.0.0/token/ERC721/ERC721.sol\":2823:2833  _baseURI() */\n    tag_276:\n        /* \"@openzeppelin/contracts@5.0.0/token/ERC721/ERC721.sol\":2799:2833  string memory baseURI = _baseURI() */\n      swap1\n      pop\n        /* \"@openzeppelin/contracts@5.0.0/token/ERC721/ERC721.sol\":2874:2875  0 */\n      0x00\n        /* \"@openzeppelin/contracts@5.0.0/token/ERC721/ERC721.sol\":2856:2863  baseURI */\n      dup2\n        /* \"@openzeppelin/contracts@5.0.0/token/ERC721/ERC721.sol\":2850:2871  bytes(baseURI).length */\n      mload\n        /* \"@openzeppelin/contracts@5.0.0/token/ERC721/ERC721.sol\":2850:2875  bytes(baseURI).length > 0 */\n      gt\n        /* \"@openzeppelin/contracts@5.0.0/token/ERC721/ERC721.sol\":2850:2925  bytes(baseURI).length > 0 ? string.concat(baseURI, tokenId.toString()) : \"\" */\n      tag_277\n      jumpi\n      mload(0x40)\n      dup1\n      0x20\n      add\n      0x40\n      mstore\n      dup1\n      0x00\n      dup2\n      mstore\n      pop\n      jump(tag_278)\n    tag_277:\n        /* \"@openzeppelin/contracts@5.0.0/token/ERC721/ERC721.sol\":2892:2899  baseURI */\n      dup1\n        /* \"@openzeppelin/contracts@5.0.0/token/ERC721/ERC721.sol\":2901:2919  tokenId.toString() */\n      tag_279\n        /* \"@openzeppelin/contracts@5.0.0/token/ERC721/ERC721.sol\":2901:2908  tokenId */\n      dup5\n        /* \"@openzeppelin/contracts@5.0.0/token/ERC721/ERC721.sol\":2901:2917  tokenId.toString */\n      tag_280\n        /* \"@openzeppelin/contracts@5.0.0/token/ERC721/ERC721.sol\":2901:2919  tokenId.toString() */\n      jump\t// in\n    tag_279:\n        /* \"@openzeppelin/contracts@5.0.0/token/ERC721/ERC721.sol\":2878:2920  string.concat(baseURI, tokenId.toString()) */\n      add(0x20, mload(0x40))\n      tag_281\n      swap3\n      swap2\n      swap1\n      tag_238\n      jump\t// in\n    tag_281:\n      mload(0x40)\n      0x20\n      dup2\n      dup4\n      sub\n      sub\n      dup2\n      mstore\n      swap1\n      0x40\n      mstore\n        /* \"@openzeppelin/contracts@5.0.0/token/ERC721/ERC721.sol\":2850:2925  bytes(baseURI).length > 0 ? string.concat(baseURI, tokenId.toString()) : \"\" */\n    tag_278:\n        /* \"@openzeppelin/contracts@5.0.0/token/ERC721/ERC721.sol\":2843:2925  return bytes(baseURI).length > 0 ? string.concat(baseURI, tokenId.toString()) : \"\" */\n      swap4\n        /* \"@openzeppelin/contracts@5.0.0/token/ERC721/ERC721.sol\":2677:2932  function tokenURI(uint256 tokenId) public view virtual returns (string memory) {... */\n      swap3\n      pop\n      pop\n      pop\n      jump\t// out\n        /* \"@openzeppelin/contracts@5.0.0/token/ERC721/ERC721.sol\":10954:11136  function _safeMint(address to, uint256 tokenId, bytes memory data) internal virtual {... */\n    tag_243:\n        /* \"@openzeppelin/contracts@5.0.0/token/ERC721/ERC721.sol\":11048:11066  _mint(to, tokenId) */\n      tag_283\n        /* \"@openzeppelin/contracts@5.0.0/token/ERC721/ERC721.sol\":11054:11056  to */\n      dup4\n        /* \"@openzeppelin/contracts@5.0.0/token/ERC721/ERC721.sol\":11058:11065  tokenId */\n      dup4\n        /* \"@openzeppelin/contracts@5.0.0/token/ERC721/ERC721.sol\":11048:11053  _mint */\n      tag_284\n        /* \"@openzeppelin/contracts@5.0.0/token/ERC721/ERC721.sol\":11048:11066  _mint(to, tokenId) */\n      jump\t// in\n    tag_283:\n        /* \"@openzeppelin/contracts@5.0.0/token/ERC721/ERC721.sol\":11076:11129  _checkOnERC721Received(address(0), to, tokenId, data) */\n      tag_126\n        /* \"@openzeppelin/contracts@5.0.0/token/ERC721/ERC721.sol\":11107:11108  0 */\n      0x00\n        /* \"@openzeppelin/contracts@5.0.0/token/ERC721/ERC721.sol\":11111:11113  to */\n      dup5\n        /* \"@openzeppelin/contracts@5.0.0/token/ERC721/ERC721.sol\":11115:11122  tokenId */\n      dup5\n        /* \"@openzeppelin/contracts@5.0.0/token/ERC721/ERC721.sol\":11124:11128  data */\n      dup5\n        /* \"@openzeppelin/contracts@5.0.0/token/ERC721/ERC721.sol\":11076:11098  _checkOnERC721Received */\n      tag_155\n        /* \"@openzeppelin/contracts@5.0.0/token/ERC721/ERC721.sol\":11076:11129  _checkOnERC721Received(address(0), to, tokenId, data) */\n      jump\t// in\n        /* \"@openzeppelin/contracts@5.0.0/token/ERC721/ERC721.sol\":6376:6648  function _isAuthorized(address owner, address spender, uint256 tokenId) internal view virtual returns (bool) {... */\n    tag_266:\n        /* \"@openzeppelin/contracts@5.0.0/token/ERC721/ERC721.sol\":6479:6483  bool */\n      0x00\n      sub(shl(0xa0, 0x01), 0x01)\n        /* \"@openzeppelin/contracts@5.0.0/token/ERC721/ERC721.sol\":6514:6535  spender != address(0) */\n      dup4\n      and\n      iszero\n      dup1\n      iszero\n      swap1\n        /* \"@openzeppelin/contracts@5.0.0/token/ERC721/ERC721.sol\":6514:6641  spender != address(0) &&... */\n      tag_239\n      jumpi\n      pop\n        /* \"@openzeppelin/contracts@5.0.0/token/ERC721/ERC721.sol\":6561:6568  spender */\n      dup3\n      sub(shl(0xa0, 0x01), 0x01)\n        /* \"@openzeppelin/contracts@5.0.0/token/ERC721/ERC721.sol\":6552:6568  owner == spender */\n      and\n        /* \"@openzeppelin/contracts@5.0.0/token/ERC721/ERC721.sol\":6552:6557  owner */\n      dup5\n      sub(shl(0xa0, 0x01), 0x01)\n        /* \"@openzeppelin/contracts@5.0.0/token/ERC721/ERC721.sol\":6552:6568  owner == spender */\n      and\n      eq\n        /* \"@openzeppelin/contracts@5.0.0/token/ERC721/ERC721.sol\":6552:6604  owner == spender || isApprovedForAll(owner, spender) */\n      dup1\n      tag_290\n      jumpi\n      pop\n        /* \"@openzeppelin/contracts@5.0.0/token/ERC721/ERC721.sol\":6572:6604  isApprovedForAll(owner, spender) */\n      tag_290\n        /* \"@openzeppelin/contracts@5.0.0/token/ERC721/ERC721.sol\":6589:6594  owner */\n      dup5\n        /* \"@openzeppelin/contracts@5.0.0/token/ERC721/ERC721.sol\":6596:6603  spender */\n      dup5\n        /* \"@openzeppelin/contracts@5.0.0/token/ERC721/ERC721.sol\":6572:6588  isApprovedForAll */\n      tag_91\n        /* \"@openzeppelin/contracts@5.0.0/token/ERC721/ERC721.sol\":6572:6604  isApprovedForAll(owner, spender) */\n      jump\t// in\n    tag_290:\n        /* \"@openzeppelin/contracts@5.0.0/token/ERC721/ERC721.sol\":6552:6640  owner == spender || isApprovedForAll(owner, spender) || _getApproved(tokenId) == spender */\n      dup1\n      tag_239\n      jumpi\n      pop\n      pop\n        /* \"@openzeppelin/contracts@5.0.0/token/ERC721/ERC721.sol\":6008:6015  address */\n      0x00\n        /* \"@openzeppelin/contracts@5.0.0/token/ERC721/ERC721.sol\":6034:6058  _tokenApprovals[tokenId] */\n      swap1\n      dup2\n      mstore\n        /* \"@openzeppelin/contracts@5.0.0/token/ERC721/ERC721.sol\":6034:6049  _tokenApprovals */\n      0x04\n        /* \"@openzeppelin/contracts@5.0.0/token/ERC721/ERC721.sol\":6034:6058  _tokenApprovals[tokenId] */\n      0x20\n      mstore\n      0x40\n      swap1\n      keccak256\n      sload\n      sub(shl(0xa0, 0x01), 0x01)\n      swap1\n      dup2\n      and\n        /* \"@openzeppelin/contracts@5.0.0/token/ERC721/ERC721.sol\":6608:6640  _getApproved(tokenId) == spender */\n      swap2\n      and\n      eq\n      swap2\n        /* \"@openzeppelin/contracts@5.0.0/token/ERC721/ERC721.sol\":6495:6641  return... */\n      swap1\n      pop\n        /* \"@openzeppelin/contracts@5.0.0/token/ERC721/ERC721.sol\":6376:6648  function _isAuthorized(address owner, address spender, uint256 tokenId) internal view virtual returns (bool) {... */\n      jump\t// out\n        /* \"@openzeppelin/contracts@5.0.0/utils/Strings.sol\":637:1335  function toString(uint256 value) internal pure returns (string memory) {... */\n    tag_280:\n        /* \"@openzeppelin/contracts@5.0.0/utils/Strings.sol\":693:706  string memory */\n      0x60\n        /* \"@openzeppelin/contracts@5.0.0/utils/Strings.sol\":742:756  uint256 length */\n      0x00\n        /* \"@openzeppelin/contracts@5.0.0/utils/Strings.sol\":759:776  Math.log10(value) */\n      tag_294\n        /* \"@openzeppelin/contracts@5.0.0/utils/Strings.sol\":770:775  value */\n      dup4\n        /* \"@openzeppelin/contracts@5.0.0/utils/Strings.sol\":759:769  Math.log10 */\n      tag_295\n        /* \"@openzeppelin/contracts@5.0.0/utils/Strings.sol\":759:776  Math.log10(value) */\n      jump\t// in\n    tag_294:\n        /* \"@openzeppelin/contracts@5.0.0/utils/Strings.sol\":779:780  1 */\n      0x01\n        /* \"@openzeppelin/contracts@5.0.0/utils/Strings.sol\":759:780  Math.log10(value) + 1 */\n      add\n        /* \"@openzeppelin/contracts@5.0.0/utils/Strings.sol\":742:780  uint256 length = Math.log10(value) + 1 */\n      swap1\n      pop\n        /* \"@openzeppelin/contracts@5.0.0/utils/Strings.sol\":794:814  string memory buffer */\n      0x00\n        /* \"@openzeppelin/contracts@5.0.0/utils/Strings.sol\":828:834  length */\n      dup2\n        /* \"@openzeppelin/contracts@5.0.0/utils/Strings.sol\":817:835  new string(length) */\n      0xffffffffffffffff\n      dup2\n      gt\n      iszero\n      tag_297\n      jumpi\n      tag_297\n      tag_298\n      jump\t// in\n    tag_297:\n      mload(0x40)\n      swap1\n      dup1\n      dup3\n      mstore\n      dup1\n      0x1f\n      add\n      not(0x1f)\n      and\n      0x20\n      add\n      dup3\n      add\n      0x40\n      mstore\n      dup1\n      iszero\n      tag_299\n      jumpi\n      0x20\n      dup3\n      add\n      dup2\n      dup1\n      calldatasize\n      dup4\n      calldatacopy\n      add\n      swap1\n      pop\n    tag_299:\n      pop\n        /* \"@openzeppelin/contracts@5.0.0/utils/Strings.sol\":794:835  string memory buffer = new string(length) */\n      swap1\n      pop\n        /* \"@openzeppelin/contracts@5.0.0/utils/Strings.sol\":955:983  add(buffer, add(32, length)) */\n      dup2\n      dup2\n      add\n        /* \"@openzeppelin/contracts@5.0.0/utils/Strings.sol\":971:973  32 */\n      0x20\n        /* \"@openzeppelin/contracts@5.0.0/utils/Strings.sol\":955:983  add(buffer, add(32, length)) */\n      add\n        /* \"@openzeppelin/contracts@5.0.0/utils/Strings.sol\":1010:1292  while (true) {... */\n    tag_300:\n      not(0x00)\n        /* \"@openzeppelin/contracts@5.0.0/utils/Strings.sol\":1041:1046  ptr-- */\n      add\n      shl(0x81, 0x181899199a1a9b1b9c1cb0b131b232b3)\n        /* \"@openzeppelin/contracts@5.0.0/utils/Strings.sol\":1175:1177  10 */\n      0x0a\n        /* \"@openzeppelin/contracts@5.0.0/utils/Strings.sol\":1164:1178  mod(value, 10) */\n      dup7\n      mod\n        /* \"@openzeppelin/contracts@5.0.0/utils/Strings.sol\":1159:1191  byte(mod(value, 10), HEX_DIGITS) */\n      byte\n        /* \"@openzeppelin/contracts@5.0.0/utils/Strings.sol\":1041:1046  ptr-- */\n      dup2\n        /* \"@openzeppelin/contracts@5.0.0/utils/Strings.sol\":1146:1192  mstore8(ptr, byte(mod(value, 10), HEX_DIGITS)) */\n      mstore8\n        /* \"@openzeppelin/contracts@5.0.0/utils/Strings.sol\":1236:1238  10 */\n      0x0a\n        /* \"@openzeppelin/contracts@5.0.0/utils/Strings.sol\":1227:1238  value /= 10 */\n      dup6\n      div\n      swap5\n      pop\n        /* \"@openzeppelin/contracts@5.0.0/utils/Strings.sol\":1256:1277  if (value == 0) break */\n      dup5\n        /* \"@openzeppelin/contracts@5.0.0/utils/Strings.sol\":1010:1292  while (true) {... */\n      tag_300\n        /* \"@openzeppelin/contracts@5.0.0/utils/Strings.sol\":1256:1277  if (value == 0) break */\n      jumpi\n      pop\n        /* \"@openzeppelin/contracts@5.0.0/utils/Strings.sol\":1312:1318  buffer */\n      swap4\n        /* \"@openzeppelin/contracts@5.0.0/utils/Strings.sol\":637:1335  function toString(uint256 value) internal pure returns (string memory) {... */\n      swap3\n      pop\n      pop\n      pop\n      jump\t// out\n        /* \"@openzeppelin/contracts@5.0.0/token/ERC721/ERC721.sol\":9955:10282  function _mint(address to, uint256 tokenId) internal {... */\n    tag_284:\n      sub(shl(0xa0, 0x01), 0x01)\n        /* \"@openzeppelin/contracts@5.0.0/token/ERC721/ERC721.sol\":10022:10038  to == address(0) */\n      dup3\n      and\n        /* \"@openzeppelin/contracts@5.0.0/token/ERC721/ERC721.sol\":10018:10105  if (to == address(0)) {... */\n      tag_307\n      jumpi\n        /* \"@openzeppelin/contracts@5.0.0/token/ERC721/ERC721.sol\":10061:10094  ERC721InvalidReceiver(address(0)) */\n      mload(0x40)\n      shl(0xe1, 0x32505749)\n      dup2\n      mstore\n        /* \"@openzeppelin/contracts@5.0.0/token/ERC721/ERC721.sol\":10091:10092  0 */\n      0x00\n        /* \"@openzeppelin/contracts@5.0.0/token/ERC721/ERC721.sol\":10061:10094  ERC721InvalidReceiver(address(0)) */\n      0x04\n      dup3\n      add\n        /* \"#utility.yul\":1510:1561   */\n      mstore\n        /* \"#utility.yul\":1483:1501   */\n      0x24\n      add\n        /* \"@openzeppelin/contracts@5.0.0/token/ERC721/ERC721.sol\":10061:10094  ERC721InvalidReceiver(address(0)) */\n      tag_118\n        /* \"#utility.yul\":1364:1567   */\n      jump\n        /* \"@openzeppelin/contracts@5.0.0/token/ERC721/ERC721.sol\":10018:10105  if (to == address(0)) {... */\n    tag_307:\n        /* \"@openzeppelin/contracts@5.0.0/token/ERC721/ERC721.sol\":10114:10135  address previousOwner */\n      0x00\n        /* \"@openzeppelin/contracts@5.0.0/token/ERC721/ERC721.sol\":10138:10170  _update(to, tokenId, address(0)) */\n      tag_309\n        /* \"@openzeppelin/contracts@5.0.0/token/ERC721/ERC721.sol\":10146:10148  to */\n      dup4\n        /* \"@openzeppelin/contracts@5.0.0/token/ERC721/ERC721.sol\":10150:10157  tokenId */\n      dup4\n        /* \"@openzeppelin/contracts@5.0.0/token/ERC721/ERC721.sol\":10167:10168  0 */\n      0x00\n        /* \"@openzeppelin/contracts@5.0.0/token/ERC721/ERC721.sol\":10138:10145  _update */\n      tag_121\n        /* \"@openzeppelin/contracts@5.0.0/token/ERC721/ERC721.sol\":10138:10170  _update(to, tokenId, address(0)) */\n      jump\t// in\n    tag_309:\n        /* \"@openzeppelin/contracts@5.0.0/token/ERC721/ERC721.sol\":10114:10170  address previousOwner = _update(to, tokenId, address(0)) */\n      swap1\n      pop\n      sub(shl(0xa0, 0x01), 0x01)\n        /* \"@openzeppelin/contracts@5.0.0/token/ERC721/ERC721.sol\":10184:10211  previousOwner != address(0) */\n      dup2\n      and\n      iszero\n        /* \"@openzeppelin/contracts@5.0.0/token/ERC721/ERC721.sol\":10180:10276  if (previousOwner != address(0)) {... */\n      tag_126\n      jumpi\n        /* \"@openzeppelin/contracts@5.0.0/token/ERC721/ERC721.sol\":10234:10265  ERC721InvalidSender(address(0)) */\n      mload(0x40)\n      shl(0xe1, 0x39e35637)\n      dup2\n      mstore\n        /* \"@openzeppelin/contracts@5.0.0/token/ERC721/ERC721.sol\":10262:10263  0 */\n      0x00\n        /* \"@openzeppelin/contracts@5.0.0/token/ERC721/ERC721.sol\":10234:10265  ERC721InvalidSender(address(0)) */\n      0x04\n      dup3\n      add\n        /* \"#utility.yul\":1510:1561   */\n      mstore\n        /* \"#utility.yul\":1483:1501   */\n      0x24\n      add\n        /* \"@openzeppelin/contracts@5.0.0/token/ERC721/ERC721.sol\":10234:10265  ERC721InvalidSender(address(0)) */\n      tag_118\n        /* \"#utility.yul\":1364:1567   */\n      jump\n        /* \"@openzeppelin/contracts@5.0.0/utils/math/Math.sol\":12214:13130  function log10(uint256 value) internal pure returns (uint256) {... */\n    tag_295:\n        /* \"@openzeppelin/contracts@5.0.0/utils/math/Math.sol\":12267:12274  uint256 */\n      0x00\n      dup1\n      shl(0x40, 0x184f03e93ff9f4daa797ed6e38ed64bf6a1f01)\n        /* \"@openzeppelin/contracts@5.0.0/utils/math/Math.sol\":12342:12359  value >= 10 ** 64 */\n      dup4\n      lt\n        /* \"@openzeppelin/contracts@5.0.0/utils/math/Math.sol\":12338:12441  if (value >= 10 ** 64) {... */\n      tag_313\n      jumpi\n      shl(0x40, 0x184f03e93ff9f4daa797ed6e38ed64bf6a1f01)\n        /* \"@openzeppelin/contracts@5.0.0/utils/math/Math.sol\":12379:12396  value /= 10 ** 64 */\n      dup4\n      div\n      swap3\n      pop\n        /* \"@openzeppelin/contracts@5.0.0/utils/math/Math.sol\":12424:12426  64 */\n      0x40\n        /* \"@openzeppelin/contracts@5.0.0/utils/math/Math.sol\":12414:12426  result += 64 */\n      add\n        /* \"@openzeppelin/contracts@5.0.0/utils/math/Math.sol\":12338:12441  if (value >= 10 ** 64) {... */\n    tag_313:\n        /* \"@openzeppelin/contracts@5.0.0/utils/math/Math.sol\":12467:12475  10 ** 32 */\n      0x04ee2d6d415b85acef8100000000\n        /* \"@openzeppelin/contracts@5.0.0/utils/math/Math.sol\":12458:12463  value */\n      dup4\n        /* \"@openzeppelin/contracts@5.0.0/utils/math/Math.sol\":12458:12475  value >= 10 ** 32 */\n      lt\n        /* \"@openzeppelin/contracts@5.0.0/utils/math/Math.sol\":12454:12557  if (value >= 10 ** 32) {... */\n      tag_316\n      jumpi\n        /* \"@openzeppelin/contracts@5.0.0/utils/math/Math.sol\":12504:12512  10 ** 32 */\n      0x04ee2d6d415b85acef8100000000\n        /* \"@openzeppelin/contracts@5.0.0/utils/math/Math.sol\":12495:12512  value /= 10 ** 32 */\n      dup4\n      div\n      swap3\n      pop\n        /* \"@openzeppelin/contracts@5.0.0/utils/math/Math.sol\":12540:12542  32 */\n      0x20\n        /* \"@openzeppelin/contracts@5.0.0/utils/math/Math.sol\":12530:12542  result += 32 */\n      add\n        /* \"@openzeppelin/contracts@5.0.0/utils/math/Math.sol\":12454:12557  if (value >= 10 ** 32) {... */\n    tag_316:\n        /* \"@openzeppelin/contracts@5.0.0/utils/math/Math.sol\":12583:12591  10 ** 16 */\n      0x2386f26fc10000\n        /* \"@openzeppelin/contracts@5.0.0/utils/math/Math.sol\":12574:12579  value */\n      dup4\n        /* \"@openzeppelin/contracts@5.0.0/utils/math/Math.sol\":12574:12591  value >= 10 ** 16 */\n      lt\n        /* \"@openzeppelin/contracts@5.0.0/utils/math/Math.sol\":12570:12673  if (value >= 10 ** 16) {... */\n      tag_319\n      jumpi\n        /* \"@openzeppelin/contracts@5.0.0/utils/math/Math.sol\":12620:12628  10 ** 16 */\n      0x2386f26fc10000\n        /* \"@openzeppelin/contracts@5.0.0/utils/math/Math.sol\":12611:12628  value /= 10 ** 16 */\n      dup4\n      div\n      swap3\n      pop\n        /* \"@openzeppelin/contracts@5.0.0/utils/math/Math.sol\":12656:12658  16 */\n      0x10\n        /* \"@openzeppelin/contracts@5.0.0/utils/math/Math.sol\":12646:12658  result += 16 */\n      add\n        /* \"@openzeppelin/contracts@5.0.0/utils/math/Math.sol\":12570:12673  if (value >= 10 ** 16) {... */\n    tag_319:\n        /* \"@openzeppelin/contracts@5.0.0/utils/math/Math.sol\":12699:12706  10 ** 8 */\n      0x05f5e100\n        /* \"@openzeppelin/contracts@5.0.0/utils/math/Math.sol\":12690:12695  value */\n      dup4\n        /* \"@openzeppelin/contracts@5.0.0/utils/math/Math.sol\":12690:12706  value >= 10 ** 8 */\n      lt\n        /* \"@openzeppelin/contracts@5.0.0/utils/math/Math.sol\":12686:12786  if (value >= 10 ** 8) {... */\n      tag_322\n      jumpi\n        /* \"@openzeppelin/contracts@5.0.0/utils/math/Math.sol\":12735:12742  10 ** 8 */\n      0x05f5e100\n        /* \"@openzeppelin/contracts@5.0.0/utils/math/Math.sol\":12726:12742  value /= 10 ** 8 */\n      dup4\n      div\n      swap3\n      pop\n        /* \"@openzeppelin/contracts@5.0.0/utils/math/Math.sol\":12770:12771  8 */\n      0x08\n        /* \"@openzeppelin/contracts@5.0.0/utils/math/Math.sol\":12760:12771  result += 8 */\n      add\n        /* \"@openzeppelin/contracts@5.0.0/utils/math/Math.sol\":12686:12786  if (value >= 10 ** 8) {... */\n    tag_322:\n        /* \"@openzeppelin/contracts@5.0.0/utils/math/Math.sol\":12812:12819  10 ** 4 */\n      0x2710\n        /* \"@openzeppelin/contracts@5.0.0/utils/math/Math.sol\":12803:12808  value */\n      dup4\n        /* \"@openzeppelin/contracts@5.0.0/utils/math/Math.sol\":12803:12819  value >= 10 ** 4 */\n      lt\n        /* \"@openzeppelin/contracts@5.0.0/utils/math/Math.sol\":12799:12899  if (value >= 10 ** 4) {... */\n      tag_325\n      jumpi\n        /* \"@openzeppelin/contracts@5.0.0/utils/math/Math.sol\":12848:12855  10 ** 4 */\n      0x2710\n        /* \"@openzeppelin/contracts@5.0.0/utils/math/Math.sol\":12839:12855  value /= 10 ** 4 */\n      dup4\n      div\n      swap3\n      pop\n        /* \"@openzeppelin/contracts@5.0.0/utils/math/Math.sol\":12883:12884  4 */\n      0x04\n        /* \"@openzeppelin/contracts@5.0.0/utils/math/Math.sol\":12873:12884  result += 4 */\n      add\n        /* \"@openzeppelin/contracts@5.0.0/utils/math/Math.sol\":12799:12899  if (value >= 10 ** 4) {... */\n    tag_325:\n        /* \"@openzeppelin/contracts@5.0.0/utils/math/Math.sol\":12925:12932  10 ** 2 */\n      0x64\n        /* \"@openzeppelin/contracts@5.0.0/utils/math/Math.sol\":12916:12921  value */\n      dup4\n        /* \"@openzeppelin/contracts@5.0.0/utils/math/Math.sol\":12916:12932  value >= 10 ** 2 */\n      lt\n        /* \"@openzeppelin/contracts@5.0.0/utils/math/Math.sol\":12912:13012  if (value >= 10 ** 2) {... */\n      tag_328\n      jumpi\n        /* \"@openzeppelin/contracts@5.0.0/utils/math/Math.sol\":12961:12968  10 ** 2 */\n      0x64\n        /* \"@openzeppelin/contracts@5.0.0/utils/math/Math.sol\":12952:12968  value /= 10 ** 2 */\n      dup4\n      div\n      swap3\n      pop\n        /* \"@openzeppelin/contracts@5.0.0/utils/math/Math.sol\":12996:12997  2 */\n      0x02\n        /* \"@openzeppelin/contracts@5.0.0/utils/math/Math.sol\":12986:12997  result += 2 */\n      add\n        /* \"@openzeppelin/contracts@5.0.0/utils/math/Math.sol\":12912:13012  if (value >= 10 ** 2) {... */\n    tag_328:\n        /* \"@openzeppelin/contracts@5.0.0/utils/math/Math.sol\":13038:13045  10 ** 1 */\n      0x0a\n        /* \"@openzeppelin/contracts@5.0.0/utils/math/Math.sol\":13029:13034  value */\n      dup4\n        /* \"@openzeppelin/contracts@5.0.0/utils/math/Math.sol\":13029:13045  value >= 10 ** 1 */\n      lt\n        /* \"@openzeppelin/contracts@5.0.0/utils/math/Math.sol\":13025:13091  if (value >= 10 ** 1) {... */\n      tag_97\n      jumpi\n        /* \"@openzeppelin/contracts@5.0.0/utils/math/Math.sol\":13075:13076  1 */\n      0x01\n        /* \"@openzeppelin/contracts@5.0.0/utils/math/Math.sol\":13065:13076  result += 1 */\n      add\n        /* \"@openzeppelin/contracts@5.0.0/utils/math/Math.sol\":13117:13123  result */\n      swap3\n        /* \"@openzeppelin/contracts@5.0.0/utils/math/Math.sol\":12214:13130  function log10(uint256 value) internal pure returns (uint256) {... */\n      swap2\n      pop\n      pop\n      jump\t// out\n        /* \"#utility.yul\":14:145   */\n    tag_332:\n      not(sub(shl(0xe0, 0x01), 0x01))\n        /* \"#utility.yul\":88:120   */\n      dup2\n      and\n        /* \"#utility.yul\":78:121   */\n      dup2\n      eq\n        /* \"#utility.yul\":68:139   */\n      tag_172\n      jumpi\n        /* \"#utility.yul\":135:136   */\n      0x00\n        /* \"#utility.yul\":132:133   */\n      0x00\n        /* \"#utility.yul\":125:137   */\n      revert\n        /* \"#utility.yul\":150:395   */\n    tag_26:\n        /* \"#utility.yul\":208:214   */\n      0x00\n        /* \"#utility.yul\":261:263   */\n      0x20\n        /* \"#utility.yul\":249:258   */\n      dup3\n        /* \"#utility.yul\":240:247   */\n      dup5\n        /* \"#utility.yul\":236:259   */\n      sub\n        /* \"#utility.yul\":232:264   */\n      slt\n        /* \"#utility.yul\":229:281   */\n      iszero\n      tag_344\n      jumpi\n        /* \"#utility.yul\":277:278   */\n      0x00\n        /* \"#utility.yul\":274:275   */\n      0x00\n        /* \"#utility.yul\":267:279   */\n      revert\n        /* \"#utility.yul\":229:281   */\n    tag_344:\n        /* \"#utility.yul\":316:325   */\n      dup2\n        /* \"#utility.yul\":303:326   */\n      calldataload\n        /* \"#utility.yul\":335:365   */\n      tag_278\n        /* \"#utility.yul\":359:364   */\n      dup2\n        /* \"#utility.yul\":335:365   */\n      tag_332\n      jump\t// in\n        /* \"#utility.yul\":592:892   */\n    tag_333:\n        /* \"#utility.yul\":645:648   */\n      0x00\n        /* \"#utility.yul\":683:688   */\n      dup2\n        /* \"#utility.yul\":677:689   */\n      mload\n        /* \"#utility.yul\":710:716   */\n      dup1\n        /* \"#utility.yul\":705:708   */\n      dup5\n        /* \"#utility.yul\":698:717   */\n      mstore\n        /* \"#utility.yul\":766:772   */\n      dup1\n        /* \"#utility.yul\":759:763   */\n      0x20\n        /* \"#utility.yul\":752:757   */\n      dup5\n        /* \"#utility.yul\":748:764   */\n      add\n        /* \"#utility.yul\":741:745   */\n      0x20\n        /* \"#utility.yul\":736:739   */\n      dup7\n        /* \"#utility.yul\":732:746   */\n      add\n        /* \"#utility.yul\":726:773   */\n      mcopy\n        /* \"#utility.yul\":818:819   */\n      0x00\n        /* \"#utility.yul\":811:815   */\n      0x20\n        /* \"#utility.yul\":802:808   */\n      dup3\n        /* \"#utility.yul\":797:800   */\n      dup7\n        /* \"#utility.yul\":793:809   */\n      add\n        /* \"#utility.yul\":789:816   */\n      add\n        /* \"#utility.yul\":782:820   */\n      mstore\n        /* \"#utility.yul\":881:885   */\n      0x20\n        /* \"#utility.yul\":874:876   */\n      0x1f\n        /* \"#utility.yul\":870:877   */\n      not\n        /* \"#utility.yul\":865:867   */\n      0x1f\n        /* \"#utility.yul\":857:863   */\n      dup4\n        /* \"#utility.yul\":853:868   */\n      add\n        /* \"#utility.yul\":849:878   */\n      and\n        /* \"#utility.yul\":844:847   */\n      dup6\n        /* \"#utility.yul\":840:879   */\n      add\n        /* \"#utility.yul\":836:886   */\n      add\n        /* \"#utility.yul\":829:886   */\n      swap2\n      pop\n      pop\n        /* \"#utility.yul\":592:892   */\n      swap3\n      swap2\n      pop\n      pop\n      jump\t// out\n        /* \"#utility.yul\":897:1128   */\n    tag_33:\n        /* \"#utility.yul\":1046:1048   */\n      0x20\n        /* \"#utility.yul\":1035:1044   */\n      dup2\n        /* \"#utility.yul\":1028:1049   */\n      mstore\n        /* \"#utility.yul\":1009:1013   */\n      0x00\n        /* \"#utility.yul\":1066:1122   */\n      tag_278\n        /* \"#utility.yul\":1118:1120   */\n      0x20\n        /* \"#utility.yul\":1107:1116   */\n      dup4\n        /* \"#utility.yul\":1103:1121   */\n      add\n        /* \"#utility.yul\":1095:1101   */\n      dup5\n        /* \"#utility.yul\":1066:1122   */\n      tag_333\n      jump\t// in\n        /* \"#utility.yul\":1133:1359   */\n    tag_36:\n        /* \"#utility.yul\":1192:1198   */\n      0x00\n        /* \"#utility.yul\":1245:1247   */\n      0x20\n        /* \"#utility.yul\":1233:1242   */\n      dup3\n        /* \"#utility.yul\":1224:1231   */\n      dup5\n        /* \"#utility.yul\":1220:1243   */\n      sub\n        /* \"#utility.yul\":1216:1248   */\n      slt\n        /* \"#utility.yul\":1213:1265   */\n      iszero\n      tag_351\n      jumpi\n        /* \"#utility.yul\":1261:1262   */\n      0x00\n        /* \"#utility.yul\":1258:1259   */\n      0x00\n        /* \"#utility.yul\":1251:1263   */\n      revert\n        /* \"#utility.yul\":1213:1265   */\n    tag_351:\n      pop\n        /* \"#utility.yul\":1306:1329   */\n      calldataload\n      swap2\n        /* \"#utility.yul\":1133:1359   */\n      swap1\n      pop\n      jump\t// out\n        /* \"#utility.yul\":1572:1745   */\n    tag_334:\n        /* \"#utility.yul\":1640:1660   */\n      dup1\n      calldataload\n      sub(shl(0xa0, 0x01), 0x01)\n        /* \"#utility.yul\":1689:1720   */\n      dup2\n      and\n        /* \"#utility.yul\":1679:1721   */\n      dup2\n      eq\n        /* \"#utility.yul\":1669:1739   */\n      tag_354\n      jumpi\n        /* \"#utility.yul\":1735:1736   */\n      0x00\n        /* \"#utility.yul\":1732:1733   */\n      0x00\n        /* \"#utility.yul\":1725:1737   */\n      revert\n        /* \"#utility.yul\":1669:1739   */\n    tag_354:\n        /* \"#utility.yul\":1572:1745   */\n      swap2\n      swap1\n      pop\n      jump\t// out\n        /* \"#utility.yul\":1750:2050   */\n    tag_42:\n        /* \"#utility.yul\":1818:1824   */\n      0x00\n        /* \"#utility.yul\":1826:1832   */\n      0x00\n        /* \"#utility.yul\":1879:1881   */\n      0x40\n        /* \"#utility.yul\":1867:1876   */\n      dup4\n        /* \"#utility.yul\":1858:1865   */\n      dup6\n        /* \"#utility.yul\":1854:1877   */\n      sub\n        /* \"#utility.yul\":1850:1882   */\n      slt\n        /* \"#utility.yul\":1847:1899   */\n      iszero\n      tag_356\n      jumpi\n        /* \"#utility.yul\":1895:1896   */\n      0x00\n        /* \"#utility.yul\":1892:1893   */\n      0x00\n        /* \"#utility.yul\":1885:1897   */\n      revert\n        /* \"#utility.yul\":1847:1899   */\n    tag_356:\n        /* \"#utility.yul\":1918:1947   */\n      tag_357\n        /* \"#utility.yul\":1937:1946   */\n      dup4\n        /* \"#utility.yul\":1918:1947   */\n      tag_334\n      jump\t// in\n    tag_357:\n        /* \"#utility.yul\":1908:1947   */\n      swap5\n        /* \"#utility.yul\":2016:2018   */\n      0x20\n        /* \"#utility.yul\":2001:2019   */\n      swap4\n      swap1\n      swap4\n      add\n        /* \"#utility.yul\":1988:2020   */\n      calldataload\n      swap4\n      pop\n      pop\n      pop\n        /* \"#utility.yul\":1750:2050   */\n      jump\t// out\n        /* \"#utility.yul\":2055:2429   */\n    tag_46:\n        /* \"#utility.yul\":2132:2138   */\n      0x00\n        /* \"#utility.yul\":2140:2146   */\n      0x00\n        /* \"#utility.yul\":2148:2154   */\n      0x00\n        /* \"#utility.yul\":2201:2203   */\n      0x60\n        /* \"#utility.yul\":2189:2198   */\n      dup5\n        /* \"#utility.yul\":2180:2187   */\n      dup7\n        /* \"#utility.yul\":2176:2199   */\n      sub\n        /* \"#utility.yul\":2172:2204   */\n      slt\n        /* \"#utility.yul\":2169:2221   */\n      iszero\n      tag_359\n      jumpi\n        /* \"#utility.yul\":2217:2218   */\n      0x00\n        /* \"#utility.yul\":2214:2215   */\n      0x00\n        /* \"#utility.yul\":2207:2219   */\n      revert\n        /* \"#utility.yul\":2169:2221   */\n    tag_359:\n        /* \"#utility.yul\":2240:2269   */\n      tag_360\n        /* \"#utility.yul\":2259:2268   */\n      dup5\n        /* \"#utility.yul\":2240:2269   */\n      tag_334\n      jump\t// in\n    tag_360:\n        /* \"#utility.yul\":2230:2269   */\n      swap3\n      pop\n        /* \"#utility.yul\":2288:2326   */\n      tag_361\n        /* \"#utility.yul\":2322:2324   */\n      0x20\n        /* \"#utility.yul\":2311:2320   */\n      dup6\n        /* \"#utility.yul\":2307:2325   */\n      add\n        /* \"#utility.yul\":2288:2326   */\n      tag_334\n      jump\t// in\n    tag_361:\n        /* \"#utility.yul\":2055:2429   */\n      swap3\n      swap6\n        /* \"#utility.yul\":2278:2326   */\n      swap3\n      swap5\n      pop\n      pop\n      pop\n        /* \"#utility.yul\":2395:2397   */\n      0x40\n        /* \"#utility.yul\":2380:2398   */\n      swap2\n      swap1\n      swap2\n      add\n        /* \"#utility.yul\":2367:2399   */\n      calldataload\n      swap1\n        /* \"#utility.yul\":2055:2429   */\n      jump\t// out\n        /* \"#utility.yul\":2434:2620   */\n    tag_60:\n        /* \"#utility.yul\":2493:2499   */\n      0x00\n        /* \"#utility.yul\":2546:2548   */\n      0x20\n        /* \"#utility.yul\":2534:2543   */\n      dup3\n        /* \"#utility.yul\":2525:2532   */\n      dup5\n        /* \"#utility.yul\":2521:2544   */\n      sub\n        /* \"#utility.yul\":2517:2549   */\n      slt\n        /* \"#utility.yul\":2514:2566   */\n      iszero\n      tag_363\n      jumpi\n        /* \"#utility.yul\":2562:2563   */\n      0x00\n        /* \"#utility.yul\":2559:2560   */\n      0x00\n        /* \"#utility.yul\":2552:2564   */\n      revert\n        /* \"#utility.yul\":2514:2566   */\n    tag_363:\n        /* \"#utility.yul\":2585:2614   */\n      tag_278\n        /* \"#utility.yul\":2604:2613   */\n      dup3\n        /* \"#utility.yul\":2585:2614   */\n      tag_334\n      jump\t// in\n        /* \"#utility.yul\":2807:3154   */\n    tag_74:\n        /* \"#utility.yul\":2872:2878   */\n      0x00\n        /* \"#utility.yul\":2880:2886   */\n      0x00\n        /* \"#utility.yul\":2933:2935   */\n      0x40\n        /* \"#utility.yul\":2921:2930   */\n      dup4\n        /* \"#utility.yul\":2912:2919   */\n      dup6\n        /* \"#utility.yul\":2908:2931   */\n      sub\n        /* \"#utility.yul\":2904:2936   */\n      slt\n        /* \"#utility.yul\":2901:2953   */\n      iszero\n      tag_367\n      jumpi\n        /* \"#utility.yul\":2949:2950   */\n      0x00\n        /* \"#utility.yul\":2946:2947   */\n      0x00\n        /* \"#utility.yul\":2939:2951   */\n      revert\n        /* \"#utility.yul\":2901:2953   */\n    tag_367:\n        /* \"#utility.yul\":2972:3001   */\n      tag_368\n        /* \"#utility.yul\":2991:3000   */\n      dup4\n        /* \"#utility.yul\":2972:3001   */\n      tag_334\n      jump\t// in\n    tag_368:\n        /* \"#utility.yul\":2962:3001   */\n      swap2\n      pop\n        /* \"#utility.yul\":3051:3053   */\n      0x20\n        /* \"#utility.yul\":3040:3049   */\n      dup4\n        /* \"#utility.yul\":3036:3054   */\n      add\n        /* \"#utility.yul\":3023:3055   */\n      calldataload\n        /* \"#utility.yul\":3098:3103   */\n      dup1\n        /* \"#utility.yul\":3091:3104   */\n      iszero\n        /* \"#utility.yul\":3084:3105   */\n      iszero\n        /* \"#utility.yul\":3077:3082   */\n      dup2\n        /* \"#utility.yul\":3074:3106   */\n      eq\n        /* \"#utility.yul\":3064:3124   */\n      tag_369\n      jumpi\n        /* \"#utility.yul\":3120:3121   */\n      0x00\n        /* \"#utility.yul\":3117:3118   */\n      0x00\n        /* \"#utility.yul\":3110:3122   */\n      revert\n        /* \"#utility.yul\":3064:3124   */\n    tag_369:\n        /* \"#utility.yul\":3143:3148   */\n      dup1\n        /* \"#utility.yul\":3133:3148   */\n      swap2\n      pop\n      pop\n        /* \"#utility.yul\":2807:3154   */\n      swap3\n      pop\n      swap3\n      swap1\n      pop\n      jump\t// out\n        /* \"#utility.yul\":3159:3286   */\n    tag_298:\n        /* \"#utility.yul\":3220:3230   */\n      0x4e487b71\n        /* \"#utility.yul\":3215:3218   */\n      0xe0\n        /* \"#utility.yul\":3211:3231   */\n      shl\n        /* \"#utility.yul\":3208:3209   */\n      0x00\n        /* \"#utility.yul\":3201:3232   */\n      mstore\n        /* \"#utility.yul\":3251:3255   */\n      0x41\n        /* \"#utility.yul\":3248:3249   */\n      0x04\n        /* \"#utility.yul\":3241:3256   */\n      mstore\n        /* \"#utility.yul\":3275:3279   */\n      0x24\n        /* \"#utility.yul\":3272:3273   */\n      0x00\n        /* \"#utility.yul\":3265:3280   */\n      revert\n        /* \"#utility.yul\":3291:4006   */\n    tag_335:\n        /* \"#utility.yul\":3355:3360   */\n      0x00\n        /* \"#utility.yul\":3387:3388   */\n      0x00\n        /* \"#utility.yul\":3411:3429   */\n      0xffffffffffffffff\n        /* \"#utility.yul\":3403:3409   */\n      dup5\n        /* \"#utility.yul\":3400:3430   */\n      gt\n        /* \"#utility.yul\":3397:3453   */\n      iszero\n      tag_373\n      jumpi\n        /* \"#utility.yul\":3433:3451   */\n      tag_373\n      tag_298\n      jump\t// in\n    tag_373:\n      pop\n        /* \"#utility.yul\":3588:3590   */\n      0x40\n        /* \"#utility.yul\":3582:3591   */\n      mload\n      not(0x1f)\n        /* \"#utility.yul\":3501:3503   */\n      0x1f\n        /* \"#utility.yul\":3480:3495   */\n      dup6\n      add\n        /* \"#utility.yul\":3476:3505   */\n      dup2\n      and\n        /* \"#utility.yul\":3646:3648   */\n      0x3f\n        /* \"#utility.yul\":3634:3649   */\n      add\n        /* \"#utility.yul\":3630:3659   */\n      and\n        /* \"#utility.yul\":3618:3660   */\n      dup2\n      add\n        /* \"#utility.yul\":3711:3733   */\n      dup2\n      dup2\n      lt\n        /* \"#utility.yul\":3690:3708   */\n      0xffffffffffffffff\n        /* \"#utility.yul\":3675:3709   */\n      dup3\n      gt\n        /* \"#utility.yul\":3672:3734   */\n      or\n        /* \"#utility.yul\":3669:3757   */\n      iszero\n      tag_375\n      jumpi\n        /* \"#utility.yul\":3737:3755   */\n      tag_375\n      tag_298\n      jump\t// in\n    tag_375:\n        /* \"#utility.yul\":3773:3775   */\n      0x40\n        /* \"#utility.yul\":3766:3788   */\n      mstore\n        /* \"#utility.yul\":3821:3843   */\n      dup4\n      dup2\n      mstore\n        /* \"#utility.yul\":3806:3812   */\n      swap1\n      pop\n      dup1\n        /* \"#utility.yul\":3858:3874   */\n      dup3\n      dup5\n      add\n        /* \"#utility.yul\":3855:3880   */\n      dup6\n      lt\n        /* \"#utility.yul\":3852:3897   */\n      iszero\n      tag_376\n      jumpi\n        /* \"#utility.yul\":3893:3894   */\n      0x00\n        /* \"#utility.yul\":3890:3891   */\n      0x00\n        /* \"#utility.yul\":3883:3895   */\n      revert\n        /* \"#utility.yul\":3852:3897   */\n    tag_376:\n        /* \"#utility.yul\":3943:3949   */\n      dup4\n        /* \"#utility.yul\":3938:3941   */\n      dup4\n        /* \"#utility.yul\":3931:3935   */\n      0x20\n        /* \"#utility.yul\":3923:3929   */\n      dup4\n        /* \"#utility.yul\":3919:3936   */\n      add\n        /* \"#utility.yul\":3906:3950   */\n      calldatacopy\n        /* \"#utility.yul\":3998:3999   */\n      0x00\n        /* \"#utility.yul\":3991:3995   */\n      0x20\n        /* \"#utility.yul\":3982:3988   */\n      dup6\n        /* \"#utility.yul\":3974:3980   */\n      dup4\n        /* \"#utility.yul\":3970:3989   */\n      add\n        /* \"#utility.yul\":3966:3996   */\n      add\n        /* \"#utility.yul\":3959:4000   */\n      mstore\n      pop\n        /* \"#utility.yul\":3291:4006   */\n      swap4\n      swap3\n      pop\n      pop\n      pop\n      jump\t// out\n        /* \"#utility.yul\":4011:4723   */\n    tag_78:\n        /* \"#utility.yul\":4106:4112   */\n      0x00\n        /* \"#utility.yul\":4114:4120   */\n      0x00\n        /* \"#utility.yul\":4122:4128   */\n      0x00\n        /* \"#utility.yul\":4130:4136   */\n      0x00\n        /* \"#utility.yul\":4183:4186   */\n      0x80\n        /* \"#utility.yul\":4171:4180   */\n      dup6\n        /* \"#utility.yul\":4162:4169   */\n      dup8\n        /* \"#utility.yul\":4158:4181   */\n      sub\n        /* \"#utility.yul\":4154:4187   */\n      slt\n        /* \"#utility.yul\":4151:4204   */\n      iszero\n      tag_378\n      jumpi\n        /* \"#utility.yul\":4200:4201   */\n      0x00\n        /* \"#utility.yul\":4197:4198   */\n      0x00\n        /* \"#utility.yul\":4190:4202   */\n      revert\n        /* \"#utility.yul\":4151:4204   */\n    tag_378:\n        /* \"#utility.yul\":4223:4252   */\n      tag_379\n        /* \"#utility.yul\":4242:4251   */\n      dup6\n        /* \"#utility.yul\":4223:4252   */\n      tag_334\n      jump\t// in\n    tag_379:\n        /* \"#utility.yul\":4213:4252   */\n      swap4\n      pop\n        /* \"#utility.yul\":4271:4309   */\n      tag_380\n        /* \"#utility.yul\":4305:4307   */\n      0x20\n        /* \"#utility.yul\":4294:4303   */\n      dup7\n        /* \"#utility.yul\":4290:4308   */\n      add\n        /* \"#utility.yul\":4271:4309   */\n      tag_334\n      jump\t// in\n    tag_380:\n        /* \"#utility.yul\":4261:4309   */\n      swap3\n      pop\n        /* \"#utility.yul\":4378:4380   */\n      0x40\n        /* \"#utility.yul\":4363:4381   */\n      dup6\n      add\n        /* \"#utility.yul\":4350:4382   */\n      calldataload\n      swap2\n      pop\n        /* \"#utility.yul\":4457:4459   */\n      0x60\n        /* \"#utility.yul\":4442:4460   */\n      dup6\n      add\n        /* \"#utility.yul\":4429:4461   */\n      calldataload\n        /* \"#utility.yul\":4484:4502   */\n      0xffffffffffffffff\n        /* \"#utility.yul\":4473:4503   */\n      dup2\n      gt\n        /* \"#utility.yul\":4470:4520   */\n      iszero\n      tag_381\n      jumpi\n        /* \"#utility.yul\":4516:4517   */\n      0x00\n        /* \"#utility.yul\":4513:4514   */\n      0x00\n        /* \"#utility.yul\":4506:4518   */\n      revert\n        /* \"#utility.yul\":4470:4520   */\n    tag_381:\n        /* \"#utility.yul\":4539:4561   */\n      dup6\n      add\n        /* \"#utility.yul\":4592:4596   */\n      0x1f\n        /* \"#utility.yul\":4584:4597   */\n      dup2\n      add\n        /* \"#utility.yul\":4580:4607   */\n      dup8\n      sgt\n        /* \"#utility.yul\":4570:4625   */\n      tag_382\n      jumpi\n        /* \"#utility.yul\":4621:4622   */\n      0x00\n        /* \"#utility.yul\":4618:4619   */\n      0x00\n        /* \"#utility.yul\":4611:4623   */\n      revert\n        /* \"#utility.yul\":4570:4625   */\n    tag_382:\n        /* \"#utility.yul\":4644:4717   */\n      tag_383\n        /* \"#utility.yul\":4709:4716   */\n      dup8\n        /* \"#utility.yul\":4704:4706   */\n      dup3\n        /* \"#utility.yul\":4691:4707   */\n      calldataload\n        /* \"#utility.yul\":4686:4688   */\n      0x20\n        /* \"#utility.yul\":4682:4684   */\n      dup5\n        /* \"#utility.yul\":4678:4689   */\n      add\n        /* \"#utility.yul\":4644:4717   */\n      tag_335\n      jump\t// in\n    tag_383:\n        /* \"#utility.yul\":4634:4717   */\n      swap2\n      pop\n      pop\n        /* \"#utility.yul\":4011:4723   */\n      swap3\n      swap6\n      swap2\n      swap5\n      pop\n      swap3\n      pop\n      jump\t// out\n        /* \"#utility.yul\":4728:5366   */\n    tag_86:\n        /* \"#utility.yul\":4815:4821   */\n      0x00\n        /* \"#utility.yul\":4823:4829   */\n      0x00\n        /* \"#utility.yul\":4831:4837   */\n      0x00\n        /* \"#utility.yul\":4884:4886   */\n      0x60\n        /* \"#utility.yul\":4872:4881   */\n      dup5\n        /* \"#utility.yul\":4863:4870   */\n      dup7\n        /* \"#utility.yul\":4859:4882   */\n      sub\n        /* \"#utility.yul\":4855:4887   */\n      slt\n        /* \"#utility.yul\":4852:4904   */\n      iszero\n      tag_385\n      jumpi\n        /* \"#utility.yul\":4900:4901   */\n      0x00\n        /* \"#utility.yul\":4897:4898   */\n      0x00\n        /* \"#utility.yul\":4890:4902   */\n      revert\n        /* \"#utility.yul\":4852:4904   */\n    tag_385:\n        /* \"#utility.yul\":4923:4952   */\n      tag_386\n        /* \"#utility.yul\":4942:4951   */\n      dup5\n        /* \"#utility.yul\":4923:4952   */\n      tag_334\n      jump\t// in\n    tag_386:\n        /* \"#utility.yul\":4913:4952   */\n      swap3\n      pop\n        /* \"#utility.yul\":5021:5023   */\n      0x20\n        /* \"#utility.yul\":5006:5024   */\n      dup5\n      add\n        /* \"#utility.yul\":4993:5025   */\n      calldataload\n      swap2\n      pop\n        /* \"#utility.yul\":5100:5102   */\n      0x40\n        /* \"#utility.yul\":5085:5103   */\n      dup5\n      add\n        /* \"#utility.yul\":5072:5104   */\n      calldataload\n        /* \"#utility.yul\":5127:5145   */\n      0xffffffffffffffff\n        /* \"#utility.yul\":5116:5146   */\n      dup2\n      gt\n        /* \"#utility.yul\":5113:5163   */\n      iszero\n      tag_387\n      jumpi\n        /* \"#utility.yul\":5159:5160   */\n      0x00\n        /* \"#utility.yul\":5156:5157   */\n      0x00\n        /* \"#utility.yul\":5149:5161   */\n      revert\n        /* \"#utility.yul\":5113:5163   */\n    tag_387:\n        /* \"#utility.yul\":5182:5204   */\n      dup5\n      add\n        /* \"#utility.yul\":5235:5239   */\n      0x1f\n        /* \"#utility.yul\":5227:5240   */\n      dup2\n      add\n        /* \"#utility.yul\":5223:5250   */\n      dup7\n      sgt\n        /* \"#utility.yul\":5213:5268   */\n      tag_388\n      jumpi\n        /* \"#utility.yul\":5264:5265   */\n      0x00\n        /* \"#utility.yul\":5261:5262   */\n      0x00\n        /* \"#utility.yul\":5254:5266   */\n      revert\n        /* \"#utility.yul\":5213:5268   */\n    tag_388:\n        /* \"#utility.yul\":5287:5360   */\n      tag_389\n        /* \"#utility.yul\":5352:5359   */\n      dup7\n        /* \"#utility.yul\":5347:5349   */\n      dup3\n        /* \"#utility.yul\":5334:5350   */\n      calldataload\n        /* \"#utility.yul\":5329:5331   */\n      0x20\n        /* \"#utility.yul\":5325:5327   */\n      dup5\n        /* \"#utility.yul\":5321:5332   */\n      add\n        /* \"#utility.yul\":5287:5360   */\n      tag_335\n      jump\t// in\n    tag_389:\n        /* \"#utility.yul\":5277:5360   */\n      swap2\n      pop\n      pop\n        /* \"#utility.yul\":4728:5366   */\n      swap3\n      pop\n      swap3\n      pop\n      swap3\n      jump\t// out\n        /* \"#utility.yul\":5371:5631   */\n    tag_90:\n        /* \"#utility.yul\":5439:5445   */\n      0x00\n        /* \"#utility.yul\":5447:5453   */\n      0x00\n        /* \"#utility.yul\":5500:5502   */\n      0x40\n        /* \"#utility.yul\":5488:5497   */\n      dup4\n        /* \"#utility.yul\":5479:5486   */\n      dup6\n        /* \"#utility.yul\":5475:5498   */\n      sub\n        /* \"#utility.yul\":5471:5503   */\n      slt\n        /* \"#utility.yul\":5468:5520   */\n      iszero\n      tag_391\n      jumpi\n        /* \"#utility.yul\":5516:5517   */\n      0x00\n        /* \"#utility.yul\":5513:5514   */\n      0x00\n        /* \"#utility.yul\":5506:5518   */\n      revert\n        /* \"#utility.yul\":5468:5520   */\n    tag_391:\n        /* \"#utility.yul\":5539:5568   */\n      tag_392\n        /* \"#utility.yul\":5558:5567   */\n      dup4\n        /* \"#utility.yul\":5539:5568   */\n      tag_334\n      jump\t// in\n    tag_392:\n        /* \"#utility.yul\":5529:5568   */\n      swap2\n      pop\n        /* \"#utility.yul\":5587:5625   */\n      tag_393\n        /* \"#utility.yul\":5621:5623   */\n      0x20\n        /* \"#utility.yul\":5610:5619   */\n      dup5\n        /* \"#utility.yul\":5606:5624   */\n      add\n        /* \"#utility.yul\":5587:5625   */\n      tag_334\n      jump\t// in\n    tag_393:\n        /* \"#utility.yul\":5577:5625   */\n      swap1\n      pop\n        /* \"#utility.yul\":5371:5631   */\n      swap3\n      pop\n      swap3\n      swap1\n      pop\n      jump\t// out\n        /* \"#utility.yul\":5636:6016   */\n    tag_101:\n        /* \"#utility.yul\":5715:5716   */\n      0x01\n        /* \"#utility.yul\":5711:5723   */\n      dup2\n      dup2\n      shr\n      swap1\n        /* \"#utility.yul\":5758:5770   */\n      dup3\n      and\n      dup1\n        /* \"#utility.yul\":5779:5840   */\n      tag_395\n      jumpi\n        /* \"#utility.yul\":5833:5837   */\n      0x7f\n        /* \"#utility.yul\":5825:5831   */\n      dup3\n        /* \"#utility.yul\":5821:5838   */\n      and\n        /* \"#utility.yul\":5811:5838   */\n      swap2\n      pop\n        /* \"#utility.yul\":5779:5840   */\n    tag_395:\n        /* \"#utility.yul\":5886:5888   */\n      0x20\n        /* \"#utility.yul\":5878:5884   */\n      dup3\n        /* \"#utility.yul\":5875:5889   */\n      lt\n        /* \"#utility.yul\":5855:5873   */\n      dup2\n        /* \"#utility.yul\":5852:5890   */\n      sub\n        /* \"#utility.yul\":5849:6010   */\n      tag_396\n      jumpi\n        /* \"#utility.yul\":5932:5942   */\n      0x4e487b71\n        /* \"#utility.yul\":5927:5930   */\n      0xe0\n        /* \"#utility.yul\":5923:5943   */\n      shl\n        /* \"#utility.yul\":5920:5921   */\n      0x00\n        /* \"#utility.yul\":5913:5944   */\n      mstore\n        /* \"#utility.yul\":5967:5971   */\n      0x22\n        /* \"#utility.yul\":5964:5965   */\n      0x04\n        /* \"#utility.yul\":5957:5972   */\n      mstore\n        /* \"#utility.yul\":5995:5999   */\n      0x24\n        /* \"#utility.yul\":5992:5993   */\n      0x00\n        /* \"#utility.yul\":5985:6000   */\n      revert\n        /* \"#utility.yul\":5849:6010   */\n    tag_396:\n      pop\n        /* \"#utility.yul\":5636:6016   */\n      swap2\n      swap1\n      pop\n      jump\t// out\n        /* \"#utility.yul\":6397:6893   */\n    tag_210:\n      sub(shl(0xa0, 0x01), 0x01)\n        /* \"#utility.yul\":6628:6660   */\n      dup6\n      dup2\n      and\n        /* \"#utility.yul\":6610:6661   */\n      dup3\n      mstore\n        /* \"#utility.yul\":6697:6729   */\n      dup5\n      and\n        /* \"#utility.yul\":6692:6694   */\n      0x20\n        /* \"#utility.yul\":6677:6695   */\n      dup3\n      add\n        /* \"#utility.yul\":6670:6730   */\n      mstore\n        /* \"#utility.yul\":6761:6763   */\n      0x40\n        /* \"#utility.yul\":6746:6764   */\n      dup2\n      add\n        /* \"#utility.yul\":6739:6773   */\n      dup4\n      swap1\n      mstore\n        /* \"#utility.yul\":6809:6812   */\n      0x80\n        /* \"#utility.yul\":6804:6806   */\n      0x60\n        /* \"#utility.yul\":6789:6807   */\n      dup3\n      add\n        /* \"#utility.yul\":6782:6813   */\n      dup2\n      swap1\n      mstore\n      0x00\n      swap1\n        /* \"#utility.yul\":6830:6887   */\n      tag_399\n      swap1\n        /* \"#utility.yul\":6867:6886   */\n      dup4\n      add\n        /* \"#utility.yul\":6859:6865   */\n      dup5\n        /* \"#utility.yul\":6830:6887   */\n      tag_333\n      jump\t// in\n    tag_399:\n        /* \"#utility.yul\":6822:6887   */\n      swap7\n        /* \"#utility.yul\":6397:6893   */\n      swap6\n      pop\n      pop\n      pop\n      pop\n      pop\n      pop\n      jump\t// out\n        /* \"#utility.yul\":6898:7147   */\n    tag_213:\n        /* \"#utility.yul\":6967:6973   */\n      0x00\n        /* \"#utility.yul\":7020:7022   */\n      0x20\n        /* \"#utility.yul\":7008:7017   */\n      dup3\n        /* \"#utility.yul\":6999:7006   */\n      dup5\n        /* \"#utility.yul\":6995:7018   */\n      sub\n        /* \"#utility.yul\":6991:7023   */\n      slt\n        /* \"#utility.yul\":6988:7040   */\n      iszero\n      tag_401\n      jumpi\n        /* \"#utility.yul\":7036:7037   */\n      0x00\n        /* \"#utility.yul\":7033:7034   */\n      0x00\n        /* \"#utility.yul\":7026:7038   */\n      revert\n        /* \"#utility.yul\":6988:7040   */\n    tag_401:\n        /* \"#utility.yul\":7068:7077   */\n      dup2\n        /* \"#utility.yul\":7062:7078   */\n      mload\n        /* \"#utility.yul\":7087:7117   */\n      tag_278\n        /* \"#utility.yul\":7111:7116   */\n      dup2\n        /* \"#utility.yul\":7087:7117   */\n      tag_332\n      jump\t// in\n        /* \"#utility.yul\":7152:7364   */\n    tag_336:\n        /* \"#utility.yul\":7194:7197   */\n      0x00\n        /* \"#utility.yul\":7232:7237   */\n      dup2\n        /* \"#utility.yul\":7226:7238   */\n      mload\n        /* \"#utility.yul\":7276:7282   */\n      dup1\n        /* \"#utility.yul\":7269:7273   */\n      0x20\n        /* \"#utility.yul\":7262:7267   */\n      dup5\n        /* \"#utility.yul\":7258:7274   */\n      add\n        /* \"#utility.yul\":7253:7256   */\n      dup6\n        /* \"#utility.yul\":7247:7283   */\n      mcopy\n        /* \"#utility.yul\":7338:7339   */\n      0x00\n        /* \"#utility.yul\":7302:7318   */\n      swap4\n      add\n        /* \"#utility.yul\":7327:7340   */\n      swap3\n      dup4\n      mstore\n      pop\n        /* \"#utility.yul\":7302:7318   */\n      swap1\n      swap2\n        /* \"#utility.yul\":7152:7364   */\n      swap1\n      pop\n      jump\t// out\n        /* \"#utility.yul\":7369:7636   */\n    tag_238:\n        /* \"#utility.yul\":7548:7551   */\n      0x00\n        /* \"#utility.yul\":7573:7630   */\n      tag_239\n        /* \"#utility.yul\":7599:7629   */\n      tag_406\n        /* \"#utility.yul\":7625:7628   */\n      dup4\n        /* \"#utility.yul\":7617:7623   */\n      dup7\n        /* \"#utility.yul\":7599:7629   */\n      tag_336\n      jump\t// in\n    tag_406:\n        /* \"#utility.yul\":7591:7597   */\n      dup5\n        /* \"#utility.yul\":7573:7630   */\n      tag_336\n      jump\t// in\n        /* \"#utility.yul\":7767:8285   */\n    tag_338:\n        /* \"#utility.yul\":7869:7871   */\n      0x1f\n        /* \"#utility.yul\":7864:7867   */\n      dup3\n        /* \"#utility.yul\":7861:7872   */\n      gt\n        /* \"#utility.yul\":7858:8279   */\n      iszero\n      tag_126\n      jumpi\n        /* \"#utility.yul\":7905:7910   */\n      dup1\n        /* \"#utility.yul\":7902:7903   */\n      0x00\n        /* \"#utility.yul\":7895:7911   */\n      mstore\n        /* \"#utility.yul\":7949:7953   */\n      0x20\n        /* \"#utility.yul\":7946:7947   */\n      0x00\n        /* \"#utility.yul\":7936:7954   */\n      keccak256\n        /* \"#utility.yul\":8019:8021   */\n      0x1f\n        /* \"#utility.yul\":8007:8017   */\n      dup5\n        /* \"#utility.yul\":8003:8022   */\n      add\n        /* \"#utility.yul\":8000:8001   */\n      0x05\n        /* \"#utility.yul\":7996:8023   */\n      shr\n        /* \"#utility.yul\":7990:7994   */\n      dup2\n        /* \"#utility.yul\":7986:8024   */\n      add\n        /* \"#utility.yul\":8055:8059   */\n      0x20\n        /* \"#utility.yul\":8043:8053   */\n      dup6\n        /* \"#utility.yul\":8040:8060   */\n      lt\n        /* \"#utility.yul\":8037:8084   */\n      iszero\n      tag_410\n      jumpi\n      pop\n        /* \"#utility.yul\":8078:8082   */\n      dup1\n        /* \"#utility.yul\":8037:8084   */\n    tag_410:\n        /* \"#utility.yul\":8133:8135   */\n      0x1f\n        /* \"#utility.yul\":8128:8131   */\n      dup5\n        /* \"#utility.yul\":8124:8136   */\n      add\n        /* \"#utility.yul\":8121:8122   */\n      0x05\n        /* \"#utility.yul\":8117:8137   */\n      shr\n        /* \"#utility.yul\":8111:8115   */\n      dup3\n        /* \"#utility.yul\":8107:8138   */\n      add\n        /* \"#utility.yul\":8097:8138   */\n      swap2\n      pop\n        /* \"#utility.yul\":8188:8269   */\n    tag_411:\n        /* \"#utility.yul\":8206:8208   */\n      dup2\n        /* \"#utility.yul\":8199:8204   */\n      dup2\n        /* \"#utility.yul\":8196:8209   */\n      lt\n        /* \"#utility.yul\":8188:8269   */\n      iszero\n      tag_224\n      jumpi\n        /* \"#utility.yul\":8265:8266   */\n      0x00\n        /* \"#utility.yul\":8251:8267   */\n      dup2\n      sstore\n        /* \"#utility.yul\":8232:8233   */\n      0x01\n        /* \"#utility.yul\":8221:8234   */\n      add\n        /* \"#utility.yul\":8188:8269   */\n      jump(tag_411)\n        /* \"#utility.yul\":8461:9760   */\n    tag_246:\n        /* \"#utility.yul\":8587:8590   */\n      dup2\n        /* \"#utility.yul\":8581:8591   */\n      mload\n        /* \"#utility.yul\":8614:8632   */\n      0xffffffffffffffff\n        /* \"#utility.yul\":8606:8612   */\n      dup2\n        /* \"#utility.yul\":8603:8633   */\n      gt\n        /* \"#utility.yul\":8600:8656   */\n      iszero\n      tag_417\n      jumpi\n        /* \"#utility.yul\":8636:8654   */\n      tag_417\n      tag_298\n      jump\t// in\n    tag_417:\n        /* \"#utility.yul\":8665:8762   */\n      tag_418\n        /* \"#utility.yul\":8755:8761   */\n      dup2\n        /* \"#utility.yul\":8715:8753   */\n      tag_419\n        /* \"#utility.yul\":8747:8751   */\n      dup5\n        /* \"#utility.yul\":8741:8752   */\n      sload\n        /* \"#utility.yul\":8715:8753   */\n      tag_101\n      jump\t// in\n    tag_419:\n        /* \"#utility.yul\":8709:8713   */\n      dup5\n        /* \"#utility.yul\":8665:8762   */\n      tag_338\n      jump\t// in\n    tag_418:\n        /* \"#utility.yul\":8811:8815   */\n      0x20\n        /* \"#utility.yul\":8842:8844   */\n      0x1f\n        /* \"#utility.yul\":8831:8845   */\n      dup3\n      gt\n        /* \"#utility.yul\":8859:8860   */\n      0x01\n        /* \"#utility.yul\":8854:9503   */\n      dup2\n      eq\n      tag_421\n      jumpi\n        /* \"#utility.yul\":9547:9548   */\n      0x00\n        /* \"#utility.yul\":9564:9570   */\n      dup4\n        /* \"#utility.yul\":9561:9650   */\n      iszero\n      tag_422\n      jumpi\n      pop\n        /* \"#utility.yul\":9616:9635   */\n      dup5\n      dup3\n      add\n        /* \"#utility.yul\":9610:9636   */\n      mload\n        /* \"#utility.yul\":9561:9650   */\n    tag_422:\n      not(0x00)\n        /* \"#utility.yul\":8418:8419   */\n      0x03\n        /* \"#utility.yul\":8414:8425   */\n      dup6\n      swap1\n      shl\n        /* \"#utility.yul\":8410:8434   */\n      shr\n        /* \"#utility.yul\":8406:8435   */\n      not\n        /* \"#utility.yul\":8396:8436   */\n      and\n        /* \"#utility.yul\":8442:8443   */\n      0x01\n        /* \"#utility.yul\":8438:8449   */\n      dup5\n      swap1\n      shl\n        /* \"#utility.yul\":8393:8450   */\n      or\n        /* \"#utility.yul\":9663:9744   */\n      dup5\n      sstore\n        /* \"#utility.yul\":8824:9754   */\n      jump(tag_224)\n        /* \"#utility.yul\":8854:9503   */\n    tag_421:\n        /* \"#utility.yul\":7714:7715   */\n      0x00\n        /* \"#utility.yul\":7707:7721   */\n      dup5\n      dup2\n      mstore\n        /* \"#utility.yul\":7751:7755   */\n      0x20\n        /* \"#utility.yul\":7738:7756   */\n      dup2\n      keccak256\n      not(0x1f)\n        /* \"#utility.yul\":8890:8910   */\n      dup6\n      and\n      swap2\n        /* \"#utility.yul\":9008:9230   */\n    tag_425:\n        /* \"#utility.yul\":9022:9029   */\n      dup3\n        /* \"#utility.yul\":9019:9020   */\n      dup2\n        /* \"#utility.yul\":9016:9030   */\n      lt\n        /* \"#utility.yul\":9008:9230   */\n      iszero\n      tag_427\n      jumpi\n        /* \"#utility.yul\":9104:9123   */\n      dup8\n      dup6\n      add\n        /* \"#utility.yul\":9098:9124   */\n      mload\n        /* \"#utility.yul\":9083:9125   */\n      dup3\n      sstore\n        /* \"#utility.yul\":9211:9215   */\n      0x20\n        /* \"#utility.yul\":9196:9216   */\n      swap5\n      dup6\n      add\n      swap5\n        /* \"#utility.yul\":9164:9165   */\n      0x01\n        /* \"#utility.yul\":9152:9166   */\n      swap1\n      swap3\n      add\n      swap2\n        /* \"#utility.yul\":9038:9050   */\n      add\n        /* \"#utility.yul\":9008:9230   */\n      jump(tag_425)\n    tag_427:\n        /* \"#utility.yul\":9012:9015   */\n      pop\n        /* \"#utility.yul\":9258:9264   */\n      dup5\n        /* \"#utility.yul\":9249:9256   */\n      dup3\n        /* \"#utility.yul\":9246:9265   */\n      lt\n        /* \"#utility.yul\":9243:9444   */\n      iszero\n      tag_428\n      jumpi\n        /* \"#utility.yul\":9319:9338   */\n      dup7\n      dup5\n      add\n        /* \"#utility.yul\":9313:9339   */\n      mload\n      not(0x00)\n        /* \"#utility.yul\":9402:9403   */\n      0x03\n        /* \"#utility.yul\":9398:9412   */\n      dup8\n      swap1\n      shl\n        /* \"#utility.yul\":9414:9417   */\n      0xf8\n        /* \"#utility.yul\":9394:9418   */\n      and\n        /* \"#utility.yul\":9390:9427   */\n      shr\n        /* \"#utility.yul\":9386:9428   */\n      not\n        /* \"#utility.yul\":9371:9429   */\n      and\n        /* \"#utility.yul\":9356:9430   */\n      dup2\n      sstore\n        /* \"#utility.yul\":9243:9444   */\n    tag_428:\n      pop\n      pop\n      pop\n      pop\n        /* \"#utility.yul\":9490:9491   */\n      0x01\n        /* \"#utility.yul\":9474:9488   */\n      swap1\n      dup2\n      shl\n        /* \"#utility.yul\":9470:9492   */\n      add\n        /* \"#utility.yul\":9457:9493   */\n      swap1\n      sstore\n      pop\n        /* \"#utility.yul\":8461:9760   */\n      jump\t// out\n\n    auxdata: 0xa264697066735822122018beb46201fba354c80f5d4e5d7363d45c7388cfde131ff5734ce367c60e760364736f6c634300081c0033\n}\n",
				"bytecode": {
					"linkReferences": {},
					"object": "608060405234801561000f575f5ffd5b5060405161164338038061164383398101604081905261002e9161011f565b806040518060400160405280600c81526020016b2a32b9b630b6902a37b5b2b760a11b815250604051806040016040528060068152602001655445534c414d60d01b815250815f908161008191906101e4565b50600161008e82826101e4565b5050506001600160a01b0381166100be57604051631e4fbdf760e01b81525f600482015260240160405180910390fd5b6100c7816100ce565b505061029e565b600780546001600160a01b038381166001600160a01b0319831681179093556040519116919082907f8be0079c531659141344cd1fd0a4f28419497f9722a3daafe3b4186f6b6457e0905f90a35050565b5f6020828403121561012f575f5ffd5b81516001600160a01b0381168114610145575f5ffd5b9392505050565b634e487b7160e01b5f52604160045260245ffd5b600181811c9082168061017457607f821691505b60208210810361019257634e487b7160e01b5f52602260045260245ffd5b50919050565b601f8211156101df57805f5260205f20601f840160051c810160208510156101bd5750805b601f840160051c820191505b818110156101dc575f81556001016101c9565b50505b505050565b81516001600160401b038111156101fd576101fd61014c565b6102118161020b8454610160565b84610198565b6020601f821160018114610243575f831561022c5750848201515b5f19600385901b1c1916600184901b1784556101dc565b5f84815260208120601f198516915b828110156102725787850151825560209485019460019092019101610252565b508482101561028f57868401515f19600387901b60f8161c191681555b50505050600190811b01905550565b611398806102ab5f395ff3fe608060405234801561000f575f5ffd5b5060043610610111575f3560e01c8063715018a61161009e578063b88d4fde1161006e578063b88d4fde14610233578063c87b56dd14610246578063cd279c7c14610259578063e985e9c51461026c578063f2fde38b1461027f575f5ffd5b8063715018a6146101ff5780638da5cb5b1461020757806395d89b4114610218578063a22cb46514610220575f5ffd5b806323b872dd116100e457806323b872dd1461019257806342842e0e146101a557806342966c68146101b85780636352211e146101cb57806370a08231146101de575f5ffd5b806301ffc9a71461011557806306fdde031461013d578063081812fc14610152578063095ea7b31461017d575b5f5ffd5b610128610123366004610ecf565b610292565b60405190151581526020015b60405180910390f35b6101456102a2565b6040516101349190610f18565b610165610160366004610f2a565b610331565b6040516001600160a01b039091168152602001610134565b61019061018b366004610f5c565b610358565b005b6101906101a0366004610f84565b610367565b6101906101b3366004610f84565b6103f5565b6101906101c6366004610f2a565b610414565b6101656101d9366004610f2a565b61041f565b6101f16101ec366004610fbe565b610429565b604051908152602001610134565b61019061046e565b6007546001600160a01b0316610165565b610145610481565b61019061022e366004610fd7565b610490565b61019061024136600461109b565b61049b565b610145610254366004610f2a565b6104b2565b610190610267366004611112565b6104bd565b61012861027a366004611178565b6104d9565b61019061028d366004610fbe565b610506565b5f61029c82610543565b92915050565b60605f80546102b0906111a9565b80601f01602080910402602001604051908101604052809291908181526020018280546102dc906111a9565b80156103275780601f106102fe57610100808354040283529160200191610327565b820191905f5260205f20905b81548152906001019060200180831161030a57829003601f168201915b5050505050905090565b5f61033b82610567565b505f828152600460205260409020546001600160a01b031661029c565b61036382823361059f565b5050565b6001600160a01b03821661039557604051633250574960e11b81525f60048201526024015b60405180910390fd5b5f6103a18383336105ac565b9050836001600160a01b0316816001600160a01b0316146103ef576040516364283d7b60e01b81526001600160a01b038086166004830152602482018490528216604482015260640161038c565b50505050565b61040f83838360405180602001604052805f81525061049b565b505050565b6103635f82336105ac565b5f61029c82610567565b5f6001600160a01b038216610453576040516322718ad960e21b81525f600482015260240161038c565b506001600160a01b03165f9081526003602052604090205490565b61047661069e565b61047f5f6106cb565b565b6060600180546102b0906111a9565b61036333838361071c565b6104a6848484610367565b6103ef848484846107ba565b606061029c826108e0565b6104c561069e565b6104cf83836109eb565b61040f8282610a04565b6001600160a01b039182165f90815260056020908152604080832093909416825291909152205460ff1690565b61050e61069e565b6001600160a01b03811661053757604051631e4fbdf760e01b81525f600482015260240161038c565b610540816106cb565b50565b5f6001600160e01b03198216632483248360e11b148061029c575061029c82610a53565b5f818152600260205260408120546001600160a01b03168061029c57604051637e27328960e01b81526004810184905260240161038c565b61040f8383836001610aa2565b5f828152600260205260408120546001600160a01b03908116908316156105d8576105d8818486610ba6565b6001600160a01b03811615610612576105f35f855f5f610aa2565b6001600160a01b0381165f90815260036020526040902080545f190190555b6001600160a01b03851615610640576001600160a01b0385165f908152600360205260409020805460010190555b5f8481526002602052604080822080546001600160a01b0319166001600160a01b0389811691821790925591518793918516917fddf252ad1be2c89b69c2b068fc378daa952ba7f163c4a11628f55a4df523b3ef91a4949350505050565b6007546001600160a01b0316331461047f5760405163118cdaa760e01b815233600482015260240161038c565b600780546001600160a01b038381166001600160a01b0319831681179093556040519116919082907f8be0079c531659141344cd1fd0a4f28419497f9722a3daafe3b4186f6b6457e0905f90a35050565b6001600160a01b03821661074e57604051630b61174360e31b81526001600160a01b038316600482015260240161038c565b6001600160a01b038381165f81815260056020908152604080832094871680845294825291829020805460ff191686151590811790915591519182527f17307eab39ab6107e8899845ad3d59bd9653f200f220920489ca2b5937696c31910160405180910390a3505050565b6001600160a01b0383163b156103ef57604051630a85bd0160e11b81526001600160a01b0384169063150b7a02906107fc9033908890879087906004016111e1565b6020604051808303815f875af1925050508015610836575060408051601f3d908101601f191682019092526108339181019061121d565b60015b61089d573d808015610863576040519150601f19603f3d011682016040523d82523d5f602084013e610868565b606091505b5080515f0361089557604051633250574960e11b81526001600160a01b038516600482015260240161038c565b805181602001fd5b6001600160e01b03198116630a85bd0160e11b146108d957604051633250574960e11b81526001600160a01b038516600482015260240161038c565b5050505050565b60606108eb82610567565b505f8281526006602052604081208054610904906111a9565b80601f0160208091040260200160405190810160405280929190818152602001828054610930906111a9565b801561097b5780601f106109525761010080835404028352916020019161097b565b820191905f5260205f20905b81548152906001019060200180831161095e57829003601f168201915b505050505090505f61099760408051602081019091525f815290565b905080515f036109a8575092915050565b8151156109da5780826040516020016109c292919061124f565b60405160208183030381529060405292505050919050565b6109e384610c0a565b949350505050565b610363828260405180602001604052805f815250610c7b565b5f828152600660205260409020610a1b82826112a7565b506040518281527ff8e1a15aba9398e019f0b49df1a4fde98ee17ae345cb5f6b5e2c27f5033e8ce79060200160405180910390a15050565b5f6001600160e01b031982166380ac58cd60e01b1480610a8357506001600160e01b03198216635b5e139f60e01b145b8061029c57506301ffc9a760e01b6001600160e01b031983161461029c565b8080610ab657506001600160a01b03821615155b15610b77575f610ac584610567565b90506001600160a01b03831615801590610af15750826001600160a01b0316816001600160a01b031614155b8015610b045750610b0281846104d9565b155b15610b2d5760405163a9fbf51f60e01b81526001600160a01b038416600482015260240161038c565b8115610b755783856001600160a01b0316826001600160a01b03167f8c5be1e5ebec7d5bd14f71427d1e84f3dd0314c0f7b2291e5b200ac8c7c3b92560405160405180910390a45b505b50505f90815260046020526040902080546001600160a01b0319166001600160a01b0392909216919091179055565b610bb1838383610c91565b61040f576001600160a01b038316610bdf57604051637e27328960e01b81526004810182905260240161038c565b60405163177e802f60e01b81526001600160a01b03831660048201526024810182905260440161038c565b6060610c1582610567565b505f610c2b60408051602081019091525f815290565b90505f815111610c495760405180602001604052805f815250610c74565b80610c5384610cf2565b604051602001610c6492919061124f565b6040516020818303038152906040525b9392505050565b610c858383610d82565b61040f5f8484846107ba565b5f6001600160a01b038316158015906109e35750826001600160a01b0316846001600160a01b03161480610cca5750610cca84846104d9565b806109e35750505f908152600460205260409020546001600160a01b03908116911614919050565b60605f610cfe83610de3565b60010190505f8167ffffffffffffffff811115610d1d57610d1d611010565b6040519080825280601f01601f191660200182016040528015610d47576020820181803683370190505b5090508181016020015b5f19016f181899199a1a9b1b9c1cb0b131b232b360811b600a86061a8153600a8504945084610d5157509392505050565b6001600160a01b038216610dab57604051633250574960e11b81525f600482015260240161038c565b5f610db783835f6105ac565b90506001600160a01b0381161561040f576040516339e3563760e11b81525f600482015260240161038c565b5f8072184f03e93ff9f4daa797ed6e38ed64bf6a1f0160401b8310610e215772184f03e93ff9f4daa797ed6e38ed64bf6a1f0160401b830492506040015b6d04ee2d6d415b85acef81000000008310610e4d576d04ee2d6d415b85acef8100000000830492506020015b662386f26fc100008310610e6b57662386f26fc10000830492506010015b6305f5e1008310610e83576305f5e100830492506008015b6127108310610e9757612710830492506004015b60648310610ea9576064830492506002015b600a831061029c5760010192915050565b6001600160e01b031981168114610540575f5ffd5b5f60208284031215610edf575f5ffd5b8135610c7481610eba565b5f81518084528060208401602086015e5f602082860101526020601f19601f83011685010191505092915050565b602081525f610c746020830184610eea565b5f60208284031215610f3a575f5ffd5b5035919050565b80356001600160a01b0381168114610f57575f5ffd5b919050565b5f5f60408385031215610f6d575f5ffd5b610f7683610f41565b946020939093013593505050565b5f5f5f60608486031215610f96575f5ffd5b610f9f84610f41565b9250610fad60208501610f41565b929592945050506040919091013590565b5f60208284031215610fce575f5ffd5b610c7482610f41565b5f5f60408385031215610fe8575f5ffd5b610ff183610f41565b915060208301358015158114611005575f5ffd5b809150509250929050565b634e487b7160e01b5f52604160045260245ffd5b5f5f67ffffffffffffffff84111561103e5761103e611010565b50604051601f19601f85018116603f0116810181811067ffffffffffffffff8211171561106d5761106d611010565b604052838152905080828401851015611084575f5ffd5b838360208301375f60208583010152509392505050565b5f5f5f5f608085870312156110ae575f5ffd5b6110b785610f41565b93506110c560208601610f41565b925060408501359150606085013567ffffffffffffffff8111156110e7575f5ffd5b8501601f810187136110f7575f5ffd5b61110687823560208401611024565b91505092959194509250565b5f5f5f60608486031215611124575f5ffd5b61112d84610f41565b925060208401359150604084013567ffffffffffffffff81111561114f575f5ffd5b8401601f8101861361115f575f5ffd5b61116e86823560208401611024565b9150509250925092565b5f5f60408385031215611189575f5ffd5b61119283610f41565b91506111a060208401610f41565b90509250929050565b600181811c908216806111bd57607f821691505b6020821081036111db57634e487b7160e01b5f52602260045260245ffd5b50919050565b6001600160a01b03858116825284166020820152604081018390526080606082018190525f9061121390830184610eea565b9695505050505050565b5f6020828403121561122d575f5ffd5b8151610c7481610eba565b5f81518060208401855e5f93019283525090919050565b5f6109e361125d8386611238565b84611238565b601f82111561040f57805f5260205f20601f840160051c810160208510156112885750805b601f840160051c820191505b818110156108d9575f8155600101611294565b815167ffffffffffffffff8111156112c1576112c1611010565b6112d5816112cf84546111a9565b84611263565b6020601f821160018114611307575f83156112f05750848201515b5f19600385901b1c1916600184901b1784556108d9565b5f84815260208120601f198516915b828110156113365787850151825560209485019460019092019101611316565b508482101561135357868401515f19600387901b60f8161c191681555b50505050600190811b0190555056fea264697066735822122018beb46201fba354c80f5d4e5d7363d45c7388cfde131ff5734ce367c60e760364736f6c634300081c0033",
					"opcodes": "PUSH1 0x80 PUSH1 0x40 MSTORE CALLVALUE DUP1 ISZERO PUSH2 0xF JUMPI PUSH0 PUSH0 REVERT JUMPDEST POP PUSH1 0x40 MLOAD PUSH2 0x1643 CODESIZE SUB DUP1 PUSH2 0x1643 DUP4 CODECOPY DUP2 ADD PUSH1 0x40 DUP2 SWAP1 MSTORE PUSH2 0x2E SWAP2 PUSH2 0x11F JUMP JUMPDEST DUP1 PUSH1 0x40 MLOAD DUP1 PUSH1 0x40 ADD PUSH1 0x40 MSTORE DUP1 PUSH1 0xC DUP2 MSTORE PUSH1 0x20 ADD PUSH12 0x2A32B9B630B6902A37B5B2B7 PUSH1 0xA1 SHL DUP2 MSTORE POP PUSH1 0x40 MLOAD DUP1 PUSH1 0x40 ADD PUSH1 0x40 MSTORE DUP1 PUSH1 0x6 DUP2 MSTORE PUSH1 0x20 ADD PUSH6 0x5445534C414D PUSH1 0xD0 SHL DUP2 MSTORE POP DUP2 PUSH0 SWAP1 DUP2 PUSH2 0x81 SWAP2 SWAP1 PUSH2 0x1E4 JUMP JUMPDEST POP PUSH1 0x1 PUSH2 0x8E DUP3 DUP3 PUSH2 0x1E4 JUMP JUMPDEST POP POP POP PUSH1 0x1 PUSH1 0x1 PUSH1 0xA0 SHL SUB DUP2 AND PUSH2 0xBE JUMPI PUSH1 0x40 MLOAD PUSH4 0x1E4FBDF7 PUSH1 0xE0 SHL DUP2 MSTORE PUSH0 PUSH1 0x4 DUP3 ADD MSTORE PUSH1 0x24 ADD PUSH1 0x40 MLOAD DUP1 SWAP2 SUB SWAP1 REVERT JUMPDEST PUSH2 0xC7 DUP2 PUSH2 0xCE JUMP JUMPDEST POP POP PUSH2 0x29E JUMP JUMPDEST PUSH1 0x7 DUP1 SLOAD PUSH1 0x1 PUSH1 0x1 PUSH1 0xA0 SHL SUB DUP4 DUP2 AND PUSH1 0x1 PUSH1 0x1 PUSH1 0xA0 SHL SUB NOT DUP4 AND DUP2 OR SWAP1 SWAP4 SSTORE PUSH1 0x40 MLOAD SWAP2 AND SWAP2 SWAP1 DUP3 SWAP1 PUSH32 0x8BE0079C531659141344CD1FD0A4F28419497F9722A3DAAFE3B4186F6B6457E0 SWAP1 PUSH0 SWAP1 LOG3 POP POP JUMP JUMPDEST PUSH0 PUSH1 0x20 DUP3 DUP5 SUB SLT ISZERO PUSH2 0x12F JUMPI PUSH0 PUSH0 REVERT JUMPDEST DUP2 MLOAD PUSH1 0x1 PUSH1 0x1 PUSH1 0xA0 SHL SUB DUP2 AND DUP2 EQ PUSH2 0x145 JUMPI PUSH0 PUSH0 REVERT JUMPDEST SWAP4 SWAP3 POP POP POP JUMP JUMPDEST PUSH4 0x4E487B71 PUSH1 0xE0 SHL PUSH0 MSTORE PUSH1 0x41 PUSH1 0x4 MSTORE PUSH1 0x24 PUSH0 REVERT JUMPDEST PUSH1 0x1 DUP2 DUP2 SHR SWAP1 DUP3 AND DUP1 PUSH2 0x174 JUMPI PUSH1 0x7F DUP3 AND SWAP2 POP JUMPDEST PUSH1 0x20 DUP3 LT DUP2 SUB PUSH2 0x192 JUMPI PUSH4 0x4E487B71 PUSH1 0xE0 SHL PUSH0 MSTORE PUSH1 0x22 PUSH1 0x4 MSTORE PUSH1 0x24 PUSH0 REVERT JUMPDEST POP SWAP2 SWAP1 POP JUMP JUMPDEST PUSH1 0x1F DUP3 GT ISZERO PUSH2 0x1DF JUMPI DUP1 PUSH0 MSTORE PUSH1 0x20 PUSH0 KECCAK256 PUSH1 0x1F DUP5 ADD PUSH1 0x5 SHR DUP2 ADD PUSH1 0x20 DUP6 LT ISZERO PUSH2 0x1BD JUMPI POP DUP1 JUMPDEST PUSH1 0x1F DUP5 ADD PUSH1 0x5 SHR DUP3 ADD SWAP2 POP JUMPDEST DUP2 DUP2 LT ISZERO PUSH2 0x1DC JUMPI PUSH0 DUP2 SSTORE PUSH1 0x1 ADD PUSH2 0x1C9 JUMP JUMPDEST POP POP JUMPDEST POP POP POP JUMP JUMPDEST DUP2 MLOAD PUSH1 0x1 PUSH1 0x1 PUSH1 0x40 SHL SUB DUP2 GT ISZERO PUSH2 0x1FD JUMPI PUSH2 0x1FD PUSH2 0x14C JUMP JUMPDEST PUSH2 0x211 DUP2 PUSH2 0x20B DUP5 SLOAD PUSH2 0x160 JUMP JUMPDEST DUP5 PUSH2 0x198 JUMP JUMPDEST PUSH1 0x20 PUSH1 0x1F DUP3 GT PUSH1 0x1 DUP2 EQ PUSH2 0x243 JUMPI PUSH0 DUP4 ISZERO PUSH2 0x22C JUMPI POP DUP5 DUP3 ADD MLOAD JUMPDEST PUSH0 NOT PUSH1 0x3 DUP6 SWAP1 SHL SHR NOT AND PUSH1 0x1 DUP5 SWAP1 SHL OR DUP5 SSTORE PUSH2 0x1DC JUMP JUMPDEST PUSH0 DUP5 DUP2 MSTORE PUSH1 0x20 DUP2 KECCAK256 PUSH1 0x1F NOT DUP6 AND SWAP2 JUMPDEST DUP3 DUP2 LT ISZERO PUSH2 0x272 JUMPI DUP8 DUP6 ADD MLOAD DUP3 SSTORE PUSH1 0x20 SWAP5 DUP6 ADD SWAP5 PUSH1 0x1 SWAP1 SWAP3 ADD SWAP2 ADD PUSH2 0x252 JUMP JUMPDEST POP DUP5 DUP3 LT ISZERO PUSH2 0x28F JUMPI DUP7 DUP5 ADD MLOAD PUSH0 NOT PUSH1 0x3 DUP8 SWAP1 SHL PUSH1 0xF8 AND SHR NOT AND DUP2 SSTORE JUMPDEST POP POP POP POP PUSH1 0x1 SWAP1 DUP2 SHL ADD SWAP1 SSTORE POP JUMP JUMPDEST PUSH2 0x1398 DUP1 PUSH2 0x2AB PUSH0 CODECOPY PUSH0 RETURN INVALID PUSH1 0x80 PUSH1 0x40 MSTORE CALLVALUE DUP1 ISZERO PUSH2 0xF JUMPI PUSH0 PUSH0 REVERT JUMPDEST POP PUSH1 0x4 CALLDATASIZE LT PUSH2 0x111 JUMPI PUSH0 CALLDATALOAD PUSH1 0xE0 SHR DUP1 PUSH4 0x715018A6 GT PUSH2 0x9E JUMPI DUP1 PUSH4 0xB88D4FDE GT PUSH2 0x6E JUMPI DUP1 PUSH4 0xB88D4FDE EQ PUSH2 0x233 JUMPI DUP1 PUSH4 0xC87B56DD EQ PUSH2 0x246 JUMPI DUP1 PUSH4 0xCD279C7C EQ PUSH2 0x259 JUMPI DUP1 PUSH4 0xE985E9C5 EQ PUSH2 0x26C JUMPI DUP1 PUSH4 0xF2FDE38B EQ PUSH2 0x27F JUMPI PUSH0 PUSH0 REVERT JUMPDEST DUP1 PUSH4 0x715018A6 EQ PUSH2 0x1FF JUMPI DUP1 PUSH4 0x8DA5CB5B EQ PUSH2 0x207 JUMPI DUP1 PUSH4 0x95D89B41 EQ PUSH2 0x218 JUMPI DUP1 PUSH4 0xA22CB465 EQ PUSH2 0x220 JUMPI PUSH0 PUSH0 REVERT JUMPDEST DUP1 PUSH4 0x23B872DD GT PUSH2 0xE4 JUMPI DUP1 PUSH4 0x23B872DD EQ PUSH2 0x192 JUMPI DUP1 PUSH4 0x42842E0E EQ PUSH2 0x1A5 JUMPI DUP1 PUSH4 0x42966C68 EQ PUSH2 0x1B8 JUMPI DUP1 PUSH4 0x6352211E EQ PUSH2 0x1CB JUMPI DUP1 PUSH4 0x70A08231 EQ PUSH2 0x1DE JUMPI PUSH0 PUSH0 REVERT JUMPDEST DUP1 PUSH4 0x1FFC9A7 EQ PUSH2 0x115 JUMPI DUP1 PUSH4 0x6FDDE03 EQ PUSH2 0x13D JUMPI DUP1 PUSH4 0x81812FC EQ PUSH2 0x152 JUMPI DUP1 PUSH4 0x95EA7B3 EQ PUSH2 0x17D JUMPI JUMPDEST PUSH0 PUSH0 REVERT JUMPDEST PUSH2 0x128 PUSH2 0x123 CALLDATASIZE PUSH1 0x4 PUSH2 0xECF JUMP JUMPDEST PUSH2 0x292 JUMP JUMPDEST PUSH1 0x40 MLOAD SWAP1 ISZERO ISZERO DUP2 MSTORE PUSH1 0x20 ADD JUMPDEST PUSH1 0x40 MLOAD DUP1 SWAP2 SUB SWAP1 RETURN JUMPDEST PUSH2 0x145 PUSH2 0x2A2 JUMP JUMPDEST PUSH1 0x40 MLOAD PUSH2 0x134 SWAP2 SWAP1 PUSH2 0xF18 JUMP JUMPDEST PUSH2 0x165 PUSH2 0x160 CALLDATASIZE PUSH1 0x4 PUSH2 0xF2A JUMP JUMPDEST PUSH2 0x331 JUMP JUMPDEST PUSH1 0x40 MLOAD PUSH1 0x1 PUSH1 0x1 PUSH1 0xA0 SHL SUB SWAP1 SWAP2 AND DUP2 MSTORE PUSH1 0x20 ADD PUSH2 0x134 JUMP JUMPDEST PUSH2 0x190 PUSH2 0x18B CALLDATASIZE PUSH1 0x4 PUSH2 0xF5C JUMP JUMPDEST PUSH2 0x358 JUMP JUMPDEST STOP JUMPDEST PUSH2 0x190 PUSH2 0x1A0 CALLDATASIZE PUSH1 0x4 PUSH2 0xF84 JUMP JUMPDEST PUSH2 0x367 JUMP JUMPDEST PUSH2 0x190 PUSH2 0x1B3 CALLDATASIZE PUSH1 0x4 PUSH2 0xF84 JUMP JUMPDEST PUSH2 0x3F5 JUMP JUMPDEST PUSH2 0x190 PUSH2 0x1C6 CALLDATASIZE PUSH1 0x4 PUSH2 0xF2A JUMP JUMPDEST PUSH2 0x414 JUMP JUMPDEST PUSH2 0x165 PUSH2 0x1D9 CALLDATASIZE PUSH1 0x4 PUSH2 0xF2A JUMP JUMPDEST PUSH2 0x41F JUMP JUMPDEST PUSH2 0x1F1 PUSH2 0x1EC CALLDATASIZE PUSH1 0x4 PUSH2 0xFBE JUMP JUMPDEST PUSH2 0x429 JUMP JUMPDEST PUSH1 0x40 MLOAD SWAP1 DUP2 MSTORE PUSH1 0x20 ADD PUSH2 0x134 JUMP JUMPDEST PUSH2 0x190 PUSH2 0x46E JUMP JUMPDEST PUSH1 0x7 SLOAD PUSH1 0x1 PUSH1 0x1 PUSH1 0xA0 SHL SUB AND PUSH2 0x165 JUMP JUMPDEST PUSH2 0x145 PUSH2 0x481 JUMP JUMPDEST PUSH2 0x190 PUSH2 0x22E CALLDATASIZE PUSH1 0x4 PUSH2 0xFD7 JUMP JUMPDEST PUSH2 0x490 JUMP JUMPDEST PUSH2 0x190 PUSH2 0x241 CALLDATASIZE PUSH1 0x4 PUSH2 0x109B JUMP JUMPDEST PUSH2 0x49B JUMP JUMPDEST PUSH2 0x145 PUSH2 0x254 CALLDATASIZE PUSH1 0x4 PUSH2 0xF2A JUMP JUMPDEST PUSH2 0x4B2 JUMP JUMPDEST PUSH2 0x190 PUSH2 0x267 CALLDATASIZE PUSH1 0x4 PUSH2 0x1112 JUMP JUMPDEST PUSH2 0x4BD JUMP JUMPDEST PUSH2 0x128 PUSH2 0x27A CALLDATASIZE PUSH1 0x4 PUSH2 0x1178 JUMP JUMPDEST PUSH2 0x4D9 JUMP JUMPDEST PUSH2 0x190 PUSH2 0x28D CALLDATASIZE PUSH1 0x4 PUSH2 0xFBE JUMP JUMPDEST PUSH2 0x506 JUMP JUMPDEST PUSH0 PUSH2 0x29C DUP3 PUSH2 0x543 JUMP JUMPDEST SWAP3 SWAP2 POP POP JUMP JUMPDEST PUSH1 0x60 PUSH0 DUP1 SLOAD PUSH2 0x2B0 SWAP1 PUSH2 0x11A9 JUMP JUMPDEST DUP1 PUSH1 0x1F ADD PUSH1 0x20 DUP1 SWAP2 DIV MUL PUSH1 0x20 ADD PUSH1 0x40 MLOAD SWAP1 DUP2 ADD PUSH1 0x40 MSTORE DUP1 SWAP3 SWAP2 SWAP1 DUP2 DUP2 MSTORE PUSH1 0x20 ADD DUP3 DUP1 SLOAD PUSH2 0x2DC SWAP1 PUSH2 0x11A9 JUMP JUMPDEST DUP1 ISZERO PUSH2 0x327 JUMPI DUP1 PUSH1 0x1F LT PUSH2 0x2FE JUMPI PUSH2 0x100 DUP1 DUP4 SLOAD DIV MUL DUP4 MSTORE SWAP2 PUSH1 0x20 ADD SWAP2 PUSH2 0x327 JUMP JUMPDEST DUP3 ADD SWAP2 SWAP1 PUSH0 MSTORE PUSH1 0x20 PUSH0 KECCAK256 SWAP1 JUMPDEST DUP2 SLOAD DUP2 MSTORE SWAP1 PUSH1 0x1 ADD SWAP1 PUSH1 0x20 ADD DUP1 DUP4 GT PUSH2 0x30A JUMPI DUP3 SWAP1 SUB PUSH1 0x1F AND DUP3 ADD SWAP2 JUMPDEST POP POP POP POP POP SWAP1 POP SWAP1 JUMP JUMPDEST PUSH0 PUSH2 0x33B DUP3 PUSH2 0x567 JUMP JUMPDEST POP PUSH0 DUP3 DUP2 MSTORE PUSH1 0x4 PUSH1 0x20 MSTORE PUSH1 0x40 SWAP1 KECCAK256 SLOAD PUSH1 0x1 PUSH1 0x1 PUSH1 0xA0 SHL SUB AND PUSH2 0x29C JUMP JUMPDEST PUSH2 0x363 DUP3 DUP3 CALLER PUSH2 0x59F JUMP JUMPDEST POP POP JUMP JUMPDEST PUSH1 0x1 PUSH1 0x1 PUSH1 0xA0 SHL SUB DUP3 AND PUSH2 0x395 JUMPI PUSH1 0x40 MLOAD PUSH4 0x32505749 PUSH1 0xE1 SHL DUP2 MSTORE PUSH0 PUSH1 0x4 DUP3 ADD MSTORE PUSH1 0x24 ADD JUMPDEST PUSH1 0x40 MLOAD DUP1 SWAP2 SUB SWAP1 REVERT JUMPDEST PUSH0 PUSH2 0x3A1 DUP4 DUP4 CALLER PUSH2 0x5AC JUMP JUMPDEST SWAP1 POP DUP4 PUSH1 0x1 PUSH1 0x1 PUSH1 0xA0 SHL SUB AND DUP2 PUSH1 0x1 PUSH1 0x1 PUSH1 0xA0 SHL SUB AND EQ PUSH2 0x3EF JUMPI PUSH1 0x40 MLOAD PUSH4 0x64283D7B PUSH1 0xE0 SHL DUP2 MSTORE PUSH1 0x1 PUSH1 0x1 PUSH1 0xA0 SHL SUB DUP1 DUP7 AND PUSH1 0x4 DUP4 ADD MSTORE PUSH1 0x24 DUP3 ADD DUP5 SWAP1 MSTORE DUP3 AND PUSH1 0x44 DUP3 ADD MSTORE PUSH1 0x64 ADD PUSH2 0x38C JUMP JUMPDEST POP POP POP POP JUMP JUMPDEST PUSH2 0x40F DUP4 DUP4 DUP4 PUSH1 0x40 MLOAD DUP1 PUSH1 0x20 ADD PUSH1 0x40 MSTORE DUP1 PUSH0 DUP2 MSTORE POP PUSH2 0x49B JUMP JUMPDEST POP POP POP JUMP JUMPDEST PUSH2 0x363 PUSH0 DUP3 CALLER PUSH2 0x5AC JUMP JUMPDEST PUSH0 PUSH2 0x29C DUP3 PUSH2 0x567 JUMP JUMPDEST PUSH0 PUSH1 0x1 PUSH1 0x1 PUSH1 0xA0 SHL SUB DUP3 AND PUSH2 0x453 JUMPI PUSH1 0x40 MLOAD PUSH4 0x22718AD9 PUSH1 0xE2 SHL DUP2 MSTORE PUSH0 PUSH1 0x4 DUP3 ADD MSTORE PUSH1 0x24 ADD PUSH2 0x38C JUMP JUMPDEST POP PUSH1 0x1 PUSH1 0x1 PUSH1 0xA0 SHL SUB AND PUSH0 SWAP1 DUP2 MSTORE PUSH1 0x3 PUSH1 0x20 MSTORE PUSH1 0x40 SWAP1 KECCAK256 SLOAD SWAP1 JUMP JUMPDEST PUSH2 0x476 PUSH2 0x69E JUMP JUMPDEST PUSH2 0x47F PUSH0 PUSH2 0x6CB JUMP JUMPDEST JUMP JUMPDEST PUSH1 0x60 PUSH1 0x1 DUP1 SLOAD PUSH2 0x2B0 SWAP1 PUSH2 0x11A9 JUMP JUMPDEST PUSH2 0x363 CALLER DUP4 DUP4 PUSH2 0x71C JUMP JUMPDEST PUSH2 0x4A6 DUP5 DUP5 DUP5 PUSH2 0x367 JUMP JUMPDEST PUSH2 0x3EF DUP5 DUP5 DUP5 DUP5 PUSH2 0x7BA JUMP JUMPDEST PUSH1 0x60 PUSH2 0x29C DUP3 PUSH2 0x8E0 JUMP JUMPDEST PUSH2 0x4C5 PUSH2 0x69E JUMP JUMPDEST PUSH2 0x4CF DUP4 DUP4 PUSH2 0x9EB JUMP JUMPDEST PUSH2 0x40F DUP3 DUP3 PUSH2 0xA04 JUMP JUMPDEST PUSH1 0x1 PUSH1 0x1 PUSH1 0xA0 SHL SUB SWAP2 DUP3 AND PUSH0 SWAP1 DUP2 MSTORE PUSH1 0x5 PUSH1 0x20 SWAP1 DUP2 MSTORE PUSH1 0x40 DUP1 DUP4 KECCAK256 SWAP4 SWAP1 SWAP5 AND DUP3 MSTORE SWAP2 SWAP1 SWAP2 MSTORE KECCAK256 SLOAD PUSH1 0xFF AND SWAP1 JUMP JUMPDEST PUSH2 0x50E PUSH2 0x69E JUMP JUMPDEST PUSH1 0x1 PUSH1 0x1 PUSH1 0xA0 SHL SUB DUP2 AND PUSH2 0x537 JUMPI PUSH1 0x40 MLOAD PUSH4 0x1E4FBDF7 PUSH1 0xE0 SHL DUP2 MSTORE PUSH0 PUSH1 0x4 DUP3 ADD MSTORE PUSH1 0x24 ADD PUSH2 0x38C JUMP JUMPDEST PUSH2 0x540 DUP2 PUSH2 0x6CB JUMP JUMPDEST POP JUMP JUMPDEST PUSH0 PUSH1 0x1 PUSH1 0x1 PUSH1 0xE0 SHL SUB NOT DUP3 AND PUSH4 0x24832483 PUSH1 0xE1 SHL EQ DUP1 PUSH2 0x29C JUMPI POP PUSH2 0x29C DUP3 PUSH2 0xA53 JUMP JUMPDEST PUSH0 DUP2 DUP2 MSTORE PUSH1 0x2 PUSH1 0x20 MSTORE PUSH1 0x40 DUP2 KECCAK256 SLOAD PUSH1 0x1 PUSH1 0x1 PUSH1 0xA0 SHL SUB AND DUP1 PUSH2 0x29C JUMPI PUSH1 0x40 MLOAD PUSH4 0x7E273289 PUSH1 0xE0 SHL DUP2 MSTORE PUSH1 0x4 DUP2 ADD DUP5 SWAP1 MSTORE PUSH1 0x24 ADD PUSH2 0x38C JUMP JUMPDEST PUSH2 0x40F DUP4 DUP4 DUP4 PUSH1 0x1 PUSH2 0xAA2 JUMP JUMPDEST PUSH0 DUP3 DUP2 MSTORE PUSH1 0x2 PUSH1 0x20 MSTORE PUSH1 0x40 DUP2 KECCAK256 SLOAD PUSH1 0x1 PUSH1 0x1 PUSH1 0xA0 SHL SUB SWAP1 DUP2 AND SWAP1 DUP4 AND ISZERO PUSH2 0x5D8 JUMPI PUSH2 0x5D8 DUP2 DUP5 DUP7 PUSH2 0xBA6 JUMP JUMPDEST PUSH1 0x1 PUSH1 0x1 PUSH1 0xA0 SHL SUB DUP2 AND ISZERO PUSH2 0x612 JUMPI PUSH2 0x5F3 PUSH0 DUP6 PUSH0 PUSH0 PUSH2 0xAA2 JUMP JUMPDEST PUSH1 0x1 PUSH1 0x1 PUSH1 0xA0 SHL SUB DUP2 AND PUSH0 SWAP1 DUP2 MSTORE PUSH1 0x3 PUSH1 0x20 MSTORE PUSH1 0x40 SWAP1 KECCAK256 DUP1 SLOAD PUSH0 NOT ADD SWAP1 SSTORE JUMPDEST PUSH1 0x1 PUSH1 0x1 PUSH1 0xA0 SHL SUB DUP6 AND ISZERO PUSH2 0x640 JUMPI PUSH1 0x1 PUSH1 0x1 PUSH1 0xA0 SHL SUB DUP6 AND PUSH0 SWAP1 DUP2 MSTORE PUSH1 0x3 PUSH1 0x20 MSTORE PUSH1 0x40 SWAP1 KECCAK256 DUP1 SLOAD PUSH1 0x1 ADD SWAP1 SSTORE JUMPDEST PUSH0 DUP5 DUP2 MSTORE PUSH1 0x2 PUSH1 0x20 MSTORE PUSH1 0x40 DUP1 DUP3 KECCAK256 DUP1 SLOAD PUSH1 0x1 PUSH1 0x1 PUSH1 0xA0 SHL SUB NOT AND PUSH1 0x1 PUSH1 0x1 PUSH1 0xA0 SHL SUB DUP10 DUP2 AND SWAP2 DUP3 OR SWAP1 SWAP3 SSTORE SWAP2 MLOAD DUP8 SWAP4 SWAP2 DUP6 AND SWAP2 PUSH32 0xDDF252AD1BE2C89B69C2B068FC378DAA952BA7F163C4A11628F55A4DF523B3EF SWAP2 LOG4 SWAP5 SWAP4 POP POP POP POP JUMP JUMPDEST PUSH1 0x7 SLOAD PUSH1 0x1 PUSH1 0x1 PUSH1 0xA0 SHL SUB AND CALLER EQ PUSH2 0x47F JUMPI PUSH1 0x40 MLOAD PUSH4 0x118CDAA7 PUSH1 0xE0 SHL DUP2 MSTORE CALLER PUSH1 0x4 DUP3 ADD MSTORE PUSH1 0x24 ADD PUSH2 0x38C JUMP JUMPDEST PUSH1 0x7 DUP1 SLOAD PUSH1 0x1 PUSH1 0x1 PUSH1 0xA0 SHL SUB DUP4 DUP2 AND PUSH1 0x1 PUSH1 0x1 PUSH1 0xA0 SHL SUB NOT DUP4 AND DUP2 OR SWAP1 SWAP4 SSTORE PUSH1 0x40 MLOAD SWAP2 AND SWAP2 SWAP1 DUP3 SWAP1 PUSH32 0x8BE0079C531659141344CD1FD0A4F28419497F9722A3DAAFE3B4186F6B6457E0 SWAP1 PUSH0 SWAP1 LOG3 POP POP JUMP JUMPDEST PUSH1 0x1 PUSH1 0x1 PUSH1 0xA0 SHL SUB DUP3 AND PUSH2 0x74E JUMPI PUSH1 0x40 MLOAD PUSH4 0xB611743 PUSH1 0xE3 SHL DUP2 MSTORE PUSH1 0x1 PUSH1 0x1 PUSH1 0xA0 SHL SUB DUP4 AND PUSH1 0x4 DUP3 ADD MSTORE PUSH1 0x24 ADD PUSH2 0x38C JUMP JUMPDEST PUSH1 0x1 PUSH1 0x1 PUSH1 0xA0 SHL SUB DUP4 DUP2 AND PUSH0 DUP2 DUP2 MSTORE PUSH1 0x5 PUSH1 0x20 SWAP1 DUP2 MSTORE PUSH1 0x40 DUP1 DUP4 KECCAK256 SWAP5 DUP8 AND DUP1 DUP5 MSTORE SWAP5 DUP3 MSTORE SWAP2 DUP3 SWAP1 KECCAK256 DUP1 SLOAD PUSH1 0xFF NOT AND DUP7 ISZERO ISZERO SWAP1 DUP2 OR SWAP1 SWAP2 SSTORE SWAP2 MLOAD SWAP2 DUP3 MSTORE PUSH32 0x17307EAB39AB6107E8899845AD3D59BD9653F200F220920489CA2B5937696C31 SWAP2 ADD PUSH1 0x40 MLOAD DUP1 SWAP2 SUB SWAP1 LOG3 POP POP POP JUMP JUMPDEST PUSH1 0x1 PUSH1 0x1 PUSH1 0xA0 SHL SUB DUP4 AND EXTCODESIZE ISZERO PUSH2 0x3EF JUMPI PUSH1 0x40 MLOAD PUSH4 0xA85BD01 PUSH1 0xE1 SHL DUP2 MSTORE PUSH1 0x1 PUSH1 0x1 PUSH1 0xA0 SHL SUB DUP5 AND SWAP1 PUSH4 0x150B7A02 SWAP1 PUSH2 0x7FC SWAP1 CALLER SWAP1 DUP9 SWAP1 DUP8 SWAP1 DUP8 SWAP1 PUSH1 0x4 ADD PUSH2 0x11E1 JUMP JUMPDEST PUSH1 0x20 PUSH1 0x40 MLOAD DUP1 DUP4 SUB DUP2 PUSH0 DUP8 GAS CALL SWAP3 POP POP POP DUP1 ISZERO PUSH2 0x836 JUMPI POP PUSH1 0x40 DUP1 MLOAD PUSH1 0x1F RETURNDATASIZE SWAP1 DUP2 ADD PUSH1 0x1F NOT AND DUP3 ADD SWAP1 SWAP3 MSTORE PUSH2 0x833 SWAP2 DUP2 ADD SWAP1 PUSH2 0x121D JUMP JUMPDEST PUSH1 0x1 JUMPDEST PUSH2 0x89D JUMPI RETURNDATASIZE DUP1 DUP1 ISZERO PUSH2 0x863 JUMPI PUSH1 0x40 MLOAD SWAP2 POP PUSH1 0x1F NOT PUSH1 0x3F RETURNDATASIZE ADD AND DUP3 ADD PUSH1 0x40 MSTORE RETURNDATASIZE DUP3 MSTORE RETURNDATASIZE PUSH0 PUSH1 0x20 DUP5 ADD RETURNDATACOPY PUSH2 0x868 JUMP JUMPDEST PUSH1 0x60 SWAP2 POP JUMPDEST POP DUP1 MLOAD PUSH0 SUB PUSH2 0x895 JUMPI PUSH1 0x40 MLOAD PUSH4 0x32505749 PUSH1 0xE1 SHL DUP2 MSTORE PUSH1 0x1 PUSH1 0x1 PUSH1 0xA0 SHL SUB DUP6 AND PUSH1 0x4 DUP3 ADD MSTORE PUSH1 0x24 ADD PUSH2 0x38C JUMP JUMPDEST DUP1 MLOAD DUP2 PUSH1 0x20 ADD REVERT JUMPDEST PUSH1 0x1 PUSH1 0x1 PUSH1 0xE0 SHL SUB NOT DUP2 AND PUSH4 0xA85BD01 PUSH1 0xE1 SHL EQ PUSH2 0x8D9 JUMPI PUSH1 0x40 MLOAD PUSH4 0x32505749 PUSH1 0xE1 SHL DUP2 MSTORE PUSH1 0x1 PUSH1 0x1 PUSH1 0xA0 SHL SUB DUP6 AND PUSH1 0x4 DUP3 ADD MSTORE PUSH1 0x24 ADD PUSH2 0x38C JUMP JUMPDEST POP POP POP POP POP JUMP JUMPDEST PUSH1 0x60 PUSH2 0x8EB DUP3 PUSH2 0x567 JUMP JUMPDEST POP PUSH0 DUP3 DUP2 MSTORE PUSH1 0x6 PUSH1 0x20 MSTORE PUSH1 0x40 DUP2 KECCAK256 DUP1 SLOAD PUSH2 0x904 SWAP1 PUSH2 0x11A9 JUMP JUMPDEST DUP1 PUSH1 0x1F ADD PUSH1 0x20 DUP1 SWAP2 DIV MUL PUSH1 0x20 ADD PUSH1 0x40 MLOAD SWAP1 DUP2 ADD PUSH1 0x40 MSTORE DUP1 SWAP3 SWAP2 SWAP1 DUP2 DUP2 MSTORE PUSH1 0x20 ADD DUP3 DUP1 SLOAD PUSH2 0x930 SWAP1 PUSH2 0x11A9 JUMP JUMPDEST DUP1 ISZERO PUSH2 0x97B JUMPI DUP1 PUSH1 0x1F LT PUSH2 0x952 JUMPI PUSH2 0x100 DUP1 DUP4 SLOAD DIV MUL DUP4 MSTORE SWAP2 PUSH1 0x20 ADD SWAP2 PUSH2 0x97B JUMP JUMPDEST DUP3 ADD SWAP2 SWAP1 PUSH0 MSTORE PUSH1 0x20 PUSH0 KECCAK256 SWAP1 JUMPDEST DUP2 SLOAD DUP2 MSTORE SWAP1 PUSH1 0x1 ADD SWAP1 PUSH1 0x20 ADD DUP1 DUP4 GT PUSH2 0x95E JUMPI DUP3 SWAP1 SUB PUSH1 0x1F AND DUP3 ADD SWAP2 JUMPDEST POP POP POP POP POP SWAP1 POP PUSH0 PUSH2 0x997 PUSH1 0x40 DUP1 MLOAD PUSH1 0x20 DUP2 ADD SWAP1 SWAP2 MSTORE PUSH0 DUP2 MSTORE SWAP1 JUMP JUMPDEST SWAP1 POP DUP1 MLOAD PUSH0 SUB PUSH2 0x9A8 JUMPI POP SWAP3 SWAP2 POP POP JUMP JUMPDEST DUP2 MLOAD ISZERO PUSH2 0x9DA JUMPI DUP1 DUP3 PUSH1 0x40 MLOAD PUSH1 0x20 ADD PUSH2 0x9C2 SWAP3 SWAP2 SWAP1 PUSH2 0x124F JUMP JUMPDEST PUSH1 0x40 MLOAD PUSH1 0x20 DUP2 DUP4 SUB SUB DUP2 MSTORE SWAP1 PUSH1 0x40 MSTORE SWAP3 POP POP POP SWAP2 SWAP1 POP JUMP JUMPDEST PUSH2 0x9E3 DUP5 PUSH2 0xC0A JUMP JUMPDEST SWAP5 SWAP4 POP POP POP POP JUMP JUMPDEST PUSH2 0x363 DUP3 DUP3 PUSH1 0x40 MLOAD DUP1 PUSH1 0x20 ADD PUSH1 0x40 MSTORE DUP1 PUSH0 DUP2 MSTORE POP PUSH2 0xC7B JUMP JUMPDEST PUSH0 DUP3 DUP2 MSTORE PUSH1 0x6 PUSH1 0x20 MSTORE PUSH1 0x40 SWAP1 KECCAK256 PUSH2 0xA1B DUP3 DUP3 PUSH2 0x12A7 JUMP JUMPDEST POP PUSH1 0x40 MLOAD DUP3 DUP2 MSTORE PUSH32 0xF8E1A15ABA9398E019F0B49DF1A4FDE98EE17AE345CB5F6B5E2C27F5033E8CE7 SWAP1 PUSH1 0x20 ADD PUSH1 0x40 MLOAD DUP1 SWAP2 SUB SWAP1 LOG1 POP POP JUMP JUMPDEST PUSH0 PUSH1 0x1 PUSH1 0x1 PUSH1 0xE0 SHL SUB NOT DUP3 AND PUSH4 0x80AC58CD PUSH1 0xE0 SHL EQ DUP1 PUSH2 0xA83 JUMPI POP PUSH1 0x1 PUSH1 0x1 PUSH1 0xE0 SHL SUB NOT DUP3 AND PUSH4 0x5B5E139F PUSH1 0xE0 SHL EQ JUMPDEST DUP1 PUSH2 0x29C JUMPI POP PUSH4 0x1FFC9A7 PUSH1 0xE0 SHL PUSH1 0x1 PUSH1 0x1 PUSH1 0xE0 SHL SUB NOT DUP4 AND EQ PUSH2 0x29C JUMP JUMPDEST DUP1 DUP1 PUSH2 0xAB6 JUMPI POP PUSH1 0x1 PUSH1 0x1 PUSH1 0xA0 SHL SUB DUP3 AND ISZERO ISZERO JUMPDEST ISZERO PUSH2 0xB77 JUMPI PUSH0 PUSH2 0xAC5 DUP5 PUSH2 0x567 JUMP JUMPDEST SWAP1 POP PUSH1 0x1 PUSH1 0x1 PUSH1 0xA0 SHL SUB DUP4 AND ISZERO DUP1 ISZERO SWAP1 PUSH2 0xAF1 JUMPI POP DUP3 PUSH1 0x1 PUSH1 0x1 PUSH1 0xA0 SHL SUB AND DUP2 PUSH1 0x1 PUSH1 0x1 PUSH1 0xA0 SHL SUB AND EQ ISZERO JUMPDEST DUP1 ISZERO PUSH2 0xB04 JUMPI POP PUSH2 0xB02 DUP2 DUP5 PUSH2 0x4D9 JUMP JUMPDEST ISZERO JUMPDEST ISZERO PUSH2 0xB2D JUMPI PUSH1 0x40 MLOAD PUSH4 0xA9FBF51F PUSH1 0xE0 SHL DUP2 MSTORE PUSH1 0x1 PUSH1 0x1 PUSH1 0xA0 SHL SUB DUP5 AND PUSH1 0x4 DUP3 ADD MSTORE PUSH1 0x24 ADD PUSH2 0x38C JUMP JUMPDEST DUP2 ISZERO PUSH2 0xB75 JUMPI DUP4 DUP6 PUSH1 0x1 PUSH1 0x1 PUSH1 0xA0 SHL SUB AND DUP3 PUSH1 0x1 PUSH1 0x1 PUSH1 0xA0 SHL SUB AND PUSH32 0x8C5BE1E5EBEC7D5BD14F71427D1E84F3DD0314C0F7B2291E5B200AC8C7C3B925 PUSH1 0x40 MLOAD PUSH1 0x40 MLOAD DUP1 SWAP2 SUB SWAP1 LOG4 JUMPDEST POP JUMPDEST POP POP PUSH0 SWAP1 DUP2 MSTORE PUSH1 0x4 PUSH1 0x20 MSTORE PUSH1 0x40 SWAP1 KECCAK256 DUP1 SLOAD PUSH1 0x1 PUSH1 0x1 PUSH1 0xA0 SHL SUB NOT AND PUSH1 0x1 PUSH1 0x1 PUSH1 0xA0 SHL SUB SWAP3 SWAP1 SWAP3 AND SWAP2 SWAP1 SWAP2 OR SWAP1 SSTORE JUMP JUMPDEST PUSH2 0xBB1 DUP4 DUP4 DUP4 PUSH2 0xC91 JUMP JUMPDEST PUSH2 0x40F JUMPI PUSH1 0x1 PUSH1 0x1 PUSH1 0xA0 SHL SUB DUP4 AND PUSH2 0xBDF JUMPI PUSH1 0x40 MLOAD PUSH4 0x7E273289 PUSH1 0xE0 SHL DUP2 MSTORE PUSH1 0x4 DUP2 ADD DUP3 SWAP1 MSTORE PUSH1 0x24 ADD PUSH2 0x38C JUMP JUMPDEST PUSH1 0x40 MLOAD PUSH4 0x177E802F PUSH1 0xE0 SHL DUP2 MSTORE PUSH1 0x1 PUSH1 0x1 PUSH1 0xA0 SHL SUB DUP4 AND PUSH1 0x4 DUP3 ADD MSTORE PUSH1 0x24 DUP2 ADD DUP3 SWAP1 MSTORE PUSH1 0x44 ADD PUSH2 0x38C JUMP JUMPDEST PUSH1 0x60 PUSH2 0xC15 DUP3 PUSH2 0x567 JUMP JUMPDEST POP PUSH0 PUSH2 0xC2B PUSH1 0x40 DUP1 MLOAD PUSH1 0x20 DUP2 ADD SWAP1 SWAP2 MSTORE PUSH0 DUP2 MSTORE SWAP1 JUMP JUMPDEST SWAP1 POP PUSH0 DUP2 MLOAD GT PUSH2 0xC49 JUMPI PUSH1 0x40 MLOAD DUP1 PUSH1 0x20 ADD PUSH1 0x40 MSTORE DUP1 PUSH0 DUP2 MSTORE POP PUSH2 0xC74 JUMP JUMPDEST DUP1 PUSH2 0xC53 DUP5 PUSH2 0xCF2 JUMP JUMPDEST PUSH1 0x40 MLOAD PUSH1 0x20 ADD PUSH2 0xC64 SWAP3 SWAP2 SWAP1 PUSH2 0x124F JUMP JUMPDEST PUSH1 0x40 MLOAD PUSH1 0x20 DUP2 DUP4 SUB SUB DUP2 MSTORE SWAP1 PUSH1 0x40 MSTORE JUMPDEST SWAP4 SWAP3 POP POP POP JUMP JUMPDEST PUSH2 0xC85 DUP4 DUP4 PUSH2 0xD82 JUMP JUMPDEST PUSH2 0x40F PUSH0 DUP5 DUP5 DUP5 PUSH2 0x7BA JUMP JUMPDEST PUSH0 PUSH1 0x1 PUSH1 0x1 PUSH1 0xA0 SHL SUB DUP4 AND ISZERO DUP1 ISZERO SWAP1 PUSH2 0x9E3 JUMPI POP DUP3 PUSH1 0x1 PUSH1 0x1 PUSH1 0xA0 SHL SUB AND DUP5 PUSH1 0x1 PUSH1 0x1 PUSH1 0xA0 SHL SUB AND EQ DUP1 PUSH2 0xCCA JUMPI POP PUSH2 0xCCA DUP5 DUP5 PUSH2 0x4D9 JUMP JUMPDEST DUP1 PUSH2 0x9E3 JUMPI POP POP PUSH0 SWAP1 DUP2 MSTORE PUSH1 0x4 PUSH1 0x20 MSTORE PUSH1 0x40 SWAP1 KECCAK256 SLOAD PUSH1 0x1 PUSH1 0x1 PUSH1 0xA0 SHL SUB SWAP1 DUP2 AND SWAP2 AND EQ SWAP2 SWAP1 POP JUMP JUMPDEST PUSH1 0x60 PUSH0 PUSH2 0xCFE DUP4 PUSH2 0xDE3 JUMP JUMPDEST PUSH1 0x1 ADD SWAP1 POP PUSH0 DUP2 PUSH8 0xFFFFFFFFFFFFFFFF DUP2 GT ISZERO PUSH2 0xD1D JUMPI PUSH2 0xD1D PUSH2 0x1010 JUMP JUMPDEST PUSH1 0x40 MLOAD SWAP1 DUP1 DUP3 MSTORE DUP1 PUSH1 0x1F ADD PUSH1 0x1F NOT AND PUSH1 0x20 ADD DUP3 ADD PUSH1 0x40 MSTORE DUP1 ISZERO PUSH2 0xD47 JUMPI PUSH1 0x20 DUP3 ADD DUP2 DUP1 CALLDATASIZE DUP4 CALLDATACOPY ADD SWAP1 POP JUMPDEST POP SWAP1 POP DUP2 DUP2 ADD PUSH1 0x20 ADD JUMPDEST PUSH0 NOT ADD PUSH16 0x181899199A1A9B1B9C1CB0B131B232B3 PUSH1 0x81 SHL PUSH1 0xA DUP7 MOD BYTE DUP2 MSTORE8 PUSH1 0xA DUP6 DIV SWAP5 POP DUP5 PUSH2 0xD51 JUMPI POP SWAP4 SWAP3 POP POP POP JUMP JUMPDEST PUSH1 0x1 PUSH1 0x1 PUSH1 0xA0 SHL SUB DUP3 AND PUSH2 0xDAB JUMPI PUSH1 0x40 MLOAD PUSH4 0x32505749 PUSH1 0xE1 SHL DUP2 MSTORE PUSH0 PUSH1 0x4 DUP3 ADD MSTORE PUSH1 0x24 ADD PUSH2 0x38C JUMP JUMPDEST PUSH0 PUSH2 0xDB7 DUP4 DUP4 PUSH0 PUSH2 0x5AC JUMP JUMPDEST SWAP1 POP PUSH1 0x1 PUSH1 0x1 PUSH1 0xA0 SHL SUB DUP2 AND ISZERO PUSH2 0x40F JUMPI PUSH1 0x40 MLOAD PUSH4 0x39E35637 PUSH1 0xE1 SHL DUP2 MSTORE PUSH0 PUSH1 0x4 DUP3 ADD MSTORE PUSH1 0x24 ADD PUSH2 0x38C JUMP JUMPDEST PUSH0 DUP1 PUSH19 0x184F03E93FF9F4DAA797ED6E38ED64BF6A1F01 PUSH1 0x40 SHL DUP4 LT PUSH2 0xE21 JUMPI PUSH19 0x184F03E93FF9F4DAA797ED6E38ED64BF6A1F01 PUSH1 0x40 SHL DUP4 DIV SWAP3 POP PUSH1 0x40 ADD JUMPDEST PUSH14 0x4EE2D6D415B85ACEF8100000000 DUP4 LT PUSH2 0xE4D JUMPI PUSH14 0x4EE2D6D415B85ACEF8100000000 DUP4 DIV SWAP3 POP PUSH1 0x20 ADD JUMPDEST PUSH7 0x2386F26FC10000 DUP4 LT PUSH2 0xE6B JUMPI PUSH7 0x2386F26FC10000 DUP4 DIV SWAP3 POP PUSH1 0x10 ADD JUMPDEST PUSH4 0x5F5E100 DUP4 LT PUSH2 0xE83 JUMPI PUSH4 0x5F5E100 DUP4 DIV SWAP3 POP PUSH1 0x8 ADD JUMPDEST PUSH2 0x2710 DUP4 LT PUSH2 0xE97 JUMPI PUSH2 0x2710 DUP4 DIV SWAP3 POP PUSH1 0x4 ADD JUMPDEST PUSH1 0x64 DUP4 LT PUSH2 0xEA9 JUMPI PUSH1 0x64 DUP4 DIV SWAP3 POP PUSH1 0x2 ADD JUMPDEST PUSH1 0xA DUP4 LT PUSH2 0x29C JUMPI PUSH1 0x1 ADD SWAP3 SWAP2 POP POP JUMP JUMPDEST PUSH1 0x1 PUSH1 0x1 PUSH1 0xE0 SHL SUB NOT DUP2 AND DUP2 EQ PUSH2 0x540 JUMPI PUSH0 PUSH0 REVERT JUMPDEST PUSH0 PUSH1 0x20 DUP3 DUP5 SUB SLT ISZERO PUSH2 0xEDF JUMPI PUSH0 PUSH0 REVERT JUMPDEST DUP2 CALLDATALOAD PUSH2 0xC74 DUP2 PUSH2 0xEBA JUMP JUMPDEST PUSH0 DUP2 MLOAD DUP1 DUP5 MSTORE DUP1 PUSH1 0x20 DUP5 ADD PUSH1 0x20 DUP7 ADD MCOPY PUSH0 PUSH1 0x20 DUP3 DUP7 ADD ADD MSTORE PUSH1 0x20 PUSH1 0x1F NOT PUSH1 0x1F DUP4 ADD AND DUP6 ADD ADD SWAP2 POP POP SWAP3 SWAP2 POP POP JUMP JUMPDEST PUSH1 0x20 DUP2 MSTORE PUSH0 PUSH2 0xC74 PUSH1 0x20 DUP4 ADD DUP5 PUSH2 0xEEA JUMP JUMPDEST PUSH0 PUSH1 0x20 DUP3 DUP5 SUB SLT ISZERO PUSH2 0xF3A JUMPI PUSH0 PUSH0 REVERT JUMPDEST POP CALLDATALOAD SWAP2 SWAP1 POP JUMP JUMPDEST DUP1 CALLDATALOAD PUSH1 0x1 PUSH1 0x1 PUSH1 0xA0 SHL SUB DUP2 AND DUP2 EQ PUSH2 0xF57 JUMPI PUSH0 PUSH0 REVERT JUMPDEST SWAP2 SWAP1 POP JUMP JUMPDEST PUSH0 PUSH0 PUSH1 0x40 DUP4 DUP6 SUB SLT ISZERO PUSH2 0xF6D JUMPI PUSH0 PUSH0 REVERT JUMPDEST PUSH2 0xF76 DUP4 PUSH2 0xF41 JUMP JUMPDEST SWAP5 PUSH1 0x20 SWAP4 SWAP1 SWAP4 ADD CALLDATALOAD SWAP4 POP POP POP JUMP JUMPDEST PUSH0 PUSH0 PUSH0 PUSH1 0x60 DUP5 DUP7 SUB SLT ISZERO PUSH2 0xF96 JUMPI PUSH0 PUSH0 REVERT JUMPDEST PUSH2 0xF9F DUP5 PUSH2 0xF41 JUMP JUMPDEST SWAP3 POP PUSH2 0xFAD PUSH1 0x20 DUP6 ADD PUSH2 0xF41 JUMP JUMPDEST SWAP3 SWAP6 SWAP3 SWAP5 POP POP POP PUSH1 0x40 SWAP2 SWAP1 SWAP2 ADD CALLDATALOAD SWAP1 JUMP JUMPDEST PUSH0 PUSH1 0x20 DUP3 DUP5 SUB SLT ISZERO PUSH2 0xFCE JUMPI PUSH0 PUSH0 REVERT JUMPDEST PUSH2 0xC74 DUP3 PUSH2 0xF41 JUMP JUMPDEST PUSH0 PUSH0 PUSH1 0x40 DUP4 DUP6 SUB SLT ISZERO PUSH2 0xFE8 JUMPI PUSH0 PUSH0 REVERT JUMPDEST PUSH2 0xFF1 DUP4 PUSH2 0xF41 JUMP JUMPDEST SWAP2 POP PUSH1 0x20 DUP4 ADD CALLDATALOAD DUP1 ISZERO ISZERO DUP2 EQ PUSH2 0x1005 JUMPI PUSH0 PUSH0 REVERT JUMPDEST DUP1 SWAP2 POP POP SWAP3 POP SWAP3 SWAP1 POP JUMP JUMPDEST PUSH4 0x4E487B71 PUSH1 0xE0 SHL PUSH0 MSTORE PUSH1 0x41 PUSH1 0x4 MSTORE PUSH1 0x24 PUSH0 REVERT JUMPDEST PUSH0 PUSH0 PUSH8 0xFFFFFFFFFFFFFFFF DUP5 GT ISZERO PUSH2 0x103E JUMPI PUSH2 0x103E PUSH2 0x1010 JUMP JUMPDEST POP PUSH1 0x40 MLOAD PUSH1 0x1F NOT PUSH1 0x1F DUP6 ADD DUP2 AND PUSH1 0x3F ADD AND DUP2 ADD DUP2 DUP2 LT PUSH8 0xFFFFFFFFFFFFFFFF DUP3 GT OR ISZERO PUSH2 0x106D JUMPI PUSH2 0x106D PUSH2 0x1010 JUMP JUMPDEST PUSH1 0x40 MSTORE DUP4 DUP2 MSTORE SWAP1 POP DUP1 DUP3 DUP5 ADD DUP6 LT ISZERO PUSH2 0x1084 JUMPI PUSH0 PUSH0 REVERT JUMPDEST DUP4 DUP4 PUSH1 0x20 DUP4 ADD CALLDATACOPY PUSH0 PUSH1 0x20 DUP6 DUP4 ADD ADD MSTORE POP SWAP4 SWAP3 POP POP POP JUMP JUMPDEST PUSH0 PUSH0 PUSH0 PUSH0 PUSH1 0x80 DUP6 DUP8 SUB SLT ISZERO PUSH2 0x10AE JUMPI PUSH0 PUSH0 REVERT JUMPDEST PUSH2 0x10B7 DUP6 PUSH2 0xF41 JUMP JUMPDEST SWAP4 POP PUSH2 0x10C5 PUSH1 0x20 DUP7 ADD PUSH2 0xF41 JUMP JUMPDEST SWAP3 POP PUSH1 0x40 DUP6 ADD CALLDATALOAD SWAP2 POP PUSH1 0x60 DUP6 ADD CALLDATALOAD PUSH8 0xFFFFFFFFFFFFFFFF DUP2 GT ISZERO PUSH2 0x10E7 JUMPI PUSH0 PUSH0 REVERT JUMPDEST DUP6 ADD PUSH1 0x1F DUP2 ADD DUP8 SGT PUSH2 0x10F7 JUMPI PUSH0 PUSH0 REVERT JUMPDEST PUSH2 0x1106 DUP8 DUP3 CALLDATALOAD PUSH1 0x20 DUP5 ADD PUSH2 0x1024 JUMP JUMPDEST SWAP2 POP POP SWAP3 SWAP6 SWAP2 SWAP5 POP SWAP3 POP JUMP JUMPDEST PUSH0 PUSH0 PUSH0 PUSH1 0x60 DUP5 DUP7 SUB SLT ISZERO PUSH2 0x1124 JUMPI PUSH0 PUSH0 REVERT JUMPDEST PUSH2 0x112D DUP5 PUSH2 0xF41 JUMP JUMPDEST SWAP3 POP PUSH1 0x20 DUP5 ADD CALLDATALOAD SWAP2 POP PUSH1 0x40 DUP5 ADD CALLDATALOAD PUSH8 0xFFFFFFFFFFFFFFFF DUP2 GT ISZERO PUSH2 0x114F JUMPI PUSH0 PUSH0 REVERT JUMPDEST DUP5 ADD PUSH1 0x1F DUP2 ADD DUP7 SGT PUSH2 0x115F JUMPI PUSH0 PUSH0 REVERT JUMPDEST PUSH2 0x116E DUP7 DUP3 CALLDATALOAD PUSH1 0x20 DUP5 ADD PUSH2 0x1024 JUMP JUMPDEST SWAP2 POP POP SWAP3 POP SWAP3 POP SWAP3 JUMP JUMPDEST PUSH0 PUSH0 PUSH1 0x40 DUP4 DUP6 SUB SLT ISZERO PUSH2 0x1189 JUMPI PUSH0 PUSH0 REVERT JUMPDEST PUSH2 0x1192 DUP4 PUSH2 0xF41 JUMP JUMPDEST SWAP2 POP PUSH2 0x11A0 PUSH1 0x20 DUP5 ADD PUSH2 0xF41 JUMP JUMPDEST SWAP1 POP SWAP3 POP SWAP3 SWAP1 POP JUMP JUMPDEST PUSH1 0x1 DUP2 DUP2 SHR SWAP1 DUP3 AND DUP1 PUSH2 0x11BD JUMPI PUSH1 0x7F DUP3 AND SWAP2 POP JUMPDEST PUSH1 0x20 DUP3 LT DUP2 SUB PUSH2 0x11DB JUMPI PUSH4 0x4E487B71 PUSH1 0xE0 SHL PUSH0 MSTORE PUSH1 0x22 PUSH1 0x4 MSTORE PUSH1 0x24 PUSH0 REVERT JUMPDEST POP SWAP2 SWAP1 POP JUMP JUMPDEST PUSH1 0x1 PUSH1 0x1 PUSH1 0xA0 SHL SUB DUP6 DUP2 AND DUP3 MSTORE DUP5 AND PUSH1 0x20 DUP3 ADD MSTORE PUSH1 0x40 DUP2 ADD DUP4 SWAP1 MSTORE PUSH1 0x80 PUSH1 0x60 DUP3 ADD DUP2 SWAP1 MSTORE PUSH0 SWAP1 PUSH2 0x1213 SWAP1 DUP4 ADD DUP5 PUSH2 0xEEA JUMP JUMPDEST SWAP7 SWAP6 POP POP POP POP POP POP JUMP JUMPDEST PUSH0 PUSH1 0x20 DUP3 DUP5 SUB SLT ISZERO PUSH2 0x122D JUMPI PUSH0 PUSH0 REVERT JUMPDEST DUP2 MLOAD PUSH2 0xC74 DUP2 PUSH2 0xEBA JUMP JUMPDEST PUSH0 DUP2 MLOAD DUP1 PUSH1 0x20 DUP5 ADD DUP6 MCOPY PUSH0 SWAP4 ADD SWAP3 DUP4 MSTORE POP SWAP1 SWAP2 SWAP1 POP JUMP JUMPDEST PUSH0 PUSH2 0x9E3 PUSH2 0x125D DUP4 DUP7 PUSH2 0x1238 JUMP JUMPDEST DUP5 PUSH2 0x1238 JUMP JUMPDEST PUSH1 0x1F DUP3 GT ISZERO PUSH2 0x40F JUMPI DUP1 PUSH0 MSTORE PUSH1 0x20 PUSH0 KECCAK256 PUSH1 0x1F DUP5 ADD PUSH1 0x5 SHR DUP2 ADD PUSH1 0x20 DUP6 LT ISZERO PUSH2 0x1288 JUMPI POP DUP1 JUMPDEST PUSH1 0x1F DUP5 ADD PUSH1 0x5 SHR DUP3 ADD SWAP2 POP JUMPDEST DUP2 DUP2 LT ISZERO PUSH2 0x8D9 JUMPI PUSH0 DUP2 SSTORE PUSH1 0x1 ADD PUSH2 0x1294 JUMP JUMPDEST DUP2 MLOAD PUSH8 0xFFFFFFFFFFFFFFFF DUP2 GT ISZERO PUSH2 0x12C1 JUMPI PUSH2 0x12C1 PUSH2 0x1010 JUMP JUMPDEST PUSH2 0x12D5 DUP2 PUSH2 0x12CF DUP5 SLOAD PUSH2 0x11A9 JUMP JUMPDEST DUP5 PUSH2 0x1263 JUMP JUMPDEST PUSH1 0x20 PUSH1 0x1F DUP3 GT PUSH1 0x1 DUP2 EQ PUSH2 0x1307 JUMPI PUSH0 DUP4 ISZERO PUSH2 0x12F0 JUMPI POP DUP5 DUP3 ADD MLOAD JUMPDEST PUSH0 NOT PUSH1 0x3 DUP6 SWAP1 SHL SHR NOT AND PUSH1 0x1 DUP5 SWAP1 SHL OR DUP5 SSTORE PUSH2 0x8D9 JUMP JUMPDEST PUSH0 DUP5 DUP2 MSTORE PUSH1 0x20 DUP2 KECCAK256 PUSH1 0x1F NOT DUP6 AND SWAP2 JUMPDEST DUP3 DUP2 LT ISZERO PUSH2 0x1336 JUMPI DUP8 DUP6 ADD MLOAD DUP3 SSTORE PUSH1 0x20 SWAP5 DUP6 ADD SWAP5 PUSH1 0x1 SWAP1 SWAP3 ADD SWAP2 ADD PUSH2 0x1316 JUMP JUMPDEST POP DUP5 DUP3 LT ISZERO PUSH2 0x1353 JUMPI DUP7 DUP5 ADD MLOAD PUSH0 NOT PUSH1 0x3 DUP8 SWAP1 SHL PUSH1 0xF8 AND SHR NOT AND DUP2 SSTORE JUMPDEST POP POP POP POP PUSH1 0x1 SWAP1 DUP2 SHL ADD SWAP1 SSTORE POP JUMP INVALID LOG2 PUSH5 0x6970667358 0x22 SLT KECCAK256 XOR 0xBE 0xB4 PUSH3 0x1FBA3 SLOAD 0xC8 0xF TSTORE 0x4E TSTORE PUSH20 0x63D45C7388CFDE131FF5734CE367C60E76036473 PUSH16 0x6C634300081C00330000000000000000 "
				},
				"gasEstimates": {
					"creation": {
						"codeDepositCost": "1003200",
						"executionCost": "infinite",
						"totalCost": "infinite"
					},
					"external": {
						"approve(address,uint256)": "31530",
						"balanceOf(address)": "2696",
						"burn(uint256)": "82347",
						"getApproved(uint256)": "infinite",
						"isApprovedForAll(address,address)": "infinite",
						"name()": "infinite",
						"owner()": "2375",
						"ownerOf(uint256)": "infinite",
						"renounceOwnership()": "infinite",
						"safeMint(address,uint256,string)": "infinite",
						"safeTransferFrom(address,address,uint256)": "infinite",
						"safeTransferFrom(address,address,uint256,bytes)": "infinite",
						"setApprovalForAll(address,bool)": "26744",
						"supportsInterface(bytes4)": "infinite",
						"symbol()": "infinite",
						"tokenURI(uint256)": "infinite",
						"transferFrom(address,address,uint256)": "infinite",
						"transferOwnership(address)": "28443"
					}
				},
				"methodIdentifiers": {
					"approve(address,uint256)": "095ea7b3",
					"balanceOf(address)": "70a08231",
					"burn(uint256)": "42966c68",
					"getApproved(uint256)": "081812fc",
					"isApprovedForAll(address,address)": "e985e9c5",
					"name()": "06fdde03",
					"owner()": "8da5cb5b",
					"ownerOf(uint256)": "6352211e",
					"renounceOwnership()": "715018a6",
					"safeMint(address,uint256,string)": "cd279c7c",
					"safeTransferFrom(address,address,uint256)": "42842e0e",
					"safeTransferFrom(address,address,uint256,bytes)": "b88d4fde",
					"setApprovalForAll(address,bool)": "a22cb465",
					"supportsInterface(bytes4)": "01ffc9a7",
					"symbol()": "95d89b41",
					"tokenURI(uint256)": "c87b56dd",
					"transferFrom(address,address,uint256)": "23b872dd",
					"transferOwnership(address)": "f2fde38b"
				}
			},
			"storageLayout": {
				"storage": [
					{
						"astId": 349,
						"contract": "contracts/2weeksNFT.sol:TeslamToken",
						"label": "_name",
						"offset": 0,
						"slot": "0",
						"type": "t_string_storage"
					},
					{
						"astId": 351,
						"contract": "contracts/2weeksNFT.sol:TeslamToken",
						"label": "_symbol",
						"offset": 0,
						"slot": "1",
						"type": "t_string_storage"
					},
					{
						"astId": 355,
						"contract": "contracts/2weeksNFT.sol:TeslamToken",
						"label": "_owners",
						"offset": 0,
						"slot": "2",
						"type": "t_mapping(t_uint256,t_address)"
					},
					{
						"astId": 359,
						"contract": "contracts/2weeksNFT.sol:TeslamToken",
						"label": "_balances",
						"offset": 0,
						"slot": "3",
						"type": "t_mapping(t_address,t_uint256)"
					},
					{
						"astId": 363,
						"contract": "contracts/2weeksNFT.sol:TeslamToken",
						"label": "_tokenApprovals",
						"offset": 0,
						"slot": "4",
						"type": "t_mapping(t_uint256,t_address)"
					},
					{
						"astId": 369,
						"contract": "contracts/2weeksNFT.sol:TeslamToken",
						"label": "_operatorApprovals",
						"offset": 0,
						"slot": "5",
						"type": "t_mapping(t_address,t_mapping(t_address,t_bool))"
					},
					{
						"astId": 1517,
						"contract": "contracts/2weeksNFT.sol:TeslamToken",
						"label": "_tokenURIs",
						"offset": 0,
						"slot": "6",
						"type": "t_mapping(t_uint256,t_string_storage)"
					},
					{
						"astId": 8,
						"contract": "contracts/2weeksNFT.sol:TeslamToken",
						"label": "_owner",
						"offset": 0,
						"slot": "7",
						"type": "t_address"
					}
				],
				"types": {
					"t_address": {
						"encoding": "inplace",
						"label": "address",
						"numberOfBytes": "20"
					},
					"t_bool": {
						"encoding": "inplace",
						"label": "bool",
						"numberOfBytes": "1"
					},
					"t_mapping(t_address,t_bool)": {
						"encoding": "mapping",
						"key": "t_address",
						"label": "mapping(address => bool)",
						"numberOfBytes": "32",
						"value": "t_bool"
					},
					"t_mapping(t_address,t_mapping(t_address,t_bool))": {
						"encoding": "mapping",
						"key": "t_address",
						"label": "mapping(address => mapping(address => bool))",
						"numberOfBytes": "32",
						"value": "t_mapping(t_address,t_bool)"
					},
					"t_mapping(t_address,t_uint256)": {
						"encoding": "mapping",
						"key": "t_address",
						"label": "mapping(address => uint256)",
						"numberOfBytes": "32",
						"value": "t_uint256"
					},
					"t_mapping(t_uint256,t_address)": {
						"encoding": "mapping",
						"key": "t_uint256",
						"label": "mapping(uint256 => address)",
						"numberOfBytes": "32",
						"value": "t_address"
					},
					"t_mapping(t_uint256,t_string_storage)": {
						"encoding": "mapping",
						"key": "t_uint256",
						"label": "mapping(uint256 => string)",
						"numberOfBytes": "32",
						"value": "t_string_storage"
					},
					"t_string_storage": {
						"encoding": "bytes",
						"label": "string",
						"numberOfBytes": "32"
					},
					"t_uint256": {
						"encoding": "inplace",
						"label": "uint256",
						"numberOfBytes": "32"
					}
				}
			},
			"userdoc": {
				"kind": "user",
				"methods": {},
				"version": 1
			}
		}
	}
}